{
  "contractName": "SNAP",
  "abi": [
    {
      "inputs": [],
      "stateMutability": "nonpayable",
      "type": "constructor"
    },
    {
      "anonymous": false,
      "inputs": [
        {
          "indexed": true,
          "internalType": "address",
          "name": "user",
          "type": "address"
        }
      ],
      "name": "ApplicantRegister",
      "type": "event"
    },
    {
      "anonymous": false,
      "inputs": [
        {
          "indexed": true,
          "internalType": "address",
          "name": "owner",
          "type": "address"
        },
        {
          "indexed": true,
          "internalType": "address",
          "name": "approved",
          "type": "address"
        },
        {
          "indexed": true,
          "internalType": "uint256",
          "name": "tokenId",
          "type": "uint256"
        }
      ],
      "name": "Approval",
      "type": "event"
    },
    {
      "anonymous": false,
      "inputs": [
        {
          "indexed": true,
          "internalType": "address",
          "name": "owner",
          "type": "address"
        },
        {
          "indexed": true,
          "internalType": "address",
          "name": "operator",
          "type": "address"
        },
        {
          "indexed": false,
          "internalType": "bool",
          "name": "approved",
          "type": "bool"
        }
      ],
      "name": "ApprovalForAll",
      "type": "event"
    },
    {
      "anonymous": false,
      "inputs": [
        {
          "indexed": true,
          "internalType": "address",
          "name": "participant",
          "type": "address"
        },
        {
          "indexed": false,
          "internalType": "uint256",
          "name": "balance",
          "type": "uint256"
        }
      ],
      "name": "BalanceOfUser",
      "type": "event"
    },
    {
      "anonymous": false,
      "inputs": [
        {
          "indexed": true,
          "internalType": "address",
          "name": "merchant",
          "type": "address"
        },
        {
          "indexed": false,
          "internalType": "uint256",
          "name": "magicNumber",
          "type": "uint256"
        }
      ],
      "name": "MagicNumberSet",
      "type": "event"
    },
    {
      "anonymous": false,
      "inputs": [
        {
          "indexed": true,
          "internalType": "address",
          "name": "merchants",
          "type": "address"
        }
      ],
      "name": "MerchantRegister",
      "type": "event"
    },
    {
      "anonymous": false,
      "inputs": [
        {
          "indexed": true,
          "internalType": "address",
          "name": "applicant",
          "type": "address"
        },
        {
          "indexed": false,
          "internalType": "string",
          "name": "mealTicket",
          "type": "string"
        }
      ],
      "name": "ProvisionChangeApproved",
      "type": "event"
    },
    {
      "anonymous": false,
      "inputs": [
        {
          "indexed": true,
          "internalType": "address",
          "name": "applicant",
          "type": "address"
        },
        {
          "indexed": false,
          "internalType": "uint256",
          "name": "newBalance",
          "type": "uint256"
        }
      ],
      "name": "ProvisionChangeDenied",
      "type": "event"
    },
    {
      "anonymous": false,
      "inputs": [
        {
          "indexed": true,
          "internalType": "address",
          "name": "applicant",
          "type": "address"
        },
        {
          "indexed": false,
          "internalType": "string",
          "name": "mealRequested",
          "type": "string"
        }
      ],
      "name": "ProvisionChangeRequested",
      "type": "event"
    },
    {
      "anonymous": false,
      "inputs": [
        {
          "indexed": true,
          "internalType": "address",
          "name": "from",
          "type": "address"
        },
        {
          "indexed": true,
          "internalType": "address",
          "name": "to",
          "type": "address"
        },
        {
          "indexed": false,
          "internalType": "uint256",
          "name": "amount",
          "type": "uint256"
        }
      ],
      "name": "TicketTransferred",
      "type": "event"
    },
    {
      "anonymous": false,
      "inputs": [
        {
          "indexed": true,
          "internalType": "address",
          "name": "from",
          "type": "address"
        },
        {
          "indexed": true,
          "internalType": "address",
          "name": "to",
          "type": "address"
        },
        {
          "indexed": true,
          "internalType": "uint256",
          "name": "tokenId",
          "type": "uint256"
        }
      ],
      "name": "Transfer",
      "type": "event"
    },
    {
      "inputs": [
        {
          "internalType": "address",
          "name": "to",
          "type": "address"
        },
        {
          "internalType": "uint256",
          "name": "tokenId",
          "type": "uint256"
        }
      ],
      "name": "approve",
      "outputs": [],
      "stateMutability": "nonpayable",
      "type": "function"
    },
    {
      "inputs": [
        {
          "internalType": "address",
          "name": "owner",
          "type": "address"
        }
      ],
      "name": "balanceOf",
      "outputs": [
        {
          "internalType": "uint256",
          "name": "",
          "type": "uint256"
        }
      ],
      "stateMutability": "view",
      "type": "function",
      "constant": true
    },
    {
      "inputs": [],
      "name": "bureaucrat",
      "outputs": [
        {
          "internalType": "address",
          "name": "",
          "type": "address"
        }
      ],
      "stateMutability": "view",
      "type": "function",
      "constant": true
    },
    {
      "inputs": [
        {
          "internalType": "uint256",
          "name": "tokenId",
          "type": "uint256"
        }
      ],
      "name": "getApproved",
      "outputs": [
        {
          "internalType": "address",
          "name": "",
          "type": "address"
        }
      ],
      "stateMutability": "view",
      "type": "function",
      "constant": true
    },
    {
      "inputs": [
        {
          "internalType": "address",
          "name": "owner",
          "type": "address"
        },
        {
          "internalType": "address",
          "name": "operator",
          "type": "address"
        }
      ],
      "name": "isApprovedForAll",
      "outputs": [
        {
          "internalType": "bool",
          "name": "",
          "type": "bool"
        }
      ],
      "stateMutability": "view",
      "type": "function",
      "constant": true
    },
    {
      "inputs": [
        {
          "internalType": "uint256",
          "name": "",
          "type": "uint256"
        }
      ],
      "name": "meal",
      "outputs": [
        {
          "internalType": "string",
          "name": "",
          "type": "string"
        }
      ],
      "stateMutability": "view",
      "type": "function",
      "constant": true
    },
    {
      "inputs": [
        {
          "internalType": "address",
          "name": "",
          "type": "address"
        }
      ],
      "name": "merchants",
      "outputs": [
        {
          "internalType": "bool",
          "name": "registered",
          "type": "bool"
        }
      ],
      "stateMutability": "view",
      "type": "function",
      "constant": true
    },
    {
      "inputs": [],
      "name": "name",
      "outputs": [
        {
          "internalType": "string",
          "name": "",
          "type": "string"
        }
      ],
      "stateMutability": "view",
      "type": "function",
      "constant": true
    },
    {
      "inputs": [
        {
          "internalType": "uint256",
          "name": "tokenId",
          "type": "uint256"
        }
      ],
      "name": "ownerOf",
      "outputs": [
        {
          "internalType": "address",
          "name": "",
          "type": "address"
        }
      ],
      "stateMutability": "view",
      "type": "function",
      "constant": true
    },
    {
      "inputs": [
        {
          "internalType": "address",
          "name": "",
          "type": "address"
        }
      ],
      "name": "participants",
      "outputs": [
        {
          "internalType": "uint256",
          "name": "balance",
          "type": "uint256"
        },
        {
          "internalType": "uint256",
          "name": "magicNumber",
          "type": "uint256"
        },
        {
          "internalType": "bool",
          "name": "provisionChangeRequested",
          "type": "bool"
        },
        {
          "internalType": "string",
          "name": "openRequestMeal",
          "type": "string"
        },
        {
          "internalType": "bool",
          "name": "registered",
          "type": "bool"
        }
      ],
      "stateMutability": "view",
      "type": "function",
      "constant": true
    },
    {
      "inputs": [
        {
          "internalType": "address",
          "name": "from",
          "type": "address"
        },
        {
          "internalType": "address",
          "name": "to",
          "type": "address"
        },
        {
          "internalType": "uint256",
          "name": "tokenId",
          "type": "uint256"
        }
      ],
      "name": "safeTransferFrom",
      "outputs": [],
      "stateMutability": "nonpayable",
      "type": "function"
    },
    {
      "inputs": [
        {
          "internalType": "address",
          "name": "from",
          "type": "address"
        },
        {
          "internalType": "address",
          "name": "to",
          "type": "address"
        },
        {
          "internalType": "uint256",
          "name": "tokenId",
          "type": "uint256"
        },
        {
          "internalType": "bytes",
          "name": "data",
          "type": "bytes"
        }
      ],
      "name": "safeTransferFrom",
      "outputs": [],
      "stateMutability": "nonpayable",
      "type": "function"
    },
    {
      "inputs": [
        {
          "internalType": "address",
          "name": "operator",
          "type": "address"
        },
        {
          "internalType": "bool",
          "name": "approved",
          "type": "bool"
        }
      ],
      "name": "setApprovalForAll",
      "outputs": [],
      "stateMutability": "nonpayable",
      "type": "function"
    },
    {
      "inputs": [
        {
          "internalType": "bytes4",
          "name": "interfaceId",
          "type": "bytes4"
        }
      ],
      "name": "supportsInterface",
      "outputs": [
        {
          "internalType": "bool",
          "name": "",
          "type": "bool"
        }
      ],
      "stateMutability": "view",
      "type": "function",
      "constant": true
    },
    {
      "inputs": [],
      "name": "symbol",
      "outputs": [
        {
          "internalType": "string",
          "name": "",
          "type": "string"
        }
      ],
      "stateMutability": "view",
      "type": "function",
      "constant": true
    },
    {
      "inputs": [
        {
          "internalType": "uint256",
          "name": "tokenId",
          "type": "uint256"
        }
      ],
      "name": "tokenURI",
      "outputs": [
        {
          "internalType": "string",
          "name": "",
          "type": "string"
        }
      ],
      "stateMutability": "view",
      "type": "function",
      "constant": true
    },
    {
      "inputs": [
        {
          "internalType": "address",
          "name": "from",
          "type": "address"
        },
        {
          "internalType": "address",
          "name": "to",
          "type": "address"
        },
        {
          "internalType": "uint256",
          "name": "tokenId",
          "type": "uint256"
        }
      ],
      "name": "transferFrom",
      "outputs": [],
      "stateMutability": "nonpayable",
      "type": "function"
    },
    {
      "inputs": [
        {
          "internalType": "address",
          "name": "",
          "type": "address"
        }
      ],
      "name": "users",
      "outputs": [
        {
          "internalType": "bool",
          "name": "",
          "type": "bool"
        }
      ],
      "stateMutability": "view",
      "type": "function",
      "constant": true
    },
    {
      "inputs": [],
      "name": "registerApplicant",
      "outputs": [],
      "stateMutability": "nonpayable",
      "type": "function"
    },
    {
      "inputs": [],
      "name": "registerMerchant",
      "outputs": [],
      "stateMutability": "nonpayable",
      "type": "function"
    },
    {
      "inputs": [
        {
          "internalType": "address",
          "name": "to",
          "type": "address"
        },
        {
          "internalType": "string",
          "name": "mealToBuy",
          "type": "string"
        }
      ],
      "name": "purchaseMeal",
      "outputs": [],
      "stateMutability": "nonpayable",
      "type": "function"
    },
    {
      "inputs": [
        {
          "internalType": "address",
          "name": "to",
          "type": "address"
        },
        {
          "internalType": "uint256",
          "name": "noOfTokens",
          "type": "uint256"
        }
      ],
      "name": "sendToGovt",
      "outputs": [],
      "stateMutability": "nonpayable",
      "type": "function"
    },
    {
      "inputs": [
        {
          "internalType": "string",
          "name": "mealRequested",
          "type": "string"
        }
      ],
      "name": "requestProvisionChange",
      "outputs": [],
      "stateMutability": "nonpayable",
      "type": "function"
    },
    {
      "inputs": [
        {
          "internalType": "address",
          "name": "applicant",
          "type": "address"
        }
      ],
      "name": "approveProvisionChange",
      "outputs": [],
      "stateMutability": "nonpayable",
      "type": "function"
    },
    {
      "inputs": [
        {
          "internalType": "address",
          "name": "applicant",
          "type": "address"
        }
      ],
      "name": "mint",
      "outputs": [],
      "stateMutability": "nonpayable",
      "type": "function"
    },
    {
      "inputs": [
        {
          "internalType": "address",
          "name": "applicant",
          "type": "address"
        }
      ],
      "name": "denyProvisionChange",
      "outputs": [],
      "stateMutability": "nonpayable",
      "type": "function"
    },
    {
      "inputs": [
        {
          "internalType": "uint256",
          "name": "magicNumber",
          "type": "uint256"
        }
      ],
      "name": "setMagicNumber",
      "outputs": [],
      "stateMutability": "nonpayable",
      "type": "function"
    },
    {
      "inputs": [
        {
          "internalType": "address",
          "name": "owner",
          "type": "address"
        }
      ],
      "name": "getTokenId",
      "outputs": [
        {
          "internalType": "uint256[]",
          "name": "",
          "type": "uint256[]"
        }
      ],
      "stateMutability": "view",
      "type": "function",
      "constant": true
    },
    {
      "inputs": [
        {
          "internalType": "address",
          "name": "owner",
          "type": "address"
        }
      ],
      "name": "getTokenIdMerchant",
      "outputs": [
        {
          "internalType": "uint256[]",
          "name": "",
          "type": "uint256[]"
        }
      ],
      "stateMutability": "view",
      "type": "function",
      "constant": true
    },
    {
      "inputs": [],
      "name": "getTokenBalance",
      "outputs": [],
      "stateMutability": "nonpayable",
      "type": "function"
    }
  ],
  "bytecode": "0x608060405260006009553480156200001657600080fd5b506040518060400160405280600481526020017f4d65616c000000000000000000000000000000000000000000000000000000008152506040518060400160405280600481526020017f4d45414c000000000000000000000000000000000000000000000000000000008152508160009081620000949190620003c2565b508060019081620000a69190620003c2565b50505033600660006101000a81548173ffffffffffffffffffffffffffffffffffffffff021916908373ffffffffffffffffffffffffffffffffffffffff1602179055506001600b60003373ffffffffffffffffffffffffffffffffffffffff1673ffffffffffffffffffffffffffffffffffffffff16815260200190815260200160002060006101000a81548160ff021916908315150217905550620004a9565b600081519050919050565b7f4e487b7100000000000000000000000000000000000000000000000000000000600052604160045260246000fd5b7f4e487b7100000000000000000000000000000000000000000000000000000000600052602260045260246000fd5b60006002820490506001821680620001ca57607f821691505b602082108103620001e057620001df62000182565b5b50919050565b60008190508160005260206000209050919050565b60006020601f8301049050919050565b600082821b905092915050565b6000600883026200024a7fffffffffffffffffffffffffffffffffffffffffffffffffffffffffffffffff826200020b565b6200025686836200020b565b95508019841693508086168417925050509392505050565b6000819050919050565b6000819050919050565b6000620002a36200029d62000297846200026e565b62000278565b6200026e565b9050919050565b6000819050919050565b620002bf8362000282565b620002d7620002ce82620002aa565b84845462000218565b825550505050565b600090565b620002ee620002df565b620002fb818484620002b4565b505050565b5b81811015620003235762000317600082620002e4565b60018101905062000301565b5050565b601f82111562000372576200033c81620001e6565b6200034784620001fb565b8101602085101562000357578190505b6200036f6200036685620001fb565b83018262000300565b50505b505050565b600082821c905092915050565b6000620003976000198460080262000377565b1980831691505092915050565b6000620003b2838362000384565b9150826002028217905092915050565b620003cd8262000148565b67ffffffffffffffff811115620003e957620003e862000153565b5b620003f58254620001b1565b6200040282828562000327565b600060209050601f8311600181146200043a576000841562000425578287015190505b620004318582620003a4565b865550620004a1565b601f1984166200044a86620001e6565b60005b8281101562000474578489015182556001820191506020850194506020810190506200044d565b8683101562000494578489015162000490601f89168262000384565b8355505b6001600288020188555050505b505050505050565b614e5180620004b96000396000f3fe608060405234801561001057600080fd5b50600436106101da5760003560e01c806355dabe4211610104578063a22cb465116100a2578063e985e9c511610071578063e985e9c51461052b578063ee14e9391461055b578063f15376861461058b578063f6cf6a84146105bb576101da565b8063a22cb46514610493578063a87430ba146104af578063b88d4fde146104df578063c87b56dd146104fb576101da565b80636a627842116100de5780636a6278421461041f57806370a082311461043b57806382b2e2571461046b57806395d89b4114610475576101da565b806355dabe42146103b55780636352211e146103bf578063659135dd146103ef576101da565b806323b872dd1161017c5780633a17d6901161014b5780633a17d6901461035757806342842e0e14610373578063452061961461038f578063540e2bff14610399576101da565b806323b872dd146102e55780632ba2ed981461030157806331d3f5841461031d57806339c7eac814610339576101da565b8063095ea7b3116101b8578063095ea7b31461025d57806309e69ede146102795780630ba6bacd146102ad5780631a3f97dd146102c9576101da565b806301ffc9a7146101df57806306fdde031461020f578063081812fc1461022d575b600080fd5b6101f960048036038101906101f49190613293565b6105eb565b60405161020691906132db565b60405180910390f35b6102176106cd565b6040516102249190613386565b60405180910390f35b610247600480360381019061024291906133de565b61075f565b604051610254919061344c565b60405180910390f35b61027760048036038101906102729190613493565b6107a5565b005b610293600480360381019061028e91906134d3565b6108bc565b6040516102a495949392919061350f565b60405180910390f35b6102c760048036038101906102c291906134d3565b610994565b005b6102e360048036038101906102de9190613493565b610ba9565b005b6102ff60048036038101906102fa9190613569565b610db2565b005b61031b600480360381019061031691906133de565b610e12565b005b61033760048036038101906103329190613621565b610f7d565b005b610341611390565b60405161034e919061344c565b60405180910390f35b610371600480360381019061036c9190613681565b6113b6565b005b61038d60048036038101906103889190613569565b6115d6565b005b6103976115f6565b005b6103b360048036038101906103ae91906134d3565b611726565b005b6103bd611992565b005b6103d960048036038101906103d491906133de565b611c02565b6040516103e6919061344c565b60405180910390f35b610409600480360381019061040491906133de565b611c88565b6040516104169190613386565b60405180910390f35b610439600480360381019061043491906134d3565b611d34565b005b610455600480360381019061045091906134d3565b611fab565b60405161046291906136ce565b60405180910390f35b610473612062565b005b61047d6120ba565b60405161048a9190613386565b60405180910390f35b6104ad60048036038101906104a89190613715565b61214c565b005b6104c960048036038101906104c491906134d3565b612162565b6040516104d691906132db565b60405180910390f35b6104f960048036038101906104f49190613885565b612182565b005b610515600480360381019061051091906133de565b6121e4565b6040516105229190613386565b60405180910390f35b61054560048036038101906105409190613908565b61224c565b60405161055291906132db565b60405180910390f35b610575600480360381019061057091906134d3565b6122e0565b60405161058291906132db565b60405180910390f35b6105a560048036038101906105a091906134d3565b61230b565b6040516105b29190613a06565b60405180910390f35b6105d560048036038101906105d091906134d3565b6123bf565b6040516105e29190613a06565b60405180910390f35b60007f80ac58cd000000000000000000000000000000000000000000000000000000007bffffffffffffffffffffffffffffffffffffffffffffffffffffffff1916827bffffffffffffffffffffffffffffffffffffffffffffffffffffffff191614806106b657507f5b5e139f000000000000000000000000000000000000000000000000000000007bffffffffffffffffffffffffffffffffffffffffffffffffffffffff1916827bffffffffffffffffffffffffffffffffffffffffffffffffffffffff1916145b806106c657506106c582612459565b5b9050919050565b6060600080546106dc90613a57565b80601f016020809104026020016040519081016040528092919081815260200182805461070890613a57565b80156107555780601f1061072a57610100808354040283529160200191610755565b820191906000526020600020905b81548152906001019060200180831161073857829003601f168201915b5050505050905090565b600061076a826124c3565b6004600083815260200190815260200160002060009054906101000a900473ffffffffffffffffffffffffffffffffffffffff169050919050565b60006107b082611c02565b90508073ffffffffffffffffffffffffffffffffffffffff168373ffffffffffffffffffffffffffffffffffffffff1603610820576040517f08c379a000000000000000000000000000000000000000000000000000000000815260040161081790613afa565b60405180910390fd5b8073ffffffffffffffffffffffffffffffffffffffff1661083f61250e565b73ffffffffffffffffffffffffffffffffffffffff16148061086e575061086d8161086861250e565b61224c565b5b6108ad576040517f08c379a00000000000000000000000000000000000000000000000000000000081526004016108a490613b8c565b60405180910390fd5b6108b78383612516565b505050565b600a6020528060005260406000206000915090508060000154908060010154908060020160009054906101000a900460ff16908060060180546108fe90613a57565b80601f016020809104026020016040519081016040528092919081815260200182805461092a90613a57565b80156109775780601f1061094c57610100808354040283529160200191610977565b820191906000526020600020905b81548152906001019060200180831161095a57829003601f168201915b5050505050908060070160009054906101000a900460ff16905085565b600660009054906101000a900473ffffffffffffffffffffffffffffffffffffffff1673ffffffffffffffffffffffffffffffffffffffff163373ffffffffffffffffffffffffffffffffffffffff1614610a24576040517f08c379a0000000000000000000000000000000000000000000000000000000008152600401610a1b90613c1e565b60405180910390fd5b600a60008273ffffffffffffffffffffffffffffffffffffffff1673ffffffffffffffffffffffffffffffffffffffff16815260200190815260200160002060020160009054906101000a900460ff16610ab3576040517f08c379a0000000000000000000000000000000000000000000000000000000008152600401610aaa90613cb0565b60405180910390fd5b6000600a60008373ffffffffffffffffffffffffffffffffffffffff1673ffffffffffffffffffffffffffffffffffffffff16815260200190815260200160002060020160006101000a81548160ff021916908315150217905550610b1781611d34565b8073ffffffffffffffffffffffffffffffffffffffff167ff57cf6d280695c556b409823337d746075d8a4c7f64fff144463113c27fffa56600a60008473ffffffffffffffffffffffffffffffffffffffff1673ffffffffffffffffffffffffffffffffffffffff168152602001908152602001600020600601604051610b9e9190613d69565b60405180910390a250565b600c60003373ffffffffffffffffffffffffffffffffffffffff1673ffffffffffffffffffffffffffffffffffffffff16815260200190815260200160002060020160009054906101000a900460ff16610c38576040517f08c379a0000000000000000000000000000000000000000000000000000000008152600401610c2f90613dfd565b60405180910390fd5b80600c60003373ffffffffffffffffffffffffffffffffffffffff1673ffffffffffffffffffffffffffffffffffffffff168152602001908152602001600020600001805490501015610cc0576040517f08c379a0000000000000000000000000000000000000000000000000000000008152600401610cb790613e8f565b60405180910390fd5b60005b81811015610d4757610d343384600c60003373ffffffffffffffffffffffffffffffffffffffff1673ffffffffffffffffffffffffffffffffffffffff1681526020019081526020016000206000018481548110610d2457610d23613eaf565b5b90600052602060002001546125cf565b8080610d3f90613f0d565b915050610cc3565b508173ffffffffffffffffffffffffffffffffffffffff163373ffffffffffffffffffffffffffffffffffffffff167f17fe3deddce525fa12700a731e77ea94c319000ee656076e9e3f0d21638db7666000604051610da69190613f9a565b60405180910390a35050565b610dc3610dbd61250e565b826128c8565b610e02576040517f08c379a0000000000000000000000000000000000000000000000000000000008152600401610df990614027565b60405180910390fd5b610e0d8383836125cf565b505050565b600c60003373ffffffffffffffffffffffffffffffffffffffff1673ffffffffffffffffffffffffffffffffffffffff16815260200190815260200160002060020160009054906101000a900460ff16610ea1576040517f08c379a0000000000000000000000000000000000000000000000000000000008152600401610e9890613dfd565b60405180910390fd5b6000811015610ee5576040517f08c379a0000000000000000000000000000000000000000000000000000000008152600401610edc906140b9565b60405180910390fd5b80600a60003373ffffffffffffffffffffffffffffffffffffffff1673ffffffffffffffffffffffffffffffffffffffff168152602001908152602001600020600101819055503373ffffffffffffffffffffffffffffffffffffffff167f1ac19207c0953072a214e2dcd4fe07d08463d0ac91b3e0a26dc1c4b2791eebc582604051610f7291906136ce565b60405180910390a250565b600a60003373ffffffffffffffffffffffffffffffffffffffff1673ffffffffffffffffffffffffffffffffffffffff16815260200190815260200160002060070160009054906101000a900460ff1661100c576040517f08c379a00000000000000000000000000000000000000000000000000000000081526004016110039061414b565b60405180910390fd5b6000600a60003373ffffffffffffffffffffffffffffffffffffffff1673ffffffffffffffffffffffffffffffffffffffff168152602001908152602001600020600501838360405161106092919061419b565b908152602001604051809103902080549050036110b2576040517f08c379a00000000000000000000000000000000000000000000000000000000081526004016110a990613e8f565b60405180910390fd5b6000600a60003373ffffffffffffffffffffffffffffffffffffffff1673ffffffffffffffffffffffffffffffffffffffff168152602001908152602001600020600501838360405161110692919061419b565b90815260200160405180910390208054905090506111ad3385600a60003373ffffffffffffffffffffffffffffffffffffffff1673ffffffffffffffffffffffffffffffffffffffff168152602001908152602001600020600501868660405161117192919061419b565b908152602001604051809103902060018561118c91906141b4565b8154811061119d5761119c613eaf565b5b90600052602060002001546125cf565b600c60008573ffffffffffffffffffffffffffffffffffffffff1673ffffffffffffffffffffffffffffffffffffffff168152602001908152602001600020600001600a60003373ffffffffffffffffffffffffffffffffffffffff1673ffffffffffffffffffffffffffffffffffffffff168152602001908152602001600020600501848460405161124192919061419b565b908152602001604051809103902060018361125c91906141b4565b8154811061126d5761126c613eaf565b5b90600052602060002001549080600181540180825580915050600190039060005260206000200160009091909190915055600a60003373ffffffffffffffffffffffffffffffffffffffff1673ffffffffffffffffffffffffffffffffffffffff16815260200190815260200160002060050183836040516112f092919061419b565b908152602001604051809103902080548061130e5761130d6141e8565b5b600190038181906000526020600020016000905590558373ffffffffffffffffffffffffffffffffffffffff163373ffffffffffffffffffffffffffffffffffffffff167f17fe3deddce525fa12700a731e77ea94c319000ee656076e9e3f0d21638db76660006040516113829190613f9a565b60405180910390a350505050565b600660009054906101000a900473ffffffffffffffffffffffffffffffffffffffff1681565b600a60003373ffffffffffffffffffffffffffffffffffffffff1673ffffffffffffffffffffffffffffffffffffffff16815260200190815260200160002060070160009054906101000a900460ff16611445576040517f08c379a000000000000000000000000000000000000000000000000000000000815260040161143c9061414b565b60405180910390fd5b600a60003373ffffffffffffffffffffffffffffffffffffffff1673ffffffffffffffffffffffffffffffffffffffff16815260200190815260200160002060020160009054906101000a900460ff16156114d5576040517f08c379a00000000000000000000000000000000000000000000000000000000081526004016114cc90614263565b60405180910390fd5b6001600a60003373ffffffffffffffffffffffffffffffffffffffff1673ffffffffffffffffffffffffffffffffffffffff16815260200190815260200160002060020160006101000a81548160ff0219169083151502179055508181600a60003373ffffffffffffffffffffffffffffffffffffffff1673ffffffffffffffffffffffffffffffffffffffff168152602001908152602001600020600601918261158192919061441b565b503373ffffffffffffffffffffffffffffffffffffffff167f3749bf201820eb6bd36fbbc325fa2b4670a196182e764c11e6600e23bbaf9dd583836040516115ca929190614518565b60405180910390a25050565b6115f183838360405180602001604052806000815250612182565b505050565b600c60003373ffffffffffffffffffffffffffffffffffffffff1673ffffffffffffffffffffffffffffffffffffffff16815260200190815260200160002060020160009054906101000a900460ff1615611686576040517f08c379a000000000000000000000000000000000000000000000000000000000815260040161167d90614588565b60405180910390fd5b6001600c60003373ffffffffffffffffffffffffffffffffffffffff1673ffffffffffffffffffffffffffffffffffffffff16815260200190815260200160002060020160006101000a81548160ff0219169083151502179055503373ffffffffffffffffffffffffffffffffffffffff167f92b082de749f0ebd44fd01ce4acab93bf014fab9d1a385c57a6c5ad8d9d29af560405160405180910390a2565b600660009054906101000a900473ffffffffffffffffffffffffffffffffffffffff1673ffffffffffffffffffffffffffffffffffffffff163373ffffffffffffffffffffffffffffffffffffffff16146117b6576040517f08c379a00000000000000000000000000000000000000000000000000000000081526004016117ad90613c1e565b60405180910390fd5b600a60008273ffffffffffffffffffffffffffffffffffffffff1673ffffffffffffffffffffffffffffffffffffffff16815260200190815260200160002060020160009054906101000a900460ff16611845576040517f08c379a000000000000000000000000000000000000000000000000000000000815260040161183c90613cb0565b60405180910390fd5b6000600a60008373ffffffffffffffffffffffffffffffffffffffff1673ffffffffffffffffffffffffffffffffffffffff16815260200190815260200160002060020160006101000a81548160ff02191690831515021790555060405180602001604052806000815250600a60008373ffffffffffffffffffffffffffffffffffffffff1673ffffffffffffffffffffffffffffffffffffffff16815260200190815260200160002060060190816118fe91906145a8565b508073ffffffffffffffffffffffffffffffffffffffff167fe4f86d8b20ded56c3d91ef1e193b47f16579b01d7713d1948bc4fc1a96bb85ee600a60008473ffffffffffffffffffffffffffffffffffffffff1673ffffffffffffffffffffffffffffffffffffffff1681526020019081526020016000206000015460405161198791906136ce565b60405180910390a250565b600b60003373ffffffffffffffffffffffffffffffffffffffff1673ffffffffffffffffffffffffffffffffffffffff16815260200190815260200160002060009054906101000a900460ff1615611a1f576040517f08c379a0000000000000000000000000000000000000000000000000000000008152600401611a1690614588565b60405180910390fd5b6001600b60003373ffffffffffffffffffffffffffffffffffffffff1673ffffffffffffffffffffffffffffffffffffffff16815260200190815260200160002060006101000a81548160ff0219169083151502179055506000600a60003373ffffffffffffffffffffffffffffffffffffffff1673ffffffffffffffffffffffffffffffffffffffff168152602001908152602001600020600001819055506000600a60003373ffffffffffffffffffffffffffffffffffffffff1673ffffffffffffffffffffffffffffffffffffffff168152602001908152602001600020600101819055506000600a60003373ffffffffffffffffffffffffffffffffffffffff1673ffffffffffffffffffffffffffffffffffffffff16815260200190815260200160002060020160006101000a81548160ff0219169083151502179055506001600a60003373ffffffffffffffffffffffffffffffffffffffff1673ffffffffffffffffffffffffffffffffffffffff16815260200190815260200160002060070160006101000a81548160ff0219169083151502179055503373ffffffffffffffffffffffffffffffffffffffff167fda626996b6a73d01583af35f00e8f523759cebc5f4865edf77713226e9b171d660405160405180910390a2565b600080611c0e8361295d565b9050600073ffffffffffffffffffffffffffffffffffffffff168173ffffffffffffffffffffffffffffffffffffffff1603611c7f576040517f08c379a0000000000000000000000000000000000000000000000000000000008152600401611c76906146c6565b60405180910390fd5b80915050919050565b60078181548110611c9857600080fd5b906000526020600020016000915090508054611cb390613a57565b80601f0160208091040260200160405190810160405280929190818152602001828054611cdf90613a57565b8015611d2c5780601f10611d0157610100808354040283529160200191611d2c565b820191906000526020600020905b815481529060010190602001808311611d0f57829003601f168201915b505050505081565b6001600954611d4391906146e6565b6009819055506007600a60008373ffffffffffffffffffffffffffffffffffffffff1673ffffffffffffffffffffffffffffffffffffffff168152602001908152602001600020600601908060018154018082558091505060019003906000526020600020016000909190919091509081611dbe9190614745565b50611dcb8160095461299a565b600a60008273ffffffffffffffffffffffffffffffffffffffff1673ffffffffffffffffffffffffffffffffffffffff168152602001908152602001600020600501600a60008373ffffffffffffffffffffffffffffffffffffffff1673ffffffffffffffffffffffffffffffffffffffff168152602001908152602001600020600601604051611e5c91906148b0565b90815260200160405180910390206009549080600181540180825580915050600190039060005260206000200160009091909190915055600a60008273ffffffffffffffffffffffffffffffffffffffff1673ffffffffffffffffffffffffffffffffffffffff168152602001908152602001600020600401600a60008373ffffffffffffffffffffffffffffffffffffffff1673ffffffffffffffffffffffffffffffffffffffff168152602001908152602001600020600601908060018154018082558091505060019003906000526020600020016000909190919091509081611f489190614745565b5060405180602001604052806000815250600a60008373ffffffffffffffffffffffffffffffffffffffff1673ffffffffffffffffffffffffffffffffffffffff1681526020019081526020016000206006019081611fa791906145a8565b5050565b60008073ffffffffffffffffffffffffffffffffffffffff168273ffffffffffffffffffffffffffffffffffffffff160361201b576040517f08c379a000000000000000000000000000000000000000000000000000000000815260040161201290614939565b60405180910390fd5b600360008373ffffffffffffffffffffffffffffffffffffffff1673ffffffffffffffffffffffffffffffffffffffff168152602001908152602001600020549050919050565b3373ffffffffffffffffffffffffffffffffffffffff167f6b3405cd994ebc14b193dfe61873704b89d0a7de98be9a353206cf8ad87017cc6120a333611fab565b6040516120b091906136ce565b60405180910390a2565b6060600180546120c990613a57565b80601f01602080910402602001604051908101604052809291908181526020018280546120f590613a57565b80156121425780601f1061211757610100808354040283529160200191612142565b820191906000526020600020905b81548152906001019060200180831161212557829003601f168201915b5050505050905090565b61215e61215761250e565b83836129b8565b5050565b600b6020528060005260406000206000915054906101000a900460ff1681565b61219361218d61250e565b836128c8565b6121d2576040517f08c379a00000000000000000000000000000000000000000000000000000000081526004016121c990614027565b60405180910390fd5b6121de84848484612b24565b50505050565b60606121ef826124c3565b60006121f9612b80565b905060008151116122195760405180602001604052806000815250612244565b8061222384612b97565b60405160200161223492919061498a565b6040516020818303038152906040525b915050919050565b6000600560008473ffffffffffffffffffffffffffffffffffffffff1673ffffffffffffffffffffffffffffffffffffffff16815260200190815260200160002060008373ffffffffffffffffffffffffffffffffffffffff1673ffffffffffffffffffffffffffffffffffffffff16815260200190815260200160002060009054906101000a900460ff16905092915050565b600c6020528060005260406000206000915090508060020160009054906101000a900460ff16905081565b6060600a60008373ffffffffffffffffffffffffffffffffffffffff1673ffffffffffffffffffffffffffffffffffffffff16815260200190815260200160002060050160405161235b906149fa565b90815260200160405180910390208054806020026020016040519081016040528092919081815260200182805480156123b357602002820191906000526020600020905b81548152602001906001019080831161239f575b50505050509050919050565b6060600c60008373ffffffffffffffffffffffffffffffffffffffff1673ffffffffffffffffffffffffffffffffffffffff16815260200190815260200160002060000180548060200260200160405190810160405280929190818152602001828054801561244d57602002820191906000526020600020905b815481526020019060010190808311612439575b50505050509050919050565b60007f01ffc9a7000000000000000000000000000000000000000000000000000000007bffffffffffffffffffffffffffffffffffffffffffffffffffffffff1916827bffffffffffffffffffffffffffffffffffffffffffffffffffffffff1916149050919050565b6124cc81612c65565b61250b576040517f08c379a0000000000000000000000000000000000000000000000000000000008152600401612502906146c6565b60405180910390fd5b50565b600033905090565b816004600083815260200190815260200160002060006101000a81548173ffffffffffffffffffffffffffffffffffffffff021916908373ffffffffffffffffffffffffffffffffffffffff160217905550808273ffffffffffffffffffffffffffffffffffffffff1661258983611c02565b73ffffffffffffffffffffffffffffffffffffffff167f8c5be1e5ebec7d5bd14f71427d1e84f3dd0314c0f7b2291e5b200ac8c7c3b92560405160405180910390a45050565b8273ffffffffffffffffffffffffffffffffffffffff166125ef82611c02565b73ffffffffffffffffffffffffffffffffffffffff1614612645576040517f08c379a000000000000000000000000000000000000000000000000000000000815260040161263c90614a81565b60405180910390fd5b600073ffffffffffffffffffffffffffffffffffffffff168273ffffffffffffffffffffffffffffffffffffffff16036126b4576040517f08c379a00000000000000000000000000000000000000000000000000000000081526004016126ab90614b13565b60405180910390fd5b6126c18383836001612ca6565b8273ffffffffffffffffffffffffffffffffffffffff166126e182611c02565b73ffffffffffffffffffffffffffffffffffffffff1614612737576040517f08c379a000000000000000000000000000000000000000000000000000000000815260040161272e90614a81565b60405180910390fd5b6004600082815260200190815260200160002060006101000a81549073ffffffffffffffffffffffffffffffffffffffff02191690556001600360008573ffffffffffffffffffffffffffffffffffffffff1673ffffffffffffffffffffffffffffffffffffffff168152602001908152602001600020600082825403925050819055506001600360008473ffffffffffffffffffffffffffffffffffffffff1673ffffffffffffffffffffffffffffffffffffffff16815260200190815260200160002060008282540192505081905550816002600083815260200190815260200160002060006101000a81548173ffffffffffffffffffffffffffffffffffffffff021916908373ffffffffffffffffffffffffffffffffffffffff160217905550808273ffffffffffffffffffffffffffffffffffffffff168473ffffffffffffffffffffffffffffffffffffffff167fddf252ad1be2c89b69c2b068fc378daa952ba7f163c4a11628f55a4df523b3ef60405160405180910390a46128c38383836001612cac565b505050565b6000806128d483611c02565b90508073ffffffffffffffffffffffffffffffffffffffff168473ffffffffffffffffffffffffffffffffffffffff1614806129165750612915818561224c565b5b8061295457508373ffffffffffffffffffffffffffffffffffffffff1661293c8461075f565b73ffffffffffffffffffffffffffffffffffffffff16145b91505092915050565b60006002600083815260200190815260200160002060009054906101000a900473ffffffffffffffffffffffffffffffffffffffff169050919050565b6129b4828260405180602001604052806000815250612cb2565b5050565b8173ffffffffffffffffffffffffffffffffffffffff168373ffffffffffffffffffffffffffffffffffffffff1603612a26576040517f08c379a0000000000000000000000000000000000000000000000000000000008152600401612a1d90614b7f565b60405180910390fd5b80600560008573ffffffffffffffffffffffffffffffffffffffff1673ffffffffffffffffffffffffffffffffffffffff16815260200190815260200160002060008473ffffffffffffffffffffffffffffffffffffffff1673ffffffffffffffffffffffffffffffffffffffff16815260200190815260200160002060006101000a81548160ff0219169083151502179055508173ffffffffffffffffffffffffffffffffffffffff168373ffffffffffffffffffffffffffffffffffffffff167f17307eab39ab6107e8899845ad3d59bd9653f200f220920489ca2b5937696c3183604051612b1791906132db565b60405180910390a3505050565b612b2f8484846125cf565b612b3b84848484612d0d565b612b7a576040517f08c379a0000000000000000000000000000000000000000000000000000000008152600401612b7190614c11565b60405180910390fd5b50505050565b606060405180602001604052806000815250905090565b606060006001612ba684612e94565b01905060008167ffffffffffffffff811115612bc557612bc461375a565b5b6040519080825280601f01601f191660200182016040528015612bf75781602001600182028036833780820191505090505b509050600082602001820190505b600115612c5a578080600190039150507f3031323334353637383961626364656600000000000000000000000000000000600a86061a8153600a8581612c4e57612c4d614c31565b5b04945060008503612c05575b819350505050919050565b60008073ffffffffffffffffffffffffffffffffffffffff16612c878361295d565b73ffffffffffffffffffffffffffffffffffffffff1614159050919050565b50505050565b50505050565b612cbc8383612fe7565b612cc96000848484612d0d565b612d08576040517f08c379a0000000000000000000000000000000000000000000000000000000008152600401612cff90614c11565b60405180910390fd5b505050565b6000612d2e8473ffffffffffffffffffffffffffffffffffffffff16613204565b15612e87578373ffffffffffffffffffffffffffffffffffffffff1663150b7a02612d5761250e565b8786866040518563ffffffff1660e01b8152600401612d799493929190614cb5565b6020604051808303816000875af1925050508015612db557506040513d601f19601f82011682018060405250810190612db29190614d16565b60015b612e37573d8060008114612de5576040519150601f19603f3d011682016040523d82523d6000602084013e612dea565b606091505b506000815103612e2f576040517f08c379a0000000000000000000000000000000000000000000000000000000008152600401612e2690614c11565b60405180910390fd5b805181602001fd5b63150b7a0260e01b7bffffffffffffffffffffffffffffffffffffffffffffffffffffffff1916817bffffffffffffffffffffffffffffffffffffffffffffffffffffffff191614915050612e8c565b600190505b949350505050565b600080600090507a184f03e93ff9f4daa797ed6e38ed64bf6a1f0100000000000000008310612ef2577a184f03e93ff9f4daa797ed6e38ed64bf6a1f0100000000000000008381612ee857612ee7614c31565b5b0492506040810190505b6d04ee2d6d415b85acef81000000008310612f2f576d04ee2d6d415b85acef81000000008381612f2557612f24614c31565b5b0492506020810190505b662386f26fc100008310612f5e57662386f26fc100008381612f5457612f53614c31565b5b0492506010810190505b6305f5e1008310612f87576305f5e1008381612f7d57612f7c614c31565b5b0492506008810190505b6127108310612fac576127108381612fa257612fa1614c31565b5b0492506004810190505b60648310612fcf5760648381612fc557612fc4614c31565b5b0492506002810190505b600a8310612fde576001810190505b80915050919050565b600073ffffffffffffffffffffffffffffffffffffffff168273ffffffffffffffffffffffffffffffffffffffff1603613056576040517f08c379a000000000000000000000000000000000000000000000000000000000815260040161304d90614d8f565b60405180910390fd5b61305f81612c65565b1561309f576040517f08c379a000000000000000000000000000000000000000000000000000000000815260040161309690614dfb565b60405180910390fd5b6130ad600083836001612ca6565b6130b681612c65565b156130f6576040517f08c379a00000000000000000000000000000000000000000000000000000000081526004016130ed90614dfb565b60405180910390fd5b6001600360008473ffffffffffffffffffffffffffffffffffffffff1673ffffffffffffffffffffffffffffffffffffffff16815260200190815260200160002060008282540192505081905550816002600083815260200190815260200160002060006101000a81548173ffffffffffffffffffffffffffffffffffffffff021916908373ffffffffffffffffffffffffffffffffffffffff160217905550808273ffffffffffffffffffffffffffffffffffffffff16600073ffffffffffffffffffffffffffffffffffffffff167fddf252ad1be2c89b69c2b068fc378daa952ba7f163c4a11628f55a4df523b3ef60405160405180910390a4613200600083836001612cac565b5050565b6000808273ffffffffffffffffffffffffffffffffffffffff163b119050919050565b6000604051905090565b600080fd5b600080fd5b60007fffffffff0000000000000000000000000000000000000000000000000000000082169050919050565b6132708161323b565b811461327b57600080fd5b50565b60008135905061328d81613267565b92915050565b6000602082840312156132a9576132a8613231565b5b60006132b78482850161327e565b91505092915050565b60008115159050919050565b6132d5816132c0565b82525050565b60006020820190506132f060008301846132cc565b92915050565b600081519050919050565b600082825260208201905092915050565b60005b83811015613330578082015181840152602081019050613315565b60008484015250505050565b6000601f19601f8301169050919050565b6000613358826132f6565b6133628185613301565b9350613372818560208601613312565b61337b8161333c565b840191505092915050565b600060208201905081810360008301526133a0818461334d565b905092915050565b6000819050919050565b6133bb816133a8565b81146133c657600080fd5b50565b6000813590506133d8816133b2565b92915050565b6000602082840312156133f4576133f3613231565b5b6000613402848285016133c9565b91505092915050565b600073ffffffffffffffffffffffffffffffffffffffff82169050919050565b60006134368261340b565b9050919050565b6134468161342b565b82525050565b6000602082019050613461600083018461343d565b92915050565b6134708161342b565b811461347b57600080fd5b50565b60008135905061348d81613467565b92915050565b600080604083850312156134aa576134a9613231565b5b60006134b88582860161347e565b92505060206134c9858286016133c9565b9150509250929050565b6000602082840312156134e9576134e8613231565b5b60006134f78482850161347e565b91505092915050565b613509816133a8565b82525050565b600060a0820190506135246000830188613500565b6135316020830187613500565b61353e60408301866132cc565b8181036060830152613550818561334d565b905061355f60808301846132cc565b9695505050505050565b60008060006060848603121561358257613581613231565b5b60006135908682870161347e565b93505060206135a18682870161347e565b92505060406135b2868287016133c9565b9150509250925092565b600080fd5b600080fd5b600080fd5b60008083601f8401126135e1576135e06135bc565b5b8235905067ffffffffffffffff8111156135fe576135fd6135c1565b5b60208301915083600182028301111561361a576136196135c6565b5b9250929050565b60008060006040848603121561363a57613639613231565b5b60006136488682870161347e565b935050602084013567ffffffffffffffff81111561366957613668613236565b5b613675868287016135cb565b92509250509250925092565b6000806020838503121561369857613697613231565b5b600083013567ffffffffffffffff8111156136b6576136b5613236565b5b6136c2858286016135cb565b92509250509250929050565b60006020820190506136e36000830184613500565b92915050565b6136f2816132c0565b81146136fd57600080fd5b50565b60008135905061370f816136e9565b92915050565b6000806040838503121561372c5761372b613231565b5b600061373a8582860161347e565b925050602061374b85828601613700565b9150509250929050565b600080fd5b7f4e487b7100000000000000000000000000000000000000000000000000000000600052604160045260246000fd5b6137928261333c565b810181811067ffffffffffffffff821117156137b1576137b061375a565b5b80604052505050565b60006137c4613227565b90506137d08282613789565b919050565b600067ffffffffffffffff8211156137f0576137ef61375a565b5b6137f98261333c565b9050602081019050919050565b82818337600083830152505050565b6000613828613823846137d5565b6137ba565b90508281526020810184848401111561384457613843613755565b5b61384f848285613806565b509392505050565b600082601f83011261386c5761386b6135bc565b5b813561387c848260208601613815565b91505092915050565b6000806000806080858703121561389f5761389e613231565b5b60006138ad8782880161347e565b94505060206138be8782880161347e565b93505060406138cf878288016133c9565b925050606085013567ffffffffffffffff8111156138f0576138ef613236565b5b6138fc87828801613857565b91505092959194509250565b6000806040838503121561391f5761391e613231565b5b600061392d8582860161347e565b925050602061393e8582860161347e565b9150509250929050565b600081519050919050565b600082825260208201905092915050565b6000819050602082019050919050565b61397d816133a8565b82525050565b600061398f8383613974565b60208301905092915050565b6000602082019050919050565b60006139b382613948565b6139bd8185613953565b93506139c883613964565b8060005b838110156139f95781516139e08882613983565b97506139eb8361399b565b9250506001810190506139cc565b5085935050505092915050565b60006020820190508181036000830152613a2081846139a8565b905092915050565b7f4e487b7100000000000000000000000000000000000000000000000000000000600052602260045260246000fd5b60006002820490506001821680613a6f57607f821691505b602082108103613a8257613a81613a28565b5b50919050565b7f4552433732313a20617070726f76616c20746f2063757272656e74206f776e6560008201527f7200000000000000000000000000000000000000000000000000000000000000602082015250565b6000613ae4602183613301565b9150613aef82613a88565b604082019050919050565b60006020820190508181036000830152613b1381613ad7565b9050919050565b7f4552433732313a20617070726f76652063616c6c6572206973206e6f7420746f60008201527f6b656e206f776e6572206f7220617070726f76656420666f7220616c6c000000602082015250565b6000613b76603d83613301565b9150613b8182613b1a565b604082019050919050565b60006020820190508181036000830152613ba581613b69565b9050919050565b7f4f6e6c792074686520627572656175637261742063616e20706572666f726d2060008201527f7468697320616374696f6e000000000000000000000000000000000000000000602082015250565b6000613c08602b83613301565b9150613c1382613bac565b604082019050919050565b60006020820190508181036000830152613c3781613bfb565b9050919050565b7f4e6f2070726f766973696f6e206368616e676520686173206265656e2072657160008201527f75657374656420666f722074686973206170706c6963616e7400000000000000602082015250565b6000613c9a603983613301565b9150613ca582613c3e565b604082019050919050565b60006020820190508181036000830152613cc981613c8d565b9050919050565b60008190508160005260206000209050919050565b60008154613cf281613a57565b613cfc8186613301565b94506001821660008114613d175760018114613d2d57613d60565b60ff198316865281151560200286019350613d60565b613d3685613cd0565b60005b83811015613d5857815481890152600182019150602081019050613d39565b808801955050505b50505092915050565b60006020820190508181036000830152613d838184613ce5565b905092915050565b7f4f6e6c79206d65726368616e74732063616e20706572666f726d20746869732060008201527f616374696f6e0000000000000000000000000000000000000000000000000000602082015250565b6000613de7602683613301565b9150613df282613d8b565b604082019050919050565b60006020820190508181036000830152613e1681613dda565b9050919050565b7f596f7520646f206e6f74206861766520656e6f756768207469636b657473207460008201527f6f20706572666f726d2074686973207472616e73666572000000000000000000602082015250565b6000613e79603783613301565b9150613e8482613e1d565b604082019050919050565b60006020820190508181036000830152613ea881613e6c565b9050919050565b7f4e487b7100000000000000000000000000000000000000000000000000000000600052603260045260246000fd5b7f4e487b7100000000000000000000000000000000000000000000000000000000600052601160045260246000fd5b6000613f18826133a8565b91507fffffffffffffffffffffffffffffffffffffffffffffffffffffffffffffffff8203613f4a57613f49613ede565b5b600182019050919050565b6000819050919050565b6000819050919050565b6000613f84613f7f613f7a84613f55565b613f5f565b6133a8565b9050919050565b613f9481613f69565b82525050565b6000602082019050613faf6000830184613f8b565b92915050565b7f4552433732313a2063616c6c6572206973206e6f7420746f6b656e206f776e6560008201527f72206f7220617070726f76656400000000000000000000000000000000000000602082015250565b6000614011602d83613301565b915061401c82613fb5565b604082019050919050565b6000602082019050818103600083015261404081614004565b9050919050565b7f4d61676963206e756d626572206d757374206265206e6f6e2d6e65676174697660008201527f6500000000000000000000000000000000000000000000000000000000000000602082015250565b60006140a3602183613301565b91506140ae82614047565b604082019050919050565b600060208201905081810360008301526140d281614096565b9050919050565b7f596f75206d75737420626520616e206170706c6963616e7420746f207065726660008201527f6f726d207468697320616374696f6e0000000000000000000000000000000000602082015250565b6000614135602f83613301565b9150614140826140d9565b604082019050919050565b6000602082019050818103600083015261416481614128565b9050919050565b600081905092915050565b6000614182838561416b565b935061418f838584613806565b82840190509392505050565b60006141a8828486614176565b91508190509392505050565b60006141bf826133a8565b91506141ca836133a8565b92508282039050818111156141e2576141e1613ede565b5b92915050565b7f4e487b7100000000000000000000000000000000000000000000000000000000600052603160045260246000fd5b7f546865726520697320616e206f70656e207265717565737420616c7265616479600082015250565b600061424d602083613301565b915061425882614217565b602082019050919050565b6000602082019050818103600083015261427c81614240565b9050919050565b600082905092915050565b60006020601f8301049050919050565b600082821b905092915050565b6000600883026142db7fffffffffffffffffffffffffffffffffffffffffffffffffffffffffffffffff8261429e565b6142e5868361429e565b95508019841693508086168417925050509392505050565b600061431861431361430e846133a8565b613f5f565b6133a8565b9050919050565b6000819050919050565b614332836142fd565b61434661433e8261431f565b8484546142ab565b825550505050565b600090565b61435b61434e565b614366818484614329565b505050565b5b8181101561438a5761437f600082614353565b60018101905061436c565b5050565b601f8211156143cf576143a081613cd0565b6143a98461428e565b810160208510156143b8578190505b6143cc6143c48561428e565b83018261436b565b50505b505050565b600082821c905092915050565b60006143f2600019846008026143d4565b1980831691505092915050565b600061440b83836143e1565b9150826002028217905092915050565b6144258383614283565b67ffffffffffffffff81111561443e5761443d61375a565b5b6144488254613a57565b61445382828561438e565b6000601f8311600181146144825760008415614470578287013590505b61447a85826143ff565b8655506144e2565b601f19841661449086613cd0565b60005b828110156144b857848901358255600182019150602085019450602081019050614493565b868310156144d557848901356144d1601f8916826143e1565b8355505b6001600288020188555050505b50505050505050565b60006144f78385613301565b9350614504838584613806565b61450d8361333c565b840190509392505050565b600060208201905081810360008301526145338184866144eb565b90509392505050565b7f596f752061726520616c72656164792072656769737465726564000000000000600082015250565b6000614572601a83613301565b915061457d8261453c565b602082019050919050565b600060208201905081810360008301526145a181614565565b9050919050565b6145b1826132f6565b67ffffffffffffffff8111156145ca576145c961375a565b5b6145d48254613a57565b6145df82828561438e565b600060209050601f8311600181146146125760008415614600578287015190505b61460a85826143ff565b865550614672565b601f19841661462086613cd0565b60005b8281101561464857848901518255600182019150602085019450602081019050614623565b868310156146655784890151614661601f8916826143e1565b8355505b6001600288020188555050505b505050505050565b7f4552433732313a20696e76616c696420746f6b656e2049440000000000000000600082015250565b60006146b0601883613301565b91506146bb8261467a565b602082019050919050565b600060208201905081810360008301526146df816146a3565b9050919050565b60006146f1826133a8565b91506146fc836133a8565b925082820190508082111561471457614713613ede565b5b92915050565b60008154905061472981613a57565b9050919050565b60008190508160005260206000209050919050565b81810361475357505061482b565b61475c8261471a565b67ffffffffffffffff8111156147755761477461375a565b5b61477f8254613a57565b61478a82828561438e565b6000601f8311600181146147b957600084156147a7578287015490505b6147b185826143ff565b865550614824565b601f1984166147c787614730565b96506147d286613cd0565b60005b828110156147fa578489015482556001820191506001850194506020810190506147d5565b868310156148175784890154614813601f8916826143e1565b8355505b6001600288020188555050505b5050505050505b565b6000815461483a81613a57565b614844818661416b565b9450600182166000811461485f5760018114614874576148a7565b60ff19831686528115158202860193506148a7565b61487d85613cd0565b60005b8381101561489f57815481890152600182019150602081019050614880565b838801955050505b50505092915050565b60006148bc828461482d565b915081905092915050565b7f4552433732313a2061646472657373207a65726f206973206e6f74206120766160008201527f6c6964206f776e65720000000000000000000000000000000000000000000000602082015250565b6000614923602983613301565b915061492e826148c7565b604082019050919050565b6000602082019050818103600083015261495281614916565b9050919050565b6000614964826132f6565b61496e818561416b565b935061497e818560208601613312565b80840191505092915050565b60006149968285614959565b91506149a28284614959565b91508190509392505050565b7f70697a7a61000000000000000000000000000000000000000000000000000000600082015250565b60006149e460058361416b565b91506149ef826149ae565b600582019050919050565b6000614a05826149d7565b9150819050919050565b7f4552433732313a207472616e736665722066726f6d20696e636f72726563742060008201527f6f776e6572000000000000000000000000000000000000000000000000000000602082015250565b6000614a6b602583613301565b9150614a7682614a0f565b604082019050919050565b60006020820190508181036000830152614a9a81614a5e565b9050919050565b7f4552433732313a207472616e7366657220746f20746865207a65726f2061646460008201527f7265737300000000000000000000000000000000000000000000000000000000602082015250565b6000614afd602483613301565b9150614b0882614aa1565b604082019050919050565b60006020820190508181036000830152614b2c81614af0565b9050919050565b7f4552433732313a20617070726f766520746f2063616c6c657200000000000000600082015250565b6000614b69601983613301565b9150614b7482614b33565b602082019050919050565b60006020820190508181036000830152614b9881614b5c565b9050919050565b7f4552433732313a207472616e7366657220746f206e6f6e20455243373231526560008201527f63656976657220696d706c656d656e7465720000000000000000000000000000602082015250565b6000614bfb603283613301565b9150614c0682614b9f565b604082019050919050565b60006020820190508181036000830152614c2a81614bee565b9050919050565b7f4e487b7100000000000000000000000000000000000000000000000000000000600052601260045260246000fd5b600081519050919050565b600082825260208201905092915050565b6000614c8782614c60565b614c918185614c6b565b9350614ca1818560208601613312565b614caa8161333c565b840191505092915050565b6000608082019050614cca600083018761343d565b614cd7602083018661343d565b614ce46040830185613500565b8181036060830152614cf68184614c7c565b905095945050505050565b600081519050614d1081613267565b92915050565b600060208284031215614d2c57614d2b613231565b5b6000614d3a84828501614d01565b91505092915050565b7f4552433732313a206d696e7420746f20746865207a65726f2061646472657373600082015250565b6000614d79602083613301565b9150614d8482614d43565b602082019050919050565b60006020820190508181036000830152614da881614d6c565b9050919050565b7f4552433732313a20746f6b656e20616c7265616479206d696e74656400000000600082015250565b6000614de5601c83613301565b9150614df082614daf565b602082019050919050565b60006020820190508181036000830152614e1481614dd8565b905091905056fea2646970667358221220e2b954c889869804b83381978011306c7d6fbc1ec7ed45e8a79a396cf645ceaa64736f6c63430008110033",
  "immutableReferences": {},
  "source": "//SPDX-License-Identifier: UNLICENSED\r\npragma solidity ^0.8.17;\r\n\r\nimport \"@openzeppelin/contracts/token/ERC721/ERC721.sol\";\r\nimport \"@openzeppelin/contracts/utils/Counters.sol\";\r\n\r\ncontract SNAP is ERC721{\r\n    address public bureaucrat;\r\n    string[] public meal;\r\n    mapping(string => bool) _mealExists;\r\n    uint tokenCounter = 0;\r\n\r\n    \r\n    struct Applicant\r\n    {\r\n        uint256 balance;\r\n        uint256 magicNumber;\r\n        bool provisionChangeRequested;\r\n        uint[] tokenId;\r\n        string[] mealsOwned;\r\n        mapping(string => uint[]) tokens;\r\n        string openRequestMeal;\r\n        bool registered;\r\n    }\r\n    struct merchant{\r\n        uint[] tokenId;\r\n        mapping(string => uint[]) tokens;\r\n        bool registered;\r\n    }\r\n    \r\n    mapping(address => Applicant) public participants;\r\n    mapping(address => bool) public users;\r\n    mapping(address => merchant) public merchants;\r\n    \r\n    event TicketTransferred(address indexed from, address indexed to, uint256 amount);\r\n    event ProvisionChangeRequested(address indexed applicant, string mealRequested);\r\n    event ProvisionChangeApproved(address indexed applicant, string mealTicket);\r\n    event ProvisionChangeDenied(address indexed applicant, uint256 newBalance);\r\n    event MagicNumberSet(address indexed merchant, uint256 magicNumber);\r\n    event ApplicantRegister(address indexed user);\r\n    event MerchantRegister(address indexed merchants);\r\n    event BalanceOfUser(address indexed participant, uint balance);\r\n    \r\n    constructor() ERC721(\"Meal\", \"MEAL\") public\r\n    {\r\n        bureaucrat = msg.sender;\r\n        users[msg.sender] = true;\r\n    }\r\n    \r\n    modifier onlyBureaucrat()\r\n    {\r\n        require(msg.sender == bureaucrat, \"Only the bureaucrat can perform this action\");\r\n        _;\r\n    }\r\n    \r\n    modifier onlyApplicant()\r\n    {\r\n        require(participants[msg.sender].registered, \"You must be an applicant to perform this action\");\r\n        _;\r\n    }\r\n    \r\n    modifier onlyMerchant()\r\n    {\r\n        require(merchants[msg.sender].registered, \"Only merchants can perform this action\");\r\n        _;\r\n    }\r\n    \r\n    function registerApplicant() public\r\n    {\r\n        require(!users[msg.sender], \"You are already registered\");\r\n        \r\n        users[msg.sender] = true;\r\n        participants[msg.sender].balance = 0;\r\n        participants[msg.sender].magicNumber = 0;\r\n        participants[msg.sender].provisionChangeRequested = false;\r\n        participants[msg.sender].registered = true;\r\n        emit ApplicantRegister(msg.sender);\r\n    }\r\n\r\n    function registerMerchant() public\r\n    {\r\n        require(!merchants[msg.sender].registered, \"You are already registered\");\r\n        merchants[msg.sender].registered = true;\r\n        emit MerchantRegister(msg.sender);\r\n    }\r\n\r\n\r\n \r\n    function purchaseMeal(address to, string calldata mealToBuy) public onlyApplicant\r\n    {\r\n        require(participants[msg.sender].tokens[mealToBuy].length != 0, \"You do not have enough tickets to perform this transfer\");\r\n       \r\n        uint i = participants[msg.sender].tokens[mealToBuy].length;\r\n       \r\n        _transfer(msg.sender, to,participants[msg.sender].tokens[mealToBuy][i-1]);\r\n        merchants[to].tokenId.push(participants[msg.sender].tokens[mealToBuy][i-1]);\r\n        \r\n        participants[msg.sender].tokens[mealToBuy].pop();\r\n\r\n        emit TicketTransferred(msg.sender, to,0);\r\n    }\r\n    function sendToGovt(address to, uint noOfTokens) public onlyMerchant\r\n    {\r\n        require(merchants[msg.sender].tokenId.length >= noOfTokens, \"You do not have enough tickets to perform this transfer\");\r\n        \r\n        // uint len = merchants[msg.sender].tokenId.length;\r\n        \r\n        for (uint256 i; i < noOfTokens;i++) {\r\n            _transfer(msg.sender, to, merchants[msg.sender].tokenId[i]);\r\n           \r\n        }\r\n\r\n        // _transfer(msg.sender, to,participants[msg.sender].tokens[mealToBuy][i-1]);\r\n        // participants[msg.sender].tokens[mealToBuy].pop();\r\n\r\n        emit TicketTransferred(msg.sender, to,0);\r\n    }\r\n    \r\n    function requestProvisionChange(string calldata mealRequested) public onlyApplicant\r\n    {\r\n        require(!participants[msg.sender].provisionChangeRequested, \"There is an open request already\");\r\n        participants[msg.sender].provisionChangeRequested = true;\r\n        participants[msg.sender].openRequestMeal = mealRequested;\r\n        emit ProvisionChangeRequested(msg.sender, mealRequested);\r\n    }\r\n    \r\n    function approveProvisionChange(address applicant) public onlyBureaucrat\r\n    {\r\n        require(participants[applicant].provisionChangeRequested, \"No provision change has been requested for this applicant\");\r\n        participants[applicant].provisionChangeRequested = false;\r\n        mint(applicant);\r\n        \r\n        emit ProvisionChangeApproved(applicant, participants[applicant].openRequestMeal);\r\n    }\r\n    \r\n    function mint(address applicant) public {\r\n        //require(!_mealExists[_meal]);\r\n        tokenCounter = tokenCounter + 1;\r\n        meal.push(participants[applicant].openRequestMeal);\r\n        _safeMint(applicant, tokenCounter);\r\n        //_mealExists[participants[applicant].openRequestMeal] = true;\r\n        participants[applicant].tokens[participants[applicant].openRequestMeal].push(tokenCounter);\r\n        participants[applicant].mealsOwned.push(participants[applicant].openRequestMeal);\r\n        participants[applicant].openRequestMeal = '';\r\n    }\r\n\r\n    function denyProvisionChange(address applicant) public onlyBureaucrat\r\n    {\r\n        require(participants[applicant].provisionChangeRequested, \"No provision change has been requested for this applicant\");\r\n        participants[applicant].provisionChangeRequested = false;\r\n        participants[applicant].openRequestMeal = '';\r\n        emit ProvisionChangeDenied(applicant, participants[applicant].balance);\r\n    }\r\n    \r\n    function setMagicNumber(uint256 magicNumber) public onlyMerchant\r\n    {\r\n        require(magicNumber >= 0, \"Magic number must be non-negative\");\r\n        participants[msg.sender].magicNumber = magicNumber;\r\n        emit MagicNumberSet(msg.sender, magicNumber);\r\n    }\r\n\r\n    function getTokenId(address owner) public   view returns( uint  [] memory){\r\n        return participants[owner].tokens[\"pizza\"];\r\n    }\r\n    function getTokenIdMerchant(address owner) public   view returns( uint  [] memory){\r\n        return merchants[owner].tokenId;\r\n    }\r\n    function getTokenBalance() public {\r\n        emit BalanceOfUser(msg.sender, balanceOf(msg.sender));\r\n       // return balanceOf(msg.sender);\r\n    }\r\n}\r\n",
  "sourcePath": "D:\\spring 23\\blockchain\\SANPonBlockchain\\contracts\\snap_sc.sol",
  "compiler": {
    "name": "solc",
    "version": "0.8.17+commit.8df45f5f.Emscripten.clang"
  },
  "schemaVersion": "3.4.13",
  "updatedAt": "2023-05-01T00:15:08.089Z",
  "networkType": "ethereum",
  "devdoc": {
    "kind": "dev",
    "methods": {
      "approve(address,uint256)": {
        "details": "See {IERC721-approve}."
      },
      "balanceOf(address)": {
        "details": "See {IERC721-balanceOf}."
      },
      "getApproved(uint256)": {
        "details": "See {IERC721-getApproved}."
      },
      "isApprovedForAll(address,address)": {
        "details": "See {IERC721-isApprovedForAll}."
      },
      "name()": {
        "details": "See {IERC721Metadata-name}."
      },
      "ownerOf(uint256)": {
        "details": "See {IERC721-ownerOf}."
      },
      "safeTransferFrom(address,address,uint256)": {
        "details": "See {IERC721-safeTransferFrom}."
      },
      "safeTransferFrom(address,address,uint256,bytes)": {
        "details": "See {IERC721-safeTransferFrom}."
      },
      "setApprovalForAll(address,bool)": {
        "details": "See {IERC721-setApprovalForAll}."
      },
      "supportsInterface(bytes4)": {
        "details": "See {IERC165-supportsInterface}."
      },
      "symbol()": {
        "details": "See {IERC721Metadata-symbol}."
      },
      "tokenURI(uint256)": {
        "details": "See {IERC721Metadata-tokenURI}."
      },
      "transferFrom(address,address,uint256)": {
        "details": "See {IERC721-transferFrom}."
      }
    },
    "version": 1
  },
  "userdoc": {
    "kind": "user",
    "methods": {},
    "version": 1
  }
}