{
  "contractName": "SNAP",
  "abi": [
    {
      "inputs": [],
      "stateMutability": "nonpayable",
      "type": "constructor"
    },
    {
      "anonymous": false,
      "inputs": [
        {
          "indexed": true,
          "internalType": "address",
          "name": "user",
          "type": "address"
        }
      ],
      "name": "ApplicantRegister",
      "type": "event"
    },
    {
      "anonymous": false,
      "inputs": [
        {
          "indexed": true,
          "internalType": "address",
          "name": "owner",
          "type": "address"
        },
        {
          "indexed": true,
          "internalType": "address",
          "name": "approved",
          "type": "address"
        },
        {
          "indexed": true,
          "internalType": "uint256",
          "name": "tokenId",
          "type": "uint256"
        }
      ],
      "name": "Approval",
      "type": "event"
    },
    {
      "anonymous": false,
      "inputs": [
        {
          "indexed": true,
          "internalType": "address",
          "name": "owner",
          "type": "address"
        },
        {
          "indexed": true,
          "internalType": "address",
          "name": "operator",
          "type": "address"
        },
        {
          "indexed": false,
          "internalType": "bool",
          "name": "approved",
          "type": "bool"
        }
      ],
      "name": "ApprovalForAll",
      "type": "event"
    },
    {
      "anonymous": false,
      "inputs": [
        {
          "indexed": true,
          "internalType": "address",
          "name": "merchant",
          "type": "address"
        },
        {
          "indexed": false,
          "internalType": "uint256",
          "name": "magicNumber",
          "type": "uint256"
        }
      ],
      "name": "MagicNumberSet",
      "type": "event"
    },
    {
      "anonymous": false,
      "inputs": [
        {
          "indexed": true,
          "internalType": "address",
          "name": "merchants",
          "type": "address"
        }
      ],
      "name": "MerchantRegister",
      "type": "event"
    },
    {
      "anonymous": false,
      "inputs": [
        {
          "indexed": true,
          "internalType": "address",
          "name": "applicant",
          "type": "address"
        },
        {
          "indexed": false,
          "internalType": "string",
          "name": "mealTicket",
          "type": "string"
        }
      ],
      "name": "ProvisionChangeApproved",
      "type": "event"
    },
    {
      "anonymous": false,
      "inputs": [
        {
          "indexed": true,
          "internalType": "address",
          "name": "applicant",
          "type": "address"
        },
        {
          "indexed": false,
          "internalType": "uint256",
          "name": "newBalance",
          "type": "uint256"
        }
      ],
      "name": "ProvisionChangeDenied",
      "type": "event"
    },
    {
      "anonymous": false,
      "inputs": [
        {
          "indexed": true,
          "internalType": "address",
          "name": "applicant",
          "type": "address"
        },
        {
          "indexed": false,
          "internalType": "string",
          "name": "mealRequested",
          "type": "string"
        }
      ],
      "name": "ProvisionChangeRequested",
      "type": "event"
    },
    {
      "anonymous": false,
      "inputs": [
        {
          "indexed": true,
          "internalType": "address",
          "name": "from",
          "type": "address"
        },
        {
          "indexed": true,
          "internalType": "address",
          "name": "to",
          "type": "address"
        },
        {
          "indexed": false,
          "internalType": "uint256",
          "name": "amount",
          "type": "uint256"
        }
      ],
      "name": "TicketTransferred",
      "type": "event"
    },
    {
      "anonymous": false,
      "inputs": [
        {
          "indexed": true,
          "internalType": "address",
          "name": "from",
          "type": "address"
        },
        {
          "indexed": true,
          "internalType": "address",
          "name": "to",
          "type": "address"
        },
        {
          "indexed": true,
          "internalType": "uint256",
          "name": "tokenId",
          "type": "uint256"
        }
      ],
      "name": "Transfer",
      "type": "event"
    },
    {
      "inputs": [
        {
          "internalType": "address",
          "name": "to",
          "type": "address"
        },
        {
          "internalType": "uint256",
          "name": "tokenId",
          "type": "uint256"
        }
      ],
      "name": "approve",
      "outputs": [],
      "stateMutability": "nonpayable",
      "type": "function"
    },
    {
      "inputs": [
        {
          "internalType": "address",
          "name": "owner",
          "type": "address"
        }
      ],
      "name": "balanceOf",
      "outputs": [
        {
          "internalType": "uint256",
          "name": "",
          "type": "uint256"
        }
      ],
      "stateMutability": "view",
      "type": "function",
      "constant": true
    },
    {
      "inputs": [],
      "name": "bureaucrat",
      "outputs": [
        {
          "internalType": "address",
          "name": "",
          "type": "address"
        }
      ],
      "stateMutability": "view",
      "type": "function",
      "constant": true
    },
    {
      "inputs": [
        {
          "internalType": "uint256",
          "name": "tokenId",
          "type": "uint256"
        }
      ],
      "name": "getApproved",
      "outputs": [
        {
          "internalType": "address",
          "name": "",
          "type": "address"
        }
      ],
      "stateMutability": "view",
      "type": "function",
      "constant": true
    },
    {
      "inputs": [
        {
          "internalType": "address",
          "name": "owner",
          "type": "address"
        },
        {
          "internalType": "address",
          "name": "operator",
          "type": "address"
        }
      ],
      "name": "isApprovedForAll",
      "outputs": [
        {
          "internalType": "bool",
          "name": "",
          "type": "bool"
        }
      ],
      "stateMutability": "view",
      "type": "function",
      "constant": true
    },
    {
      "inputs": [
        {
          "internalType": "uint256",
          "name": "",
          "type": "uint256"
        }
      ],
      "name": "meal",
      "outputs": [
        {
          "internalType": "string",
          "name": "",
          "type": "string"
        }
      ],
      "stateMutability": "view",
      "type": "function",
      "constant": true
    },
    {
      "inputs": [
        {
          "internalType": "address",
          "name": "",
          "type": "address"
        }
      ],
      "name": "merchants",
      "outputs": [
        {
          "internalType": "bool",
          "name": "",
          "type": "bool"
        }
      ],
      "stateMutability": "view",
      "type": "function",
      "constant": true
    },
    {
      "inputs": [],
      "name": "name",
      "outputs": [
        {
          "internalType": "string",
          "name": "",
          "type": "string"
        }
      ],
      "stateMutability": "view",
      "type": "function",
      "constant": true
    },
    {
      "inputs": [
        {
          "internalType": "uint256",
          "name": "tokenId",
          "type": "uint256"
        }
      ],
      "name": "ownerOf",
      "outputs": [
        {
          "internalType": "address",
          "name": "",
          "type": "address"
        }
      ],
      "stateMutability": "view",
      "type": "function",
      "constant": true
    },
    {
      "inputs": [
        {
          "internalType": "address",
          "name": "",
          "type": "address"
        }
      ],
      "name": "participants",
      "outputs": [
        {
          "internalType": "uint256",
          "name": "balance",
          "type": "uint256"
        },
        {
          "internalType": "uint256",
          "name": "magicNumber",
          "type": "uint256"
        },
        {
          "internalType": "bool",
          "name": "provisionChangeRequested",
          "type": "bool"
        },
        {
          "internalType": "string",
          "name": "openRequestMeal",
          "type": "string"
        }
      ],
      "stateMutability": "view",
      "type": "function",
      "constant": true
    },
    {
      "inputs": [
        {
          "internalType": "address",
          "name": "from",
          "type": "address"
        },
        {
          "internalType": "address",
          "name": "to",
          "type": "address"
        },
        {
          "internalType": "uint256",
          "name": "tokenId",
          "type": "uint256"
        }
      ],
      "name": "safeTransferFrom",
      "outputs": [],
      "stateMutability": "nonpayable",
      "type": "function"
    },
    {
      "inputs": [
        {
          "internalType": "address",
          "name": "from",
          "type": "address"
        },
        {
          "internalType": "address",
          "name": "to",
          "type": "address"
        },
        {
          "internalType": "uint256",
          "name": "tokenId",
          "type": "uint256"
        },
        {
          "internalType": "bytes",
          "name": "data",
          "type": "bytes"
        }
      ],
      "name": "safeTransferFrom",
      "outputs": [],
      "stateMutability": "nonpayable",
      "type": "function"
    },
    {
      "inputs": [
        {
          "internalType": "address",
          "name": "operator",
          "type": "address"
        },
        {
          "internalType": "bool",
          "name": "approved",
          "type": "bool"
        }
      ],
      "name": "setApprovalForAll",
      "outputs": [],
      "stateMutability": "nonpayable",
      "type": "function"
    },
    {
      "inputs": [
        {
          "internalType": "bytes4",
          "name": "interfaceId",
          "type": "bytes4"
        }
      ],
      "name": "supportsInterface",
      "outputs": [
        {
          "internalType": "bool",
          "name": "",
          "type": "bool"
        }
      ],
      "stateMutability": "view",
      "type": "function",
      "constant": true
    },
    {
      "inputs": [],
      "name": "symbol",
      "outputs": [
        {
          "internalType": "string",
          "name": "",
          "type": "string"
        }
      ],
      "stateMutability": "view",
      "type": "function",
      "constant": true
    },
    {
      "inputs": [
        {
          "internalType": "uint256",
          "name": "tokenId",
          "type": "uint256"
        }
      ],
      "name": "tokenURI",
      "outputs": [
        {
          "internalType": "string",
          "name": "",
          "type": "string"
        }
      ],
      "stateMutability": "view",
      "type": "function",
      "constant": true
    },
    {
      "inputs": [
        {
          "internalType": "address",
          "name": "from",
          "type": "address"
        },
        {
          "internalType": "address",
          "name": "to",
          "type": "address"
        },
        {
          "internalType": "uint256",
          "name": "tokenId",
          "type": "uint256"
        }
      ],
      "name": "transferFrom",
      "outputs": [],
      "stateMutability": "nonpayable",
      "type": "function"
    },
    {
      "inputs": [
        {
          "internalType": "address",
          "name": "",
          "type": "address"
        }
      ],
      "name": "users",
      "outputs": [
        {
          "internalType": "bool",
          "name": "",
          "type": "bool"
        }
      ],
      "stateMutability": "view",
      "type": "function",
      "constant": true
    },
    {
      "inputs": [],
      "name": "registerApplicant",
      "outputs": [],
      "stateMutability": "nonpayable",
      "type": "function"
    },
    {
      "inputs": [],
      "name": "registerMerchant",
      "outputs": [],
      "stateMutability": "nonpayable",
      "type": "function"
    },
    {
      "inputs": [
        {
          "internalType": "string",
          "name": "str1",
          "type": "string"
        },
        {
          "internalType": "string",
          "name": "str2",
          "type": "string"
        }
      ],
      "name": "compare",
      "outputs": [
        {
          "internalType": "bool",
          "name": "",
          "type": "bool"
        }
      ],
      "stateMutability": "pure",
      "type": "function",
      "constant": true
    },
    {
      "inputs": [
        {
          "internalType": "address",
          "name": "to",
          "type": "address"
        },
        {
          "internalType": "string",
          "name": "mealToBuy",
          "type": "string"
        }
      ],
      "name": "transferTickets",
      "outputs": [],
      "stateMutability": "nonpayable",
      "type": "function"
    },
    {
      "inputs": [
        {
          "internalType": "string",
          "name": "mealRequested",
          "type": "string"
        }
      ],
      "name": "requestProvisionChange",
      "outputs": [],
      "stateMutability": "nonpayable",
      "type": "function"
    },
    {
      "inputs": [
        {
          "internalType": "address",
          "name": "applicant",
          "type": "address"
        }
      ],
      "name": "approveProvisionChange",
      "outputs": [],
      "stateMutability": "nonpayable",
      "type": "function"
    },
    {
      "inputs": [
        {
          "internalType": "address",
          "name": "applicant",
          "type": "address"
        }
      ],
      "name": "mint",
      "outputs": [],
      "stateMutability": "nonpayable",
      "type": "function"
    },
    {
      "inputs": [
        {
          "internalType": "address",
          "name": "applicant",
          "type": "address"
        }
      ],
      "name": "denyProvisionChange",
      "outputs": [],
      "stateMutability": "nonpayable",
      "type": "function"
    },
    {
      "inputs": [
        {
          "internalType": "uint256",
          "name": "magicNumber",
          "type": "uint256"
        }
      ],
      "name": "setMagicNumber",
      "outputs": [],
      "stateMutability": "nonpayable",
      "type": "function"
    },
    {
      "inputs": [
        {
          "internalType": "address",
          "name": "owner",
          "type": "address"
        }
      ],
      "name": "getTokenId",
      "outputs": [
        {
          "internalType": "uint256[]",
          "name": "",
          "type": "uint256[]"
        }
      ],
      "stateMutability": "view",
      "type": "function",
      "constant": true
    },
    {
      "inputs": [
        {
          "internalType": "address",
          "name": "owner",
          "type": "address"
        }
      ],
      "name": "getMealsOwned",
      "outputs": [
        {
          "internalType": "string[]",
          "name": "",
          "type": "string[]"
        }
      ],
      "stateMutability": "view",
      "type": "function",
      "constant": true
    }
  ],
  "bytecode": "0x608060405260006009553480156200001657600080fd5b506040518060400160405280600481526020017f4d65616c000000000000000000000000000000000000000000000000000000008152506040518060400160405280600481526020017f4d45414c000000000000000000000000000000000000000000000000000000008152508160009081620000949190620003c2565b508060019081620000a69190620003c2565b50505033600660006101000a81548173ffffffffffffffffffffffffffffffffffffffff021916908373ffffffffffffffffffffffffffffffffffffffff1602179055506001600b60003373ffffffffffffffffffffffffffffffffffffffff1673ffffffffffffffffffffffffffffffffffffffff16815260200190815260200160002060006101000a81548160ff021916908315150217905550620004a9565b600081519050919050565b7f4e487b7100000000000000000000000000000000000000000000000000000000600052604160045260246000fd5b7f4e487b7100000000000000000000000000000000000000000000000000000000600052602260045260246000fd5b60006002820490506001821680620001ca57607f821691505b602082108103620001e057620001df62000182565b5b50919050565b60008190508160005260206000209050919050565b60006020601f8301049050919050565b600082821b905092915050565b6000600883026200024a7fffffffffffffffffffffffffffffffffffffffffffffffffffffffffffffffff826200020b565b6200025686836200020b565b95508019841693508086168417925050509392505050565b6000819050919050565b6000819050919050565b6000620002a36200029d62000297846200026e565b62000278565b6200026e565b9050919050565b6000819050919050565b620002bf8362000282565b620002d7620002ce82620002aa565b84845462000218565b825550505050565b600090565b620002ee620002df565b620002fb818484620002b4565b505050565b5b81811015620003235762000317600082620002e4565b60018101905062000301565b5050565b601f82111562000372576200033c81620001e6565b6200034784620001fb565b8101602085101562000357578190505b6200036f6200036685620001fb565b83018262000300565b50505b505050565b600082821c905092915050565b6000620003976000198460080262000377565b1980831691505092915050565b6000620003b2838362000384565b9150826002028217905092915050565b620003cd8262000148565b67ffffffffffffffff811115620003e957620003e862000153565b5b620003f58254620001b1565b6200040282828562000327565b600060209050601f8311600181146200043a576000841562000425578287015190505b620004318582620003a4565b865550620004a1565b601f1984166200044a86620001e6565b60005b8281101562000474578489015182556001820191506020850194506020810190506200044d565b8683101562000494578489015162000490601f89168262000384565b8355505b6001600288020188555050505b505050505050565b614c0580620004b96000396000f3fe608060405234801561001057600080fd5b50600436106101cf5760003560e01c806355dabe4211610104578063a22cb465116100a2578063c87b56dd11610071578063c87b56dd14610529578063e985e9c514610559578063ee14e93914610589578063f1537686146105b9576101cf565b8063a22cb46514610491578063a87430ba146104ad578063acd310d5146104dd578063b88d4fde1461050d576101cf565b80636a627842116100de5780636a6278421461040b57806370a08231146104275780637f8f23591461045757806395d89b4114610473576101cf565b806355dabe42146103a15780636352211e146103ab578063659135dd146103db576101cf565b80632ba2ed98116101715780633a96fdd71161014b5780633a96fdd71461032f57806342842e0e1461035f578063452061961461037b578063540e2bff14610385576101cf565b80632ba2ed98146102d957806339c7eac8146102f55780633a17d69014610313576101cf565b8063095ea7b3116101ad578063095ea7b31461025257806309e69ede1461026e5780630ba6bacd146102a157806323b872dd146102bd576101cf565b806301ffc9a7146101d457806306fdde0314610204578063081812fc14610222575b600080fd5b6101ee60048036038101906101e99190612ea0565b6105e9565b6040516101fb9190612ee8565b60405180910390f35b61020c6106cb565b6040516102199190612f93565b60405180910390f35b61023c60048036038101906102379190612feb565b61075d565b6040516102499190613059565b60405180910390f35b61026c600480360381019061026791906130a0565b6107a3565b005b610288600480360381019061028391906130e0565b6108ba565b604051610298949392919061311c565b60405180910390f35b6102bb60048036038101906102b691906130e0565b61097f565b005b6102d760048036038101906102d29190613168565b610b94565b005b6102f360048036038101906102ee9190612feb565b610bf4565b005b6102fd610d5c565b60405161030a9190613059565b60405180910390f35b61032d60048036038101906103289190613220565b610d82565b005b6103496004803603810190610344919061339d565b610fa0565b6040516103569190612ee8565b60405180910390f35b61037960048036038101906103749190613168565b61100c565b005b61038361102c565b005b61039f600480360381019061039a91906130e0565b611156565b005b6103a9611363565b005b6103c560048036038101906103c09190612feb565b611578565b6040516103d29190613059565b60405180910390f35b6103f560048036038101906103f09190612feb565b6115fe565b6040516104029190612f93565b60405180910390f35b610425600480360381019061042091906130e0565b6116aa565b005b610441600480360381019061043c91906130e0565b611921565b60405161044e9190613415565b60405180910390f35b610471600480360381019061046c9190613430565b6119d8565b005b61047b611c6b565b6040516104889190612f93565b60405180910390f35b6104ab60048036038101906104a691906134bc565b611cfd565b005b6104c760048036038101906104c291906130e0565b611d13565b6040516104d49190612ee8565b60405180910390f35b6104f760048036038101906104f291906130e0565b611d33565b6040516105049190613608565b60405180910390f35b610527600480360381019061052291906136cb565b611e4e565b005b610543600480360381019061053e9190612feb565b611eb0565b6040516105509190612f93565b60405180910390f35b610573600480360381019061056e919061374e565b611f18565b6040516105809190612ee8565b60405180910390f35b6105a3600480360381019061059e91906130e0565b611fac565b6040516105b09190612ee8565b60405180910390f35b6105d360048036038101906105ce91906130e0565b611fcc565b6040516105e0919061384c565b60405180910390f35b60007f80ac58cd000000000000000000000000000000000000000000000000000000007bffffffffffffffffffffffffffffffffffffffffffffffffffffffff1916827bffffffffffffffffffffffffffffffffffffffffffffffffffffffff191614806106b457507f5b5e139f000000000000000000000000000000000000000000000000000000007bffffffffffffffffffffffffffffffffffffffffffffffffffffffff1916827bffffffffffffffffffffffffffffffffffffffffffffffffffffffff1916145b806106c457506106c382612066565b5b9050919050565b6060600080546106da9061389d565b80601f01602080910402602001604051908101604052809291908181526020018280546107069061389d565b80156107535780601f1061072857610100808354040283529160200191610753565b820191906000526020600020905b81548152906001019060200180831161073657829003601f168201915b5050505050905090565b6000610768826120d0565b6004600083815260200190815260200160002060009054906101000a900473ffffffffffffffffffffffffffffffffffffffff169050919050565b60006107ae82611578565b90508073ffffffffffffffffffffffffffffffffffffffff168373ffffffffffffffffffffffffffffffffffffffff160361081e576040517f08c379a000000000000000000000000000000000000000000000000000000000815260040161081590613940565b60405180910390fd5b8073ffffffffffffffffffffffffffffffffffffffff1661083d61211b565b73ffffffffffffffffffffffffffffffffffffffff16148061086c575061086b8161086661211b565b611f18565b5b6108ab576040517f08c379a00000000000000000000000000000000000000000000000000000000081526004016108a2906139d2565b60405180910390fd5b6108b58383612123565b505050565b600a6020528060005260406000206000915090508060000154908060010154908060020160009054906101000a900460ff16908060060180546108fc9061389d565b80601f01602080910402602001604051908101604052809291908181526020018280546109289061389d565b80156109755780601f1061094a57610100808354040283529160200191610975565b820191906000526020600020905b81548152906001019060200180831161095857829003601f168201915b5050505050905084565b600660009054906101000a900473ffffffffffffffffffffffffffffffffffffffff1673ffffffffffffffffffffffffffffffffffffffff163373ffffffffffffffffffffffffffffffffffffffff1614610a0f576040517f08c379a0000000000000000000000000000000000000000000000000000000008152600401610a0690613a64565b60405180910390fd5b600a60008273ffffffffffffffffffffffffffffffffffffffff1673ffffffffffffffffffffffffffffffffffffffff16815260200190815260200160002060020160009054906101000a900460ff16610a9e576040517f08c379a0000000000000000000000000000000000000000000000000000000008152600401610a9590613af6565b60405180910390fd5b6000600a60008373ffffffffffffffffffffffffffffffffffffffff1673ffffffffffffffffffffffffffffffffffffffff16815260200190815260200160002060020160006101000a81548160ff021916908315150217905550610b02816116aa565b8073ffffffffffffffffffffffffffffffffffffffff167ff57cf6d280695c556b409823337d746075d8a4c7f64fff144463113c27fffa56600a60008473ffffffffffffffffffffffffffffffffffffffff1673ffffffffffffffffffffffffffffffffffffffff168152602001908152602001600020600601604051610b899190613baf565b60405180910390a250565b610ba5610b9f61211b565b826121dc565b610be4576040517f08c379a0000000000000000000000000000000000000000000000000000000008152600401610bdb90613c43565b60405180910390fd5b610bef838383612271565b505050565b600c60003373ffffffffffffffffffffffffffffffffffffffff1673ffffffffffffffffffffffffffffffffffffffff16815260200190815260200160002060009054906101000a900460ff16610c80576040517f08c379a0000000000000000000000000000000000000000000000000000000008152600401610c7790613cd5565b60405180910390fd5b6000811015610cc4576040517f08c379a0000000000000000000000000000000000000000000000000000000008152600401610cbb90613d67565b60405180910390fd5b80600a60003373ffffffffffffffffffffffffffffffffffffffff1673ffffffffffffffffffffffffffffffffffffffff168152602001908152602001600020600101819055503373ffffffffffffffffffffffffffffffffffffffff167f1ac19207c0953072a214e2dcd4fe07d08463d0ac91b3e0a26dc1c4b2791eebc582604051610d519190613415565b60405180910390a250565b600660009054906101000a900473ffffffffffffffffffffffffffffffffffffffff1681565b600c60003373ffffffffffffffffffffffffffffffffffffffff1673ffffffffffffffffffffffffffffffffffffffff16815260200190815260200160002060009054906101000a900460ff1615610e0f576040517f08c379a0000000000000000000000000000000000000000000000000000000008152600401610e0690613df9565b60405180910390fd5b600a60003373ffffffffffffffffffffffffffffffffffffffff1673ffffffffffffffffffffffffffffffffffffffff16815260200190815260200160002060020160009054906101000a900460ff1615610e9f576040517f08c379a0000000000000000000000000000000000000000000000000000000008152600401610e9690613e65565b60405180910390fd5b6001600a60003373ffffffffffffffffffffffffffffffffffffffff1673ffffffffffffffffffffffffffffffffffffffff16815260200190815260200160002060020160006101000a81548160ff0219169083151502179055508181600a60003373ffffffffffffffffffffffffffffffffffffffff1673ffffffffffffffffffffffffffffffffffffffff1681526020019081526020016000206006019182610f4b929190614027565b503373ffffffffffffffffffffffffffffffffffffffff167f3749bf201820eb6bd36fbbc325fa2b4670a196182e764c11e6600e23bbaf9dd58383604051610f94929190614124565b60405180910390a25050565b60008151835114610fb45760009050611006565b81604051602001610fc59190614184565b6040516020818303038152906040528051906020012083604051602001610fec9190614184565b604051602081830303815290604052805190602001201490505b92915050565b61102783838360405180602001604052806000815250611e4e565b505050565b600c60003373ffffffffffffffffffffffffffffffffffffffff1673ffffffffffffffffffffffffffffffffffffffff16815260200190815260200160002060009054906101000a900460ff16156110b9576040517f08c379a00000000000000000000000000000000000000000000000000000000081526004016110b0906141e7565b60405180910390fd5b6001600c60003373ffffffffffffffffffffffffffffffffffffffff1673ffffffffffffffffffffffffffffffffffffffff16815260200190815260200160002060006101000a81548160ff0219169083151502179055503373ffffffffffffffffffffffffffffffffffffffff167f92b082de749f0ebd44fd01ce4acab93bf014fab9d1a385c57a6c5ad8d9d29af560405160405180910390a2565b600660009054906101000a900473ffffffffffffffffffffffffffffffffffffffff1673ffffffffffffffffffffffffffffffffffffffff163373ffffffffffffffffffffffffffffffffffffffff16146111e6576040517f08c379a00000000000000000000000000000000000000000000000000000000081526004016111dd90613a64565b60405180910390fd5b600a60008273ffffffffffffffffffffffffffffffffffffffff1673ffffffffffffffffffffffffffffffffffffffff16815260200190815260200160002060020160009054906101000a900460ff16611275576040517f08c379a000000000000000000000000000000000000000000000000000000000815260040161126c90613af6565b60405180910390fd5b6000600a60008373ffffffffffffffffffffffffffffffffffffffff1673ffffffffffffffffffffffffffffffffffffffff16815260200190815260200160002060020160006101000a81548160ff0219169083151502179055508073ffffffffffffffffffffffffffffffffffffffff167fe4f86d8b20ded56c3d91ef1e193b47f16579b01d7713d1948bc4fc1a96bb85ee600a60008473ffffffffffffffffffffffffffffffffffffffff1673ffffffffffffffffffffffffffffffffffffffff168152602001908152602001600020600001546040516113589190613415565b60405180910390a250565b600b60003373ffffffffffffffffffffffffffffffffffffffff1673ffffffffffffffffffffffffffffffffffffffff16815260200190815260200160002060009054906101000a900460ff16156113f0576040517f08c379a00000000000000000000000000000000000000000000000000000000081526004016113e7906141e7565b60405180910390fd5b6001600b60003373ffffffffffffffffffffffffffffffffffffffff1673ffffffffffffffffffffffffffffffffffffffff16815260200190815260200160002060006101000a81548160ff0219169083151502179055506000600a60003373ffffffffffffffffffffffffffffffffffffffff1673ffffffffffffffffffffffffffffffffffffffff168152602001908152602001600020600001819055506000600a60003373ffffffffffffffffffffffffffffffffffffffff1673ffffffffffffffffffffffffffffffffffffffff168152602001908152602001600020600101819055506000600a60003373ffffffffffffffffffffffffffffffffffffffff1673ffffffffffffffffffffffffffffffffffffffff16815260200190815260200160002060020160006101000a81548160ff0219169083151502179055503373ffffffffffffffffffffffffffffffffffffffff167fda626996b6a73d01583af35f00e8f523759cebc5f4865edf77713226e9b171d660405160405180910390a2565b6000806115848361256a565b9050600073ffffffffffffffffffffffffffffffffffffffff168173ffffffffffffffffffffffffffffffffffffffff16036115f5576040517f08c379a00000000000000000000000000000000000000000000000000000000081526004016115ec90614253565b60405180910390fd5b80915050919050565b6007818154811061160e57600080fd5b9060005260206000200160009150905080546116299061389d565b80601f01602080910402602001604051908101604052809291908181526020018280546116559061389d565b80156116a25780601f10611677576101008083540402835291602001916116a2565b820191906000526020600020905b81548152906001019060200180831161168557829003601f168201915b505050505081565b60016009546116b991906142a2565b6009819055506007600a60008373ffffffffffffffffffffffffffffffffffffffff1673ffffffffffffffffffffffffffffffffffffffff1681526020019081526020016000206006019080600181540180825580915050600190039060005260206000200160009091909190915090816117349190614301565b50611741816009546125a7565b600a60008273ffffffffffffffffffffffffffffffffffffffff1673ffffffffffffffffffffffffffffffffffffffff168152602001908152602001600020600501600a60008373ffffffffffffffffffffffffffffffffffffffff1673ffffffffffffffffffffffffffffffffffffffff1681526020019081526020016000206006016040516117d2919061446c565b90815260200160405180910390206009549080600181540180825580915050600190039060005260206000200160009091909190915055600a60008273ffffffffffffffffffffffffffffffffffffffff1673ffffffffffffffffffffffffffffffffffffffff168152602001908152602001600020600401600a60008373ffffffffffffffffffffffffffffffffffffffff1673ffffffffffffffffffffffffffffffffffffffff1681526020019081526020016000206006019080600181540180825580915050600190039060005260206000200160009091909190915090816118be9190614301565b5060405180602001604052806000815250600a60008373ffffffffffffffffffffffffffffffffffffffff1673ffffffffffffffffffffffffffffffffffffffff168152602001908152602001600020600601908161191d9190614483565b5050565b60008073ffffffffffffffffffffffffffffffffffffffff168273ffffffffffffffffffffffffffffffffffffffff1603611991576040517f08c379a0000000000000000000000000000000000000000000000000000000008152600401611988906145c7565b60405180910390fd5b600360008373ffffffffffffffffffffffffffffffffffffffff1673ffffffffffffffffffffffffffffffffffffffff168152602001908152602001600020549050919050565b6000600a60003373ffffffffffffffffffffffffffffffffffffffff1673ffffffffffffffffffffffffffffffffffffffff1681526020019081526020016000206005018383604051611a2c92919061460c565b90815260200160405180910390208054905003611a7e576040517f08c379a0000000000000000000000000000000000000000000000000000000008152600401611a7590614697565b60405180910390fd5b6000600a60003373ffffffffffffffffffffffffffffffffffffffff1673ffffffffffffffffffffffffffffffffffffffff1681526020019081526020016000206005018383604051611ad292919061460c565b9081526020016040518091039020805490509050611b793385600a60003373ffffffffffffffffffffffffffffffffffffffff1673ffffffffffffffffffffffffffffffffffffffff1681526020019081526020016000206005018686604051611b3d92919061460c565b9081526020016040518091039020600185611b5891906146b7565b81548110611b6957611b686146eb565b5b9060005260206000200154612271565b600a60003373ffffffffffffffffffffffffffffffffffffffff1673ffffffffffffffffffffffffffffffffffffffff1681526020019081526020016000206005018383604051611bcb92919061460c565b9081526020016040518091039020805480611be957611be861471a565b5b600190038181906000526020600020016000905590558373ffffffffffffffffffffffffffffffffffffffff163373ffffffffffffffffffffffffffffffffffffffff167f17fe3deddce525fa12700a731e77ea94c319000ee656076e9e3f0d21638db7666000604051611c5d9190614784565b60405180910390a350505050565b606060018054611c7a9061389d565b80601f0160208091040260200160405190810160405280929190818152602001828054611ca69061389d565b8015611cf35780601f10611cc857610100808354040283529160200191611cf3565b820191906000526020600020905b815481529060010190602001808311611cd657829003601f168201915b5050505050905090565b611d0f611d0861211b565b83836125c5565b5050565b600b6020528060005260406000206000915054906101000a900460ff1681565b6060600a60008373ffffffffffffffffffffffffffffffffffffffff1673ffffffffffffffffffffffffffffffffffffffff168152602001908152602001600020600401805480602002602001604051908101604052809291908181526020016000905b82821015611e43578382906000526020600020018054611db69061389d565b80601f0160208091040260200160405190810160405280929190818152602001828054611de29061389d565b8015611e2f5780601f10611e0457610100808354040283529160200191611e2f565b820191906000526020600020905b815481529060010190602001808311611e1257829003601f168201915b505050505081526020019060010190611d97565b505050509050919050565b611e5f611e5961211b565b836121dc565b611e9e576040517f08c379a0000000000000000000000000000000000000000000000000000000008152600401611e9590613c43565b60405180910390fd5b611eaa84848484612731565b50505050565b6060611ebb826120d0565b6000611ec561278d565b90506000815111611ee55760405180602001604052806000815250611f10565b80611eef846127a4565b604051602001611f0092919061479f565b6040516020818303038152906040525b915050919050565b6000600560008473ffffffffffffffffffffffffffffffffffffffff1673ffffffffffffffffffffffffffffffffffffffff16815260200190815260200160002060008373ffffffffffffffffffffffffffffffffffffffff1673ffffffffffffffffffffffffffffffffffffffff16815260200190815260200160002060009054906101000a900460ff16905092915050565b600c6020528060005260406000206000915054906101000a900460ff1681565b6060600a60008373ffffffffffffffffffffffffffffffffffffffff1673ffffffffffffffffffffffffffffffffffffffff16815260200190815260200160002060030180548060200260200160405190810160405280929190818152602001828054801561205a57602002820191906000526020600020905b815481526020019060010190808311612046575b50505050509050919050565b60007f01ffc9a7000000000000000000000000000000000000000000000000000000007bffffffffffffffffffffffffffffffffffffffffffffffffffffffff1916827bffffffffffffffffffffffffffffffffffffffffffffffffffffffff1916149050919050565b6120d981612872565b612118576040517f08c379a000000000000000000000000000000000000000000000000000000000815260040161210f90614253565b60405180910390fd5b50565b600033905090565b816004600083815260200190815260200160002060006101000a81548173ffffffffffffffffffffffffffffffffffffffff021916908373ffffffffffffffffffffffffffffffffffffffff160217905550808273ffffffffffffffffffffffffffffffffffffffff1661219683611578565b73ffffffffffffffffffffffffffffffffffffffff167f8c5be1e5ebec7d5bd14f71427d1e84f3dd0314c0f7b2291e5b200ac8c7c3b92560405160405180910390a45050565b6000806121e883611578565b90508073ffffffffffffffffffffffffffffffffffffffff168473ffffffffffffffffffffffffffffffffffffffff16148061222a57506122298185611f18565b5b8061226857508373ffffffffffffffffffffffffffffffffffffffff166122508461075d565b73ffffffffffffffffffffffffffffffffffffffff16145b91505092915050565b8273ffffffffffffffffffffffffffffffffffffffff1661229182611578565b73ffffffffffffffffffffffffffffffffffffffff16146122e7576040517f08c379a00000000000000000000000000000000000000000000000000000000081526004016122de90614835565b60405180910390fd5b600073ffffffffffffffffffffffffffffffffffffffff168273ffffffffffffffffffffffffffffffffffffffff1603612356576040517f08c379a000000000000000000000000000000000000000000000000000000000815260040161234d906148c7565b60405180910390fd5b61236383838360016128b3565b8273ffffffffffffffffffffffffffffffffffffffff1661238382611578565b73ffffffffffffffffffffffffffffffffffffffff16146123d9576040517f08c379a00000000000000000000000000000000000000000000000000000000081526004016123d090614835565b60405180910390fd5b6004600082815260200190815260200160002060006101000a81549073ffffffffffffffffffffffffffffffffffffffff02191690556001600360008573ffffffffffffffffffffffffffffffffffffffff1673ffffffffffffffffffffffffffffffffffffffff168152602001908152602001600020600082825403925050819055506001600360008473ffffffffffffffffffffffffffffffffffffffff1673ffffffffffffffffffffffffffffffffffffffff16815260200190815260200160002060008282540192505081905550816002600083815260200190815260200160002060006101000a81548173ffffffffffffffffffffffffffffffffffffffff021916908373ffffffffffffffffffffffffffffffffffffffff160217905550808273ffffffffffffffffffffffffffffffffffffffff168473ffffffffffffffffffffffffffffffffffffffff167fddf252ad1be2c89b69c2b068fc378daa952ba7f163c4a11628f55a4df523b3ef60405160405180910390a461256583838360016128b9565b505050565b60006002600083815260200190815260200160002060009054906101000a900473ffffffffffffffffffffffffffffffffffffffff169050919050565b6125c18282604051806020016040528060008152506128bf565b5050565b8173ffffffffffffffffffffffffffffffffffffffff168373ffffffffffffffffffffffffffffffffffffffff1603612633576040517f08c379a000000000000000000000000000000000000000000000000000000000815260040161262a90614933565b60405180910390fd5b80600560008573ffffffffffffffffffffffffffffffffffffffff1673ffffffffffffffffffffffffffffffffffffffff16815260200190815260200160002060008473ffffffffffffffffffffffffffffffffffffffff1673ffffffffffffffffffffffffffffffffffffffff16815260200190815260200160002060006101000a81548160ff0219169083151502179055508173ffffffffffffffffffffffffffffffffffffffff168373ffffffffffffffffffffffffffffffffffffffff167f17307eab39ab6107e8899845ad3d59bd9653f200f220920489ca2b5937696c31836040516127249190612ee8565b60405180910390a3505050565b61273c848484612271565b6127488484848461291a565b612787576040517f08c379a000000000000000000000000000000000000000000000000000000000815260040161277e906149c5565b60405180910390fd5b50505050565b606060405180602001604052806000815250905090565b6060600060016127b384612aa1565b01905060008167ffffffffffffffff8111156127d2576127d1613272565b5b6040519080825280601f01601f1916602001820160405280156128045781602001600182028036833780820191505090505b509050600082602001820190505b600115612867578080600190039150507f3031323334353637383961626364656600000000000000000000000000000000600a86061a8153600a858161285b5761285a6149e5565b5b04945060008503612812575b819350505050919050565b60008073ffffffffffffffffffffffffffffffffffffffff166128948361256a565b73ffffffffffffffffffffffffffffffffffffffff1614159050919050565b50505050565b50505050565b6128c98383612bf4565b6128d6600084848461291a565b612915576040517f08c379a000000000000000000000000000000000000000000000000000000000815260040161290c906149c5565b60405180910390fd5b505050565b600061293b8473ffffffffffffffffffffffffffffffffffffffff16612e11565b15612a94578373ffffffffffffffffffffffffffffffffffffffff1663150b7a0261296461211b565b8786866040518563ffffffff1660e01b81526004016129869493929190614a69565b6020604051808303816000875af19250505080156129c257506040513d601f19601f820116820180604052508101906129bf9190614aca565b60015b612a44573d80600081146129f2576040519150601f19603f3d011682016040523d82523d6000602084013e6129f7565b606091505b506000815103612a3c576040517f08c379a0000000000000000000000000000000000000000000000000000000008152600401612a33906149c5565b60405180910390fd5b805181602001fd5b63150b7a0260e01b7bffffffffffffffffffffffffffffffffffffffffffffffffffffffff1916817bffffffffffffffffffffffffffffffffffffffffffffffffffffffff191614915050612a99565b600190505b949350505050565b600080600090507a184f03e93ff9f4daa797ed6e38ed64bf6a1f0100000000000000008310612aff577a184f03e93ff9f4daa797ed6e38ed64bf6a1f0100000000000000008381612af557612af46149e5565b5b0492506040810190505b6d04ee2d6d415b85acef81000000008310612b3c576d04ee2d6d415b85acef81000000008381612b3257612b316149e5565b5b0492506020810190505b662386f26fc100008310612b6b57662386f26fc100008381612b6157612b606149e5565b5b0492506010810190505b6305f5e1008310612b94576305f5e1008381612b8a57612b896149e5565b5b0492506008810190505b6127108310612bb9576127108381612baf57612bae6149e5565b5b0492506004810190505b60648310612bdc5760648381612bd257612bd16149e5565b5b0492506002810190505b600a8310612beb576001810190505b80915050919050565b600073ffffffffffffffffffffffffffffffffffffffff168273ffffffffffffffffffffffffffffffffffffffff1603612c63576040517f08c379a0000000000000000000000000000000000000000000000000000000008152600401612c5a90614b43565b60405180910390fd5b612c6c81612872565b15612cac576040517f08c379a0000000000000000000000000000000000000000000000000000000008152600401612ca390614baf565b60405180910390fd5b612cba6000838360016128b3565b612cc381612872565b15612d03576040517f08c379a0000000000000000000000000000000000000000000000000000000008152600401612cfa90614baf565b60405180910390fd5b6001600360008473ffffffffffffffffffffffffffffffffffffffff1673ffffffffffffffffffffffffffffffffffffffff16815260200190815260200160002060008282540192505081905550816002600083815260200190815260200160002060006101000a81548173ffffffffffffffffffffffffffffffffffffffff021916908373ffffffffffffffffffffffffffffffffffffffff160217905550808273ffffffffffffffffffffffffffffffffffffffff16600073ffffffffffffffffffffffffffffffffffffffff167fddf252ad1be2c89b69c2b068fc378daa952ba7f163c4a11628f55a4df523b3ef60405160405180910390a4612e0d6000838360016128b9565b5050565b6000808273ffffffffffffffffffffffffffffffffffffffff163b119050919050565b6000604051905090565b600080fd5b600080fd5b60007fffffffff0000000000000000000000000000000000000000000000000000000082169050919050565b612e7d81612e48565b8114612e8857600080fd5b50565b600081359050612e9a81612e74565b92915050565b600060208284031215612eb657612eb5612e3e565b5b6000612ec484828501612e8b565b91505092915050565b60008115159050919050565b612ee281612ecd565b82525050565b6000602082019050612efd6000830184612ed9565b92915050565b600081519050919050565b600082825260208201905092915050565b60005b83811015612f3d578082015181840152602081019050612f22565b60008484015250505050565b6000601f19601f8301169050919050565b6000612f6582612f03565b612f6f8185612f0e565b9350612f7f818560208601612f1f565b612f8881612f49565b840191505092915050565b60006020820190508181036000830152612fad8184612f5a565b905092915050565b6000819050919050565b612fc881612fb5565b8114612fd357600080fd5b50565b600081359050612fe581612fbf565b92915050565b60006020828403121561300157613000612e3e565b5b600061300f84828501612fd6565b91505092915050565b600073ffffffffffffffffffffffffffffffffffffffff82169050919050565b600061304382613018565b9050919050565b61305381613038565b82525050565b600060208201905061306e600083018461304a565b92915050565b61307d81613038565b811461308857600080fd5b50565b60008135905061309a81613074565b92915050565b600080604083850312156130b7576130b6612e3e565b5b60006130c58582860161308b565b92505060206130d685828601612fd6565b9150509250929050565b6000602082840312156130f6576130f5612e3e565b5b60006131048482850161308b565b91505092915050565b61311681612fb5565b82525050565b6000608082019050613131600083018761310d565b61313e602083018661310d565b61314b6040830185612ed9565b818103606083015261315d8184612f5a565b905095945050505050565b60008060006060848603121561318157613180612e3e565b5b600061318f8682870161308b565b93505060206131a08682870161308b565b92505060406131b186828701612fd6565b9150509250925092565b600080fd5b600080fd5b600080fd5b60008083601f8401126131e0576131df6131bb565b5b8235905067ffffffffffffffff8111156131fd576131fc6131c0565b5b602083019150836001820283011115613219576132186131c5565b5b9250929050565b6000806020838503121561323757613236612e3e565b5b600083013567ffffffffffffffff81111561325557613254612e43565b5b613261858286016131ca565b92509250509250929050565b600080fd5b7f4e487b7100000000000000000000000000000000000000000000000000000000600052604160045260246000fd5b6132aa82612f49565b810181811067ffffffffffffffff821117156132c9576132c8613272565b5b80604052505050565b60006132dc612e34565b90506132e882826132a1565b919050565b600067ffffffffffffffff82111561330857613307613272565b5b61331182612f49565b9050602081019050919050565b82818337600083830152505050565b600061334061333b846132ed565b6132d2565b90508281526020810184848401111561335c5761335b61326d565b5b61336784828561331e565b509392505050565b600082601f830112613384576133836131bb565b5b813561339484826020860161332d565b91505092915050565b600080604083850312156133b4576133b3612e3e565b5b600083013567ffffffffffffffff8111156133d2576133d1612e43565b5b6133de8582860161336f565b925050602083013567ffffffffffffffff8111156133ff576133fe612e43565b5b61340b8582860161336f565b9150509250929050565b600060208201905061342a600083018461310d565b92915050565b60008060006040848603121561344957613448612e3e565b5b60006134578682870161308b565b935050602084013567ffffffffffffffff81111561347857613477612e43565b5b613484868287016131ca565b92509250509250925092565b61349981612ecd565b81146134a457600080fd5b50565b6000813590506134b681613490565b92915050565b600080604083850312156134d3576134d2612e3e565b5b60006134e18582860161308b565b92505060206134f2858286016134a7565b9150509250929050565b600081519050919050565b600082825260208201905092915050565b6000819050602082019050919050565b600082825260208201905092915050565b600061354482612f03565b61354e8185613528565b935061355e818560208601612f1f565b61356781612f49565b840191505092915050565b600061357e8383613539565b905092915050565b6000602082019050919050565b600061359e826134fc565b6135a88185613507565b9350836020820285016135ba85613518565b8060005b858110156135f657848403895281516135d78582613572565b94506135e283613586565b925060208a019950506001810190506135be565b50829750879550505050505092915050565b600060208201905081810360008301526136228184613593565b905092915050565b600067ffffffffffffffff82111561364557613644613272565b5b61364e82612f49565b9050602081019050919050565b600061366e6136698461362a565b6132d2565b90508281526020810184848401111561368a5761368961326d565b5b61369584828561331e565b509392505050565b600082601f8301126136b2576136b16131bb565b5b81356136c284826020860161365b565b91505092915050565b600080600080608085870312156136e5576136e4612e3e565b5b60006136f38782880161308b565b94505060206137048782880161308b565b935050604061371587828801612fd6565b925050606085013567ffffffffffffffff81111561373657613735612e43565b5b6137428782880161369d565b91505092959194509250565b6000806040838503121561376557613764612e3e565b5b60006137738582860161308b565b92505060206137848582860161308b565b9150509250929050565b600081519050919050565b600082825260208201905092915050565b6000819050602082019050919050565b6137c381612fb5565b82525050565b60006137d583836137ba565b60208301905092915050565b6000602082019050919050565b60006137f98261378e565b6138038185613799565b935061380e836137aa565b8060005b8381101561383f57815161382688826137c9565b9750613831836137e1565b925050600181019050613812565b5085935050505092915050565b6000602082019050818103600083015261386681846137ee565b905092915050565b7f4e487b7100000000000000000000000000000000000000000000000000000000600052602260045260246000fd5b600060028204905060018216806138b557607f821691505b6020821081036138c8576138c761386e565b5b50919050565b7f4552433732313a20617070726f76616c20746f2063757272656e74206f776e6560008201527f7200000000000000000000000000000000000000000000000000000000000000602082015250565b600061392a602183612f0e565b9150613935826138ce565b604082019050919050565b600060208201905081810360008301526139598161391d565b9050919050565b7f4552433732313a20617070726f76652063616c6c6572206973206e6f7420746f60008201527f6b656e206f776e6572206f7220617070726f76656420666f7220616c6c000000602082015250565b60006139bc603d83612f0e565b91506139c782613960565b604082019050919050565b600060208201905081810360008301526139eb816139af565b9050919050565b7f4f6e6c792074686520627572656175637261742063616e20706572666f726d2060008201527f7468697320616374696f6e000000000000000000000000000000000000000000602082015250565b6000613a4e602b83612f0e565b9150613a59826139f2565b604082019050919050565b60006020820190508181036000830152613a7d81613a41565b9050919050565b7f4e6f2070726f766973696f6e206368616e676520686173206265656e2072657160008201527f75657374656420666f722074686973206170706c6963616e7400000000000000602082015250565b6000613ae0603983612f0e565b9150613aeb82613a84565b604082019050919050565b60006020820190508181036000830152613b0f81613ad3565b9050919050565b60008190508160005260206000209050919050565b60008154613b388161389d565b613b428186612f0e565b94506001821660008114613b5d5760018114613b7357613ba6565b60ff198316865281151560200286019350613ba6565b613b7c85613b16565b60005b83811015613b9e57815481890152600182019150602081019050613b7f565b808801955050505b50505092915050565b60006020820190508181036000830152613bc98184613b2b565b905092915050565b7f4552433732313a2063616c6c6572206973206e6f7420746f6b656e206f776e6560008201527f72206f7220617070726f76656400000000000000000000000000000000000000602082015250565b6000613c2d602d83612f0e565b9150613c3882613bd1565b604082019050919050565b60006020820190508181036000830152613c5c81613c20565b9050919050565b7f4f6e6c79206d65726368616e74732063616e20706572666f726d20746869732060008201527f616374696f6e0000000000000000000000000000000000000000000000000000602082015250565b6000613cbf602683612f0e565b9150613cca82613c63565b604082019050919050565b60006020820190508181036000830152613cee81613cb2565b9050919050565b7f4d61676963206e756d626572206d757374206265206e6f6e2d6e65676174697660008201527f6500000000000000000000000000000000000000000000000000000000000000602082015250565b6000613d51602183612f0e565b9150613d5c82613cf5565b604082019050919050565b60006020820190508181036000830152613d8081613d44565b9050919050565b7f596f75206d75737420686176652061206e6f742062652061206d65726368616e60008201527f7420746f20706572666f726d207468697320616374696f6e0000000000000000602082015250565b6000613de3603883612f0e565b9150613dee82613d87565b604082019050919050565b60006020820190508181036000830152613e1281613dd6565b9050919050565b7f546865726520697320616e206f70656e207265717565737420616c7265616479600082015250565b6000613e4f602083612f0e565b9150613e5a82613e19565b602082019050919050565b60006020820190508181036000830152613e7e81613e42565b9050919050565b600082905092915050565b60006020601f8301049050919050565b600082821b905092915050565b600060088302613edd7fffffffffffffffffffffffffffffffffffffffffffffffffffffffffffffffff82613ea0565b613ee78683613ea0565b95508019841693508086168417925050509392505050565b6000819050919050565b6000613f24613f1f613f1a84612fb5565b613eff565b612fb5565b9050919050565b6000819050919050565b613f3e83613f09565b613f52613f4a82613f2b565b848454613ead565b825550505050565b600090565b613f67613f5a565b613f72818484613f35565b505050565b5b81811015613f9657613f8b600082613f5f565b600181019050613f78565b5050565b601f821115613fdb57613fac81613b16565b613fb584613e90565b81016020851015613fc4578190505b613fd8613fd085613e90565b830182613f77565b50505b505050565b600082821c905092915050565b6000613ffe60001984600802613fe0565b1980831691505092915050565b60006140178383613fed565b9150826002028217905092915050565b6140318383613e85565b67ffffffffffffffff81111561404a57614049613272565b5b614054825461389d565b61405f828285613f9a565b6000601f83116001811461408e576000841561407c578287013590505b614086858261400b565b8655506140ee565b601f19841661409c86613b16565b60005b828110156140c45784890135825560018201915060208501945060208101905061409f565b868310156140e157848901356140dd601f891682613fed565b8355505b6001600288020188555050505b50505050505050565b60006141038385612f0e565b935061411083858461331e565b61411983612f49565b840190509392505050565b6000602082019050818103600083015261413f8184866140f7565b90509392505050565b600081905092915050565b600061415e82612f03565b6141688185614148565b9350614178818560208601612f1f565b80840191505092915050565b60006141908284614153565b915081905092915050565b7f596f752061726520616c72656164792072656769737465726564000000000000600082015250565b60006141d1601a83612f0e565b91506141dc8261419b565b602082019050919050565b60006020820190508181036000830152614200816141c4565b9050919050565b7f4552433732313a20696e76616c696420746f6b656e2049440000000000000000600082015250565b600061423d601883612f0e565b915061424882614207565b602082019050919050565b6000602082019050818103600083015261426c81614230565b9050919050565b7f4e487b7100000000000000000000000000000000000000000000000000000000600052601160045260246000fd5b60006142ad82612fb5565b91506142b883612fb5565b92508282019050808211156142d0576142cf614273565b5b92915050565b6000815490506142e58161389d565b9050919050565b60008190508160005260206000209050919050565b81810361430f5750506143e7565b614318826142d6565b67ffffffffffffffff81111561433157614330613272565b5b61433b825461389d565b614346828285613f9a565b6000601f8311600181146143755760008415614363578287015490505b61436d858261400b565b8655506143e0565b601f198416614383876142ec565b965061438e86613b16565b60005b828110156143b657848901548255600182019150600185019450602081019050614391565b868310156143d357848901546143cf601f891682613fed565b8355505b6001600288020188555050505b5050505050505b565b600081546143f68161389d565b6144008186614148565b9450600182166000811461441b576001811461443057614463565b60ff1983168652811515820286019350614463565b61443985613b16565b60005b8381101561445b5781548189015260018201915060208101905061443c565b838801955050505b50505092915050565b600061447882846143e9565b915081905092915050565b61448c82612f03565b67ffffffffffffffff8111156144a5576144a4613272565b5b6144af825461389d565b6144ba828285613f9a565b600060209050601f8311600181146144ed57600084156144db578287015190505b6144e5858261400b565b86555061454d565b601f1984166144fb86613b16565b60005b82811015614523578489015182556001820191506020850194506020810190506144fe565b86831015614540578489015161453c601f891682613fed565b8355505b6001600288020188555050505b505050505050565b7f4552433732313a2061646472657373207a65726f206973206e6f74206120766160008201527f6c6964206f776e65720000000000000000000000000000000000000000000000602082015250565b60006145b1602983612f0e565b91506145bc82614555565b604082019050919050565b600060208201905081810360008301526145e0816145a4565b9050919050565b60006145f38385614148565b935061460083858461331e565b82840190509392505050565b60006146198284866145e7565b91508190509392505050565b7f596f7520646f206e6f74206861766520656e6f756768207469636b657473207460008201527f6f20706572666f726d2074686973207472616e73666572000000000000000000602082015250565b6000614681603783612f0e565b915061468c82614625565b604082019050919050565b600060208201905081810360008301526146b081614674565b9050919050565b60006146c282612fb5565b91506146cd83612fb5565b92508282039050818111156146e5576146e4614273565b5b92915050565b7f4e487b7100000000000000000000000000000000000000000000000000000000600052603260045260246000fd5b7f4e487b7100000000000000000000000000000000000000000000000000000000600052603160045260246000fd5b6000819050919050565b600061476e61476961476484614749565b613eff565b612fb5565b9050919050565b61477e81614753565b82525050565b60006020820190506147996000830184614775565b92915050565b60006147ab8285614153565b91506147b78284614153565b91508190509392505050565b7f4552433732313a207472616e736665722066726f6d20696e636f72726563742060008201527f6f776e6572000000000000000000000000000000000000000000000000000000602082015250565b600061481f602583612f0e565b915061482a826147c3565b604082019050919050565b6000602082019050818103600083015261484e81614812565b9050919050565b7f4552433732313a207472616e7366657220746f20746865207a65726f2061646460008201527f7265737300000000000000000000000000000000000000000000000000000000602082015250565b60006148b1602483612f0e565b91506148bc82614855565b604082019050919050565b600060208201905081810360008301526148e0816148a4565b9050919050565b7f4552433732313a20617070726f766520746f2063616c6c657200000000000000600082015250565b600061491d601983612f0e565b9150614928826148e7565b602082019050919050565b6000602082019050818103600083015261494c81614910565b9050919050565b7f4552433732313a207472616e7366657220746f206e6f6e20455243373231526560008201527f63656976657220696d706c656d656e7465720000000000000000000000000000602082015250565b60006149af603283612f0e565b91506149ba82614953565b604082019050919050565b600060208201905081810360008301526149de816149a2565b9050919050565b7f4e487b7100000000000000000000000000000000000000000000000000000000600052601260045260246000fd5b600081519050919050565b600082825260208201905092915050565b6000614a3b82614a14565b614a458185614a1f565b9350614a55818560208601612f1f565b614a5e81612f49565b840191505092915050565b6000608082019050614a7e600083018761304a565b614a8b602083018661304a565b614a98604083018561310d565b8181036060830152614aaa8184614a30565b905095945050505050565b600081519050614ac481612e74565b92915050565b600060208284031215614ae057614adf612e3e565b5b6000614aee84828501614ab5565b91505092915050565b7f4552433732313a206d696e7420746f20746865207a65726f2061646472657373600082015250565b6000614b2d602083612f0e565b9150614b3882614af7565b602082019050919050565b60006020820190508181036000830152614b5c81614b20565b9050919050565b7f4552433732313a20746f6b656e20616c7265616479206d696e74656400000000600082015250565b6000614b99601c83612f0e565b9150614ba482614b63565b602082019050919050565b60006020820190508181036000830152614bc881614b8c565b905091905056fea264697066735822122083dc56be4057c10895391be6a054e053b8f6c14f7032662426070d6124b5dadb64736f6c63430008110033",
  "immutableReferences": {},
  "source": "//SPDX-License-Identifier: UNLICENSED\r\npragma solidity >=0.8.17;\r\n\r\nimport \"@openzeppelin/contracts/token/ERC721/ERC721.sol\";\r\nimport \"@openzeppelin/contracts/utils/Counters.sol\";\r\n\r\ncontract SNAP is ERC721{\r\n    address public bureaucrat;\r\n    string[] public meal;\r\n    mapping(string => bool) _mealExists;\r\n    uint tokenCounter = 0;\r\n\r\n    \r\n    struct Applicant\r\n    {\r\n        uint256 balance;\r\n        uint256 magicNumber;\r\n        bool provisionChangeRequested;\r\n        uint[] tokenId;\r\n        string[] mealsOwned;\r\n        mapping(string => uint[]) tokens;\r\n        string openRequestMeal;\r\n    }\r\n    \r\n    mapping(address => Applicant) public participants;\r\n    mapping(address => bool) public users;\r\n    mapping(address => bool) public merchants;\r\n    \r\n    event TicketTransferred(address indexed from, address indexed to, uint256 amount);\r\n    event ProvisionChangeRequested(address indexed applicant, string mealRequested);\r\n    event ProvisionChangeApproved(address indexed applicant, string mealTicket);\r\n    event ProvisionChangeDenied(address indexed applicant, uint256 newBalance);\r\n    event MagicNumberSet(address indexed merchant, uint256 magicNumber);\r\n    event ApplicantRegister(address indexed user);\r\n    event MerchantRegister(address indexed merchants);\r\n    \r\n    constructor() ERC721(\"Meal\", \"MEAL\") public\r\n    {\r\n        bureaucrat = msg.sender;\r\n        users[msg.sender] = true;\r\n    }\r\n    \r\n    modifier onlyBureaucrat()\r\n    {\r\n        require(msg.sender == bureaucrat, \"Only the bureaucrat can perform this action\");\r\n        _;\r\n    }\r\n    \r\n    modifier onlyApplicant()\r\n    {\r\n        require(!merchants[msg.sender], \"You must have a not be a merchant to perform this action\");\r\n        _;\r\n    }\r\n    \r\n    modifier onlyMerchant()\r\n    {\r\n        require(merchants[msg.sender], \"Only merchants can perform this action\");\r\n        _;\r\n    }\r\n    \r\n    function registerApplicant() public\r\n    {\r\n        require(!users[msg.sender], \"You are already registered\");\r\n        \r\n        users[msg.sender] = true;\r\n        participants[msg.sender].balance = 0;\r\n        participants[msg.sender].magicNumber = 0;\r\n        participants[msg.sender].provisionChangeRequested = false;\r\n        emit ApplicantRegister(msg.sender);\r\n    }\r\n\r\n    function registerMerchant() public\r\n    {\r\n        require(!merchants[msg.sender], \"You are already registered\");\r\n        merchants[msg.sender] = true;\r\n        emit MerchantRegister(msg.sender);\r\n    }\r\n\r\nfunction compare(string memory str1, string memory str2) public pure returns (bool) {\r\n        if (bytes(str1).length != bytes(str2).length) {\r\n            return false;\r\n        }\r\n        return keccak256(abi.encodePacked(str1)) == keccak256(abi.encodePacked(str2));\r\n    }\r\n \r\n    function transferTickets(address to, string calldata mealToBuy) public\r\n    {\r\n        require(participants[msg.sender].tokens[mealToBuy].length != 0, \"You do not have enough tickets to perform this transfer\");\r\n        //participants[msg.sender].balance = participants[msg.sender].balance - amount;\r\n        //participants[to].balance = participants[to].balance + amount;\r\n        uint i = participants[msg.sender].tokens[mealToBuy].length;\r\n        // uint mealsFound = 0;\r\n        // for (i=0; i<=participants[msg.sender].tokenId.length; i++){\r\n            // if (compare((participants[msg.sender].mealsOwned[i]),mealToBuy)){\r\n        //         if(mealsFound < amount){\r\n        //             // mealsFound = mealsFound + 1;\r\n        //             // _transfer(msg.sender, to,participants[msg.sender].tokenId[i]);\r\n        //             // delete participants[msg.sender].tokenId[i];\r\n        //             // delete participants[msg.sender].mealsOwned[i];\r\n        //         }\r\n        //     }\r\n        // }\r\n        _transfer(msg.sender, to,participants[msg.sender].tokens[mealToBuy][i-1]);\r\n        participants[msg.sender].tokens[mealToBuy].pop();\r\n        //  _transfer(msg.sender, to,participants[msg.sender].tokenId[0]);\r\n    //    require(mealsFound == amount,\"No Sufficient Meal Coupons Found\");\r\n\r\n        emit TicketTransferred(msg.sender, to,0);\r\n    }\r\n    \r\n    function requestProvisionChange(string calldata mealRequested) public onlyApplicant\r\n    {\r\n        require(!participants[msg.sender].provisionChangeRequested, \"There is an open request already\");\r\n        participants[msg.sender].provisionChangeRequested = true;\r\n        participants[msg.sender].openRequestMeal = mealRequested;\r\n        emit ProvisionChangeRequested(msg.sender, mealRequested);\r\n    }\r\n    \r\n    function approveProvisionChange(address applicant) public onlyBureaucrat\r\n    {\r\n        require(participants[applicant].provisionChangeRequested, \"No provision change has been requested for this applicant\");\r\n        participants[applicant].provisionChangeRequested = false;\r\n        mint(applicant);\r\n        \r\n        emit ProvisionChangeApproved(applicant, participants[applicant].openRequestMeal);\r\n    }\r\n    \r\n    function mint(address applicant) public {\r\n        //require(!_mealExists[_meal]);\r\n        tokenCounter = tokenCounter + 1;\r\n        meal.push(participants[applicant].openRequestMeal);\r\n        _safeMint(applicant, tokenCounter);\r\n        //_mealExists[participants[applicant].openRequestMeal] = true;\r\n        participants[applicant].tokens[participants[applicant].openRequestMeal].push(tokenCounter);\r\n        participants[applicant].mealsOwned.push(participants[applicant].openRequestMeal);\r\n        participants[applicant].openRequestMeal = '';\r\n    }\r\n\r\n    function denyProvisionChange(address applicant) public onlyBureaucrat\r\n    {\r\n        require(participants[applicant].provisionChangeRequested, \"No provision change has been requested for this applicant\");\r\n        participants[applicant].provisionChangeRequested = false;\r\n        emit ProvisionChangeDenied(applicant, participants[applicant].balance);\r\n    }\r\n    \r\n    function setMagicNumber(uint256 magicNumber) public onlyMerchant\r\n    {\r\n        require(magicNumber >= 0, \"Magic number must be non-negative\");\r\n        participants[msg.sender].magicNumber = magicNumber;\r\n        emit MagicNumberSet(msg.sender, magicNumber);\r\n    }\r\n\r\n    function getTokenId(address owner) public   view returns( uint  [] memory){\r\n        return participants[owner].tokenId;\r\n    }\r\n    function getMealsOwned(address owner) public   view returns( string  [] memory){\r\n        return participants[owner].mealsOwned;\r\n    }\r\n}\r\n",
  "sourcePath": "D:\\spring 23\\blockchain\\SANPonBlockchain\\contracts\\snap_sc.sol",
  "compiler": {
    "name": "solc",
    "version": "0.8.17+commit.8df45f5f.Emscripten.clang"
  },
  "schemaVersion": "3.4.13",
  "updatedAt": "2023-04-29T05:03:27.195Z",
  "networkType": "ethereum",
  "devdoc": {
    "kind": "dev",
    "methods": {
      "approve(address,uint256)": {
        "details": "See {IERC721-approve}."
      },
      "balanceOf(address)": {
        "details": "See {IERC721-balanceOf}."
      },
      "getApproved(uint256)": {
        "details": "See {IERC721-getApproved}."
      },
      "isApprovedForAll(address,address)": {
        "details": "See {IERC721-isApprovedForAll}."
      },
      "name()": {
        "details": "See {IERC721Metadata-name}."
      },
      "ownerOf(uint256)": {
        "details": "See {IERC721-ownerOf}."
      },
      "safeTransferFrom(address,address,uint256)": {
        "details": "See {IERC721-safeTransferFrom}."
      },
      "safeTransferFrom(address,address,uint256,bytes)": {
        "details": "See {IERC721-safeTransferFrom}."
      },
      "setApprovalForAll(address,bool)": {
        "details": "See {IERC721-setApprovalForAll}."
      },
      "supportsInterface(bytes4)": {
        "details": "See {IERC165-supportsInterface}."
      },
      "symbol()": {
        "details": "See {IERC721Metadata-symbol}."
      },
      "tokenURI(uint256)": {
        "details": "See {IERC721Metadata-tokenURI}."
      },
      "transferFrom(address,address,uint256)": {
        "details": "See {IERC721-transferFrom}."
      }
    },
    "version": 1
  },
  "userdoc": {
    "kind": "user",
    "methods": {},
    "version": 1
  }
}