{
  "contractName": "migrations",
  "abi": [
    {
      "inputs": [],
      "payable": false,
      "stateMutability": "nonpayable",
      "type": "constructor"
    },
    {
      "anonymous": false,
      "inputs": [
        {
          "indexed": true,
          "internalType": "address",
          "name": "user",
          "type": "address"
        }
      ],
      "name": "ApplicantRegister",
      "type": "event"
    },
    {
      "anonymous": false,
      "inputs": [
        {
          "indexed": true,
          "internalType": "address",
          "name": "merchant",
          "type": "address"
        },
        {
          "indexed": false,
          "internalType": "uint256",
          "name": "magicNumber",
          "type": "uint256"
        }
      ],
      "name": "MagicNumberSet",
      "type": "event"
    },
    {
      "anonymous": false,
      "inputs": [
        {
          "indexed": true,
          "internalType": "address",
          "name": "merchant",
          "type": "address"
        }
      ],
      "name": "MerchantRegister",
      "type": "event"
    },
    {
      "anonymous": false,
      "inputs": [
        {
          "indexed": true,
          "internalType": "address",
          "name": "applicant",
          "type": "address"
        },
        {
          "indexed": false,
          "internalType": "uint256",
          "name": "newBalance",
          "type": "uint256"
        }
      ],
      "name": "ProvisionChangeApproved",
      "type": "event"
    },
    {
      "anonymous": false,
      "inputs": [
        {
          "indexed": true,
          "internalType": "address",
          "name": "applicant",
          "type": "address"
        },
        {
          "indexed": false,
          "internalType": "uint256",
          "name": "newBalance",
          "type": "uint256"
        }
      ],
      "name": "ProvisionChangeDenied",
      "type": "event"
    },
    {
      "anonymous": false,
      "inputs": [
        {
          "indexed": true,
          "internalType": "address",
          "name": "applicant",
          "type": "address"
        },
        {
          "indexed": false,
          "internalType": "uint256",
          "name": "newBalance",
          "type": "uint256"
        }
      ],
      "name": "ProvisionChangeRequested",
      "type": "event"
    },
    {
      "anonymous": false,
      "inputs": [
        {
          "indexed": true,
          "internalType": "address",
          "name": "from",
          "type": "address"
        },
        {
          "indexed": true,
          "internalType": "address",
          "name": "to",
          "type": "address"
        },
        {
          "indexed": false,
          "internalType": "uint256",
          "name": "amount",
          "type": "uint256"
        }
      ],
      "name": "TicketTransferred",
      "type": "event"
    },
    {
      "constant": true,
      "inputs": [],
      "name": "bureaucrat",
      "outputs": [
        {
          "internalType": "address",
          "name": "",
          "type": "address"
        }
      ],
      "payable": false,
      "stateMutability": "view",
      "type": "function"
    },
    {
      "constant": true,
      "inputs": [
        {
          "internalType": "address",
          "name": "",
          "type": "address"
        }
      ],
      "name": "merchants",
      "outputs": [
        {
          "internalType": "bool",
          "name": "",
          "type": "bool"
        }
      ],
      "payable": false,
      "stateMutability": "view",
      "type": "function"
    },
    {
      "constant": true,
      "inputs": [
        {
          "internalType": "address",
          "name": "",
          "type": "address"
        }
      ],
      "name": "participants",
      "outputs": [
        {
          "internalType": "uint256",
          "name": "balance",
          "type": "uint256"
        },
        {
          "internalType": "uint256",
          "name": "magicNumber",
          "type": "uint256"
        },
        {
          "internalType": "bool",
          "name": "provisionChangeRequested",
          "type": "bool"
        }
      ],
      "payable": false,
      "stateMutability": "view",
      "type": "function"
    },
    {
      "constant": true,
      "inputs": [
        {
          "internalType": "address",
          "name": "",
          "type": "address"
        }
      ],
      "name": "users",
      "outputs": [
        {
          "internalType": "bool",
          "name": "",
          "type": "bool"
        }
      ],
      "payable": false,
      "stateMutability": "view",
      "type": "function"
    },
    {
      "constant": false,
      "inputs": [],
      "name": "registerApplicant",
      "outputs": [],
      "payable": false,
      "stateMutability": "nonpayable",
      "type": "function"
    },
    {
      "constant": false,
      "inputs": [],
      "name": "registerMerchant",
      "outputs": [],
      "payable": false,
      "stateMutability": "nonpayable",
      "type": "function"
    },
    {
      "constant": false,
      "inputs": [
        {
          "internalType": "address",
          "name": "to",
          "type": "address"
        },
        {
          "internalType": "uint256",
          "name": "amount",
          "type": "uint256"
        }
      ],
      "name": "transferTickets",
      "outputs": [],
      "payable": false,
      "stateMutability": "nonpayable",
      "type": "function"
    },
    {
      "constant": false,
      "inputs": [
        {
          "internalType": "uint256",
          "name": "amount",
          "type": "uint256"
        }
      ],
      "name": "requestProvisionChange",
      "outputs": [],
      "payable": false,
      "stateMutability": "nonpayable",
      "type": "function"
    },
    {
      "constant": false,
      "inputs": [
        {
          "internalType": "address",
          "name": "applicant",
          "type": "address"
        },
        {
          "internalType": "uint256",
          "name": "amount",
          "type": "uint256"
        }
      ],
      "name": "approveProvisionChange",
      "outputs": [],
      "payable": false,
      "stateMutability": "nonpayable",
      "type": "function"
    },
    {
      "constant": false,
      "inputs": [
        {
          "internalType": "address",
          "name": "applicant",
          "type": "address"
        }
      ],
      "name": "denyProvisionChange",
      "outputs": [],
      "payable": false,
      "stateMutability": "nonpayable",
      "type": "function"
    },
    {
      "constant": false,
      "inputs": [
        {
          "internalType": "uint256",
          "name": "magicNumber",
          "type": "uint256"
        }
      ],
      "name": "setMagicNumber",
      "outputs": [],
      "payable": false,
      "stateMutability": "nonpayable",
      "type": "function"
    }
  ],
  "bytecode": "0x608060405234801561001057600080fd5b50336000806101000a81548173ffffffffffffffffffffffffffffffffffffffff021916908373ffffffffffffffffffffffffffffffffffffffff1602179055506001600260003373ffffffffffffffffffffffffffffffffffffffff1673ffffffffffffffffffffffffffffffffffffffff16815260200190815260200160002060006101000a81548160ff021916908315150217905550611277806100b86000396000f3fe608060405234801561001057600080fd5b50600436106100a95760003560e01c80634520619611610071578063452061961461020c578063540e2bff1461021657806355dabe421461025a578063a87430ba14610264578063ab122a67146102c0578063ee14e9391461030e576100a9565b806309e69ede146100ae5780632ba2ed9814610118578063323a9beb1461014657806339c7eac81461019457806342f22d2e146101de575b600080fd5b6100f0600480360360208110156100c457600080fd5b81019080803573ffffffffffffffffffffffffffffffffffffffff16906020019092919050505061036a565b6040518084815260200183815260200182151515158152602001935050505060405180910390f35b6101446004803603602081101561012e57600080fd5b81019080803590602001909291905050506103a1565b005b6101926004803603604081101561015c57600080fd5b81019080803573ffffffffffffffffffffffffffffffffffffffff16906020019092919080359060200190929190505050610535565b005b61019c61074f565b604051808273ffffffffffffffffffffffffffffffffffffffff1673ffffffffffffffffffffffffffffffffffffffff16815260200191505060405180910390f35b61020a600480360360208110156101f457600080fd5b8101908080359060200190929190505050610774565b005b61021461090a565b005b6102586004803603602081101561022c57600080fd5b81019080803573ffffffffffffffffffffffffffffffffffffffff169060200190929190505050610a67565b005b610262610c9f565b005b6102a66004803603602081101561027a57600080fd5b81019080803573ffffffffffffffffffffffffffffffffffffffff169060200190929190505050610ee7565b604051808215151515815260200191505060405180910390f35b61030c600480360360408110156102d657600080fd5b81019080803573ffffffffffffffffffffffffffffffffffffffff16906020019092919080359060200190929190505050610f07565b005b6103506004803603602081101561032457600080fd5b81019080803573ffffffffffffffffffffffffffffffffffffffff169060200190929190505050611108565b604051808215151515815260200191505060405180910390f35b60016020528060005260406000206000915090508060000154908060010154908060020160009054906101000a900460ff16905083565b600360003373ffffffffffffffffffffffffffffffffffffffff1673ffffffffffffffffffffffffffffffffffffffff16815260200190815260200160002060009054906101000a900460ff16610443576040517f08c379a000000000000000000000000000000000000000000000000000000000815260040180806020018281038252602681526020018061119a6026913960400191505060405180910390fd5b600081101561049d576040517f08c379a00000000000000000000000000000000000000000000000000000000081526004018080602001828103825260218152602001806111c06021913960400191505060405180910390fd5b80600160003373ffffffffffffffffffffffffffffffffffffffff1673ffffffffffffffffffffffffffffffffffffffff168152602001908152602001600020600101819055503373ffffffffffffffffffffffffffffffffffffffff167f1ac19207c0953072a214e2dcd4fe07d08463d0ac91b3e0a26dc1c4b2791eebc5826040518082815260200191505060405180910390a250565b80600160003373ffffffffffffffffffffffffffffffffffffffff1673ffffffffffffffffffffffffffffffffffffffff1681526020019081526020016000206000015410156105d0576040517f08c379a000000000000000000000000000000000000000000000000000000000815260040180806020018281038252603781526020018061120c6037913960400191505060405180910390fd5b80600160003373ffffffffffffffffffffffffffffffffffffffff1673ffffffffffffffffffffffffffffffffffffffff1681526020019081526020016000206000015403600160003373ffffffffffffffffffffffffffffffffffffffff1673ffffffffffffffffffffffffffffffffffffffff1681526020019081526020016000206000018190555080600160008473ffffffffffffffffffffffffffffffffffffffff1673ffffffffffffffffffffffffffffffffffffffff1681526020019081526020016000206000015401600160008473ffffffffffffffffffffffffffffffffffffffff1673ffffffffffffffffffffffffffffffffffffffff168152602001908152602001600020600001819055508173ffffffffffffffffffffffffffffffffffffffff163373ffffffffffffffffffffffffffffffffffffffff167f17fe3deddce525fa12700a731e77ea94c319000ee656076e9e3f0d21638db766836040518082815260200191505060405180910390a35050565b6000809054906101000a900473ffffffffffffffffffffffffffffffffffffffff1681565b600360003373ffffffffffffffffffffffffffffffffffffffff1673ffffffffffffffffffffffffffffffffffffffff16815260200190815260200160002060009054906101000a900460ff1615610817576040517f08c379a00000000000000000000000000000000000000000000000000000000081526004018080602001828103825260388152602001806111296038913960400191505060405180910390fd5b60018060003373ffffffffffffffffffffffffffffffffffffffff1673ffffffffffffffffffffffffffffffffffffffff16815260200190815260200160002060020160006101000a81548160ff0219169083151502179055506000600160003373ffffffffffffffffffffffffffffffffffffffff1673ffffffffffffffffffffffffffffffffffffffff168152602001908152602001600020600101819055503373ffffffffffffffffffffffffffffffffffffffff167f76c9bf738b77d20721ea9c3139fdc342d5672119f1304193fe55915d37ed883f826040518082815260200191505060405180910390a250565b600360003373ffffffffffffffffffffffffffffffffffffffff1673ffffffffffffffffffffffffffffffffffffffff16815260200190815260200160002060009054906101000a900460ff16156109ca576040517f08c379a000000000000000000000000000000000000000000000000000000000815260040180806020018281038252601a8152602001807f596f752061726520616c7265616479207265676973746572656400000000000081525060200191505060405180910390fd5b6001600360003373ffffffffffffffffffffffffffffffffffffffff1673ffffffffffffffffffffffffffffffffffffffff16815260200190815260200160002060006101000a81548160ff0219169083151502179055503373ffffffffffffffffffffffffffffffffffffffff167f92b082de749f0ebd44fd01ce4acab93bf014fab9d1a385c57a6c5ad8d9d29af560405160405180910390a2565b6000809054906101000a900473ffffffffffffffffffffffffffffffffffffffff1673ffffffffffffffffffffffffffffffffffffffff163373ffffffffffffffffffffffffffffffffffffffff1614610b0c576040517f08c379a000000000000000000000000000000000000000000000000000000000815260040180806020018281038252602b8152602001806111e1602b913960400191505060405180910390fd5b600160008273ffffffffffffffffffffffffffffffffffffffff1673ffffffffffffffffffffffffffffffffffffffff16815260200190815260200160002060020160009054906101000a900460ff16610bb1576040517f08c379a00000000000000000000000000000000000000000000000000000000081526004018080602001828103825260398152602001806111616039913960400191505060405180910390fd5b6000600160008373ffffffffffffffffffffffffffffffffffffffff1673ffffffffffffffffffffffffffffffffffffffff16815260200190815260200160002060020160006101000a81548160ff0219169083151502179055508073ffffffffffffffffffffffffffffffffffffffff167fe4f86d8b20ded56c3d91ef1e193b47f16579b01d7713d1948bc4fc1a96bb85ee600160008473ffffffffffffffffffffffffffffffffffffffff1673ffffffffffffffffffffffffffffffffffffffff168152602001908152602001600020600001546040518082815260200191505060405180910390a250565b600260003373ffffffffffffffffffffffffffffffffffffffff1673ffffffffffffffffffffffffffffffffffffffff16815260200190815260200160002060009054906101000a900460ff1615610d5f576040517f08c379a000000000000000000000000000000000000000000000000000000000815260040180806020018281038252601a8152602001807f596f752061726520616c7265616479207265676973746572656400000000000081525060200191505060405180910390fd5b6001600260003373ffffffffffffffffffffffffffffffffffffffff1673ffffffffffffffffffffffffffffffffffffffff16815260200190815260200160002060006101000a81548160ff0219169083151502179055506000600160003373ffffffffffffffffffffffffffffffffffffffff1673ffffffffffffffffffffffffffffffffffffffff168152602001908152602001600020600001819055506000600160003373ffffffffffffffffffffffffffffffffffffffff1673ffffffffffffffffffffffffffffffffffffffff168152602001908152602001600020600101819055506000600160003373ffffffffffffffffffffffffffffffffffffffff1673ffffffffffffffffffffffffffffffffffffffff16815260200190815260200160002060020160006101000a81548160ff0219169083151502179055503373ffffffffffffffffffffffffffffffffffffffff167fda626996b6a73d01583af35f00e8f523759cebc5f4865edf77713226e9b171d660405160405180910390a2565b60026020528060005260406000206000915054906101000a900460ff1681565b6000809054906101000a900473ffffffffffffffffffffffffffffffffffffffff1673ffffffffffffffffffffffffffffffffffffffff163373ffffffffffffffffffffffffffffffffffffffff1614610fac576040517f08c379a000000000000000000000000000000000000000000000000000000000815260040180806020018281038252602b8152602001806111e1602b913960400191505060405180910390fd5b600160008373ffffffffffffffffffffffffffffffffffffffff1673ffffffffffffffffffffffffffffffffffffffff16815260200190815260200160002060020160009054906101000a900460ff16611051576040517f08c379a00000000000000000000000000000000000000000000000000000000081526004018080602001828103825260398152602001806111616039913960400191505060405180910390fd5b6000600160008473ffffffffffffffffffffffffffffffffffffffff1673ffffffffffffffffffffffffffffffffffffffff16815260200190815260200160002060020160006101000a81548160ff0219169083151502179055506110b68282610535565b8173ffffffffffffffffffffffffffffffffffffffff167fa7fd4c2c107f3175f3edaf03e890236470b5a476e508d010314dacc7572df9cd826040518082815260200191505060405180910390a25050565b60036020528060005260406000206000915054906101000a900460ff168156fe596f75206d75737420686176652061206e6f742062652061206d65726368616e7420746f20706572666f726d207468697320616374696f6e4e6f2070726f766973696f6e206368616e676520686173206265656e2072657175657374656420666f722074686973206170706c6963616e744f6e6c79206d65726368616e74732063616e20706572666f726d207468697320616374696f6e4d61676963206e756d626572206d757374206265206e6f6e2d6e656761746976654f6e6c792074686520627572656175637261742063616e20706572666f726d207468697320616374696f6e596f7520646f206e6f74206861766520656e6f756768207469636b65747320746f20706572666f726d2074686973207472616e73666572a265627a7a72315820fb1c585c4278ccd7830aa240628d7f7ca8a0438e60b67a051d6918f8c95b11b964736f6c63430005100032",
  "source": "//SPDX-License-Identifier: UNLICENSED\r\npragma solidity >=0.4.21 <0.7.0;\r\n\r\ncontract migrations {\r\n    address public bureaucrat;\r\n    \r\n    struct Applicant\r\n    {\r\n        uint256 balance;\r\n        uint256 magicNumber;\r\n        bool provisionChangeRequested;\r\n    }\r\n    \r\n    mapping(address => Applicant) public participants;\r\n    mapping(address => bool) public users;\r\n    mapping(address => bool) public merchants;\r\n    \r\n    event TicketTransferred(address indexed from, address indexed to, uint256 amount);\r\n    event ProvisionChangeRequested(address indexed applicant, uint256 newBalance);\r\n    event ProvisionChangeApproved(address indexed applicant, uint256 newBalance);\r\n    event ProvisionChangeDenied(address indexed applicant, uint256 newBalance);\r\n    event MagicNumberSet(address indexed merchant, uint256 magicNumber);\r\n    event ApplicantRegister(address indexed user);\r\n    event MerchantRegister(address indexed merchant);\r\n    \r\n    constructor() public\r\n    {\r\n        bureaucrat = msg.sender;\r\n        users[msg.sender] = true;\r\n    }\r\n    \r\n    modifier onlyBureaucrat()\r\n    {\r\n        require(msg.sender == bureaucrat, \"Only the bureaucrat can perform this action\");\r\n        _;\r\n    }\r\n    \r\n    modifier onlyApplicant()\r\n    {\r\n        require(!merchants[msg.sender], \"You must have a not be a merchant to perform this action\");\r\n        _;\r\n    }\r\n    \r\n    modifier onlyMerchant()\r\n    {\r\n        require(merchants[msg.sender], \"Only merchants can perform this action\");\r\n        _;\r\n    }\r\n    \r\n    function registerApplicant() public\r\n    {\r\n        require(!users[msg.sender], \"You are already registered\");\r\n        \r\n        users[msg.sender] = true;\r\n        participants[msg.sender].balance = 0;\r\n        participants[msg.sender].magicNumber = 0;\r\n        participants[msg.sender].provisionChangeRequested = false;\r\n        emit ApplicantRegister(msg.sender);\r\n    }\r\n\r\n    function registerMerchant() public\r\n    {\r\n        require(!merchants[msg.sender], \"You are already registered\");\r\n        merchants[msg.sender] = true;\r\n        emit MerchantRegister(msg.sender);\r\n    }\r\n\r\n    function transferTickets(address to, uint256 amount) public\r\n    {\r\n        require(participants[msg.sender].balance >= amount, \"You do not have enough tickets to perform this transfer\");\r\n        participants[msg.sender].balance = participants[msg.sender].balance - amount;\r\n        participants[to].balance = participants[to].balance + amount;\r\n        emit TicketTransferred(msg.sender, to, amount);\r\n    }\r\n    \r\n    function requestProvisionChange(uint256 amount) public onlyApplicant\r\n    {\r\n        participants[msg.sender].provisionChangeRequested = true;\r\n        participants[msg.sender].magicNumber = 0;\r\n        emit ProvisionChangeRequested(msg.sender, amount);\r\n    }\r\n    \r\n    function approveProvisionChange(address applicant, uint256 amount) public onlyBureaucrat\r\n    {\r\n        require(participants[applicant].provisionChangeRequested, \"No provision change has been requested for this applicant\");\r\n        participants[applicant].provisionChangeRequested = false;\r\n        transferTickets(applicant, amount);\r\n        emit ProvisionChangeApproved(applicant, amount);\r\n    }\r\n    \r\n    function denyProvisionChange(address applicant) public onlyBureaucrat\r\n    {\r\n        require(participants[applicant].provisionChangeRequested, \"No provision change has been requested for this applicant\");\r\n        participants[applicant].provisionChangeRequested = false;\r\n        emit ProvisionChangeDenied(applicant, participants[applicant].balance);\r\n    }\r\n    \r\n    function setMagicNumber(uint256 magicNumber) public onlyMerchant\r\n    {\r\n        require(magicNumber >= 0, \"Magic number must be non-negative\");\r\n        participants[msg.sender].magicNumber = magicNumber;\r\n        emit MagicNumberSet(msg.sender, magicNumber);\r\n    }\r\n}",
  "sourcePath": "D:\\spring 23\\blockchain\\SANPonBlockchain\\contracts\\migrations.sol",
  "compiler": {
    "name": "solc",
    "version": "0.5.16+commit.9c3226ce.Emscripten.clang"
  },
  "schemaVersion": "3.4.13",
  "updatedAt": "2023-04-28T01:00:07.540Z",
  "networkType": "ethereum",
  "devdoc": {
    "methods": {}
  },
  "userdoc": {
    "methods": {}
  }
}