{
  "contractName": "migrations",
  "abi": [
    {
      "inputs": [],
      "stateMutability": "nonpayable",
      "type": "constructor"
    },
    {
      "anonymous": false,
      "inputs": [
        {
          "indexed": true,
          "internalType": "address",
          "name": "user",
          "type": "address"
        }
      ],
      "name": "ApplicantRegister",
      "type": "event"
    },
    {
      "anonymous": false,
      "inputs": [
        {
          "indexed": true,
          "internalType": "address",
          "name": "merchant",
          "type": "address"
        },
        {
          "indexed": false,
          "internalType": "uint256",
          "name": "magicNumber",
          "type": "uint256"
        }
      ],
      "name": "MagicNumberSet",
      "type": "event"
    },
    {
      "anonymous": false,
      "inputs": [
        {
          "indexed": true,
          "internalType": "address",
          "name": "merchant",
          "type": "address"
        }
      ],
      "name": "MerchantRegister",
      "type": "event"
    },
    {
      "anonymous": false,
      "inputs": [
        {
          "indexed": true,
          "internalType": "address",
          "name": "applicant",
          "type": "address"
        },
        {
          "indexed": false,
          "internalType": "uint256",
          "name": "newBalance",
          "type": "uint256"
        }
      ],
      "name": "ProvisionChangeApproved",
      "type": "event"
    },
    {
      "anonymous": false,
      "inputs": [
        {
          "indexed": true,
          "internalType": "address",
          "name": "applicant",
          "type": "address"
        },
        {
          "indexed": false,
          "internalType": "uint256",
          "name": "newBalance",
          "type": "uint256"
        }
      ],
      "name": "ProvisionChangeDenied",
      "type": "event"
    },
    {
      "anonymous": false,
      "inputs": [
        {
          "indexed": true,
          "internalType": "address",
          "name": "applicant",
          "type": "address"
        },
        {
          "indexed": false,
          "internalType": "uint256",
          "name": "newBalance",
          "type": "uint256"
        }
      ],
      "name": "ProvisionChangeRequested",
      "type": "event"
    },
    {
      "anonymous": false,
      "inputs": [
        {
          "indexed": true,
          "internalType": "address",
          "name": "from",
          "type": "address"
        },
        {
          "indexed": true,
          "internalType": "address",
          "name": "to",
          "type": "address"
        },
        {
          "indexed": false,
          "internalType": "uint256",
          "name": "amount",
          "type": "uint256"
        }
      ],
      "name": "TicketTransferred",
      "type": "event"
    },
    {
      "inputs": [],
      "name": "bureaucrat",
      "outputs": [
        {
          "internalType": "address",
          "name": "",
          "type": "address"
        }
      ],
      "stateMutability": "view",
      "type": "function"
    },
    {
      "inputs": [
        {
          "internalType": "address",
          "name": "",
          "type": "address"
        }
      ],
      "name": "merchants",
      "outputs": [
        {
          "internalType": "bool",
          "name": "",
          "type": "bool"
        }
      ],
      "stateMutability": "view",
      "type": "function"
    },
    {
      "inputs": [
        {
          "internalType": "address",
          "name": "",
          "type": "address"
        }
      ],
      "name": "participants",
      "outputs": [
        {
          "internalType": "uint256",
          "name": "balance",
          "type": "uint256"
        },
        {
          "internalType": "uint256",
          "name": "magicNumber",
          "type": "uint256"
        },
        {
          "internalType": "bool",
          "name": "provisionChangeRequested",
          "type": "bool"
        }
      ],
      "stateMutability": "view",
      "type": "function"
    },
    {
      "inputs": [
        {
          "internalType": "address",
          "name": "",
          "type": "address"
        }
      ],
      "name": "users",
      "outputs": [
        {
          "internalType": "bool",
          "name": "",
          "type": "bool"
        }
      ],
      "stateMutability": "view",
      "type": "function"
    },
    {
      "inputs": [],
      "name": "registerApplicant",
      "outputs": [],
      "stateMutability": "nonpayable",
      "type": "function"
    },
    {
      "inputs": [],
      "name": "registerMerchant",
      "outputs": [],
      "stateMutability": "nonpayable",
      "type": "function"
    },
    {
      "inputs": [
        {
          "internalType": "address",
          "name": "to",
          "type": "address"
        },
        {
          "internalType": "uint256",
          "name": "amount",
          "type": "uint256"
        }
      ],
      "name": "transferTickets",
      "outputs": [],
      "stateMutability": "nonpayable",
      "type": "function"
    },
    {
      "inputs": [
        {
          "internalType": "uint256",
          "name": "amount",
          "type": "uint256"
        }
      ],
      "name": "requestProvisionChange",
      "outputs": [],
      "stateMutability": "nonpayable",
      "type": "function"
    },
    {
      "inputs": [
        {
          "internalType": "address",
          "name": "applicant",
          "type": "address"
        },
        {
          "internalType": "uint256",
          "name": "amount",
          "type": "uint256"
        }
      ],
      "name": "approveProvisionChange",
      "outputs": [],
      "stateMutability": "nonpayable",
      "type": "function"
    },
    {
      "inputs": [
        {
          "internalType": "address",
          "name": "applicant",
          "type": "address"
        }
      ],
      "name": "denyProvisionChange",
      "outputs": [],
      "stateMutability": "nonpayable",
      "type": "function"
    },
    {
      "inputs": [
        {
          "internalType": "uint256",
          "name": "magicNumber",
          "type": "uint256"
        }
      ],
      "name": "setMagicNumber",
      "outputs": [],
      "stateMutability": "nonpayable",
      "type": "function"
    }
  ],
  "bytecode": "0x608060405234801561001057600080fd5b50336000806101000a81548173ffffffffffffffffffffffffffffffffffffffff021916908373ffffffffffffffffffffffffffffffffffffffff1602179055506001600260003373ffffffffffffffffffffffffffffffffffffffff1673ffffffffffffffffffffffffffffffffffffffff16815260200190815260200160002060006101000a81548160ff02191690831515021790555061155f806100b86000396000f3fe608060405234801561001057600080fd5b50600436106100a95760003560e01c806345206196116100715780634520619614610152578063540e2bff1461015c57806355dabe4214610178578063a87430ba14610182578063ab122a67146101b2578063ee14e939146101ce576100a9565b806309e69ede146100ae5780632ba2ed98146100e0578063323a9beb146100fc57806339c7eac81461011857806342f22d2e14610136575b600080fd5b6100c860048036038101906100c39190610f18565b6101fe565b6040516100d793929190610f79565b60405180910390f35b6100fa60048036038101906100f59190610fdc565b610235565b005b61011660048036038101906101119190611009565b61039d565b005b6101206105b3565b60405161012d9190611058565b60405180910390f35b610150600480360381019061014b9190610fdc565b6105d7565b005b61015a610757565b005b61017660048036038101906101719190610f18565b610881565b005b610180610a8c565b005b61019c60048036038101906101979190610f18565b610ca1565b6040516101a99190611073565b60405180910390f35b6101cc60048036038101906101c79190611009565b610cc1565b005b6101e860048036038101906101e39190610f18565b610e95565b6040516101f59190611073565b60405180910390f35b60016020528060005260406000206000915090508060000154908060010154908060020160009054906101000a900460ff16905083565b600360003373ffffffffffffffffffffffffffffffffffffffff1673ffffffffffffffffffffffffffffffffffffffff16815260200190815260200160002060009054906101000a900460ff166102c1576040517f08c379a00000000000000000000000000000000000000000000000000000000081526004016102b890611111565b60405180910390fd5b6000811015610305576040517f08c379a00000000000000000000000000000000000000000000000000000000081526004016102fc906111a3565b60405180910390fd5b80600160003373ffffffffffffffffffffffffffffffffffffffff1673ffffffffffffffffffffffffffffffffffffffff168152602001908152602001600020600101819055503373ffffffffffffffffffffffffffffffffffffffff167f1ac19207c0953072a214e2dcd4fe07d08463d0ac91b3e0a26dc1c4b2791eebc58260405161039291906111c3565b60405180910390a250565b80600160003373ffffffffffffffffffffffffffffffffffffffff1673ffffffffffffffffffffffffffffffffffffffff168152602001908152602001600020600001541015610422576040517f08c379a000000000000000000000000000000000000000000000000000000000815260040161041990611250565b60405180910390fd5b80600160003373ffffffffffffffffffffffffffffffffffffffff1673ffffffffffffffffffffffffffffffffffffffff16815260200190815260200160002060000154610470919061129f565b600160003373ffffffffffffffffffffffffffffffffffffffff1673ffffffffffffffffffffffffffffffffffffffff1681526020019081526020016000206000018190555080600160008473ffffffffffffffffffffffffffffffffffffffff1673ffffffffffffffffffffffffffffffffffffffff1681526020019081526020016000206000015461050491906112d3565b600160008473ffffffffffffffffffffffffffffffffffffffff1673ffffffffffffffffffffffffffffffffffffffff168152602001908152602001600020600001819055508173ffffffffffffffffffffffffffffffffffffffff163373ffffffffffffffffffffffffffffffffffffffff167f17fe3deddce525fa12700a731e77ea94c319000ee656076e9e3f0d21638db766836040516105a791906111c3565b60405180910390a35050565b60008054906101000a900473ffffffffffffffffffffffffffffffffffffffff1681565b600360003373ffffffffffffffffffffffffffffffffffffffff1673ffffffffffffffffffffffffffffffffffffffff16815260200190815260200160002060009054906101000a900460ff1615610664576040517f08c379a000000000000000000000000000000000000000000000000000000000815260040161065b90611379565b60405180910390fd5b60018060003373ffffffffffffffffffffffffffffffffffffffff1673ffffffffffffffffffffffffffffffffffffffff16815260200190815260200160002060020160006101000a81548160ff0219169083151502179055506000600160003373ffffffffffffffffffffffffffffffffffffffff1673ffffffffffffffffffffffffffffffffffffffff168152602001908152602001600020600101819055503373ffffffffffffffffffffffffffffffffffffffff167f76c9bf738b77d20721ea9c3139fdc342d5672119f1304193fe55915d37ed883f8260405161074c91906111c3565b60405180910390a250565b600360003373ffffffffffffffffffffffffffffffffffffffff1673ffffffffffffffffffffffffffffffffffffffff16815260200190815260200160002060009054906101000a900460ff16156107e4576040517f08c379a00000000000000000000000000000000000000000000000000000000081526004016107db906113e5565b60405180910390fd5b6001600360003373ffffffffffffffffffffffffffffffffffffffff1673ffffffffffffffffffffffffffffffffffffffff16815260200190815260200160002060006101000a81548160ff0219169083151502179055503373ffffffffffffffffffffffffffffffffffffffff167f92b082de749f0ebd44fd01ce4acab93bf014fab9d1a385c57a6c5ad8d9d29af560405160405180910390a2565b60008054906101000a900473ffffffffffffffffffffffffffffffffffffffff1673ffffffffffffffffffffffffffffffffffffffff163373ffffffffffffffffffffffffffffffffffffffff161461090f576040517f08c379a000000000000000000000000000000000000000000000000000000000815260040161090690611477565b60405180910390fd5b600160008273ffffffffffffffffffffffffffffffffffffffff1673ffffffffffffffffffffffffffffffffffffffff16815260200190815260200160002060020160009054906101000a900460ff1661099e576040517f08c379a000000000000000000000000000000000000000000000000000000000815260040161099590611509565b60405180910390fd5b6000600160008373ffffffffffffffffffffffffffffffffffffffff1673ffffffffffffffffffffffffffffffffffffffff16815260200190815260200160002060020160006101000a81548160ff0219169083151502179055508073ffffffffffffffffffffffffffffffffffffffff167fe4f86d8b20ded56c3d91ef1e193b47f16579b01d7713d1948bc4fc1a96bb85ee600160008473ffffffffffffffffffffffffffffffffffffffff1673ffffffffffffffffffffffffffffffffffffffff16815260200190815260200160002060000154604051610a8191906111c3565b60405180910390a250565b600260003373ffffffffffffffffffffffffffffffffffffffff1673ffffffffffffffffffffffffffffffffffffffff16815260200190815260200160002060009054906101000a900460ff1615610b19576040517f08c379a0000000000000000000000000000000000000000000000000000000008152600401610b10906113e5565b60405180910390fd5b6001600260003373ffffffffffffffffffffffffffffffffffffffff1673ffffffffffffffffffffffffffffffffffffffff16815260200190815260200160002060006101000a81548160ff0219169083151502179055506000600160003373ffffffffffffffffffffffffffffffffffffffff1673ffffffffffffffffffffffffffffffffffffffff168152602001908152602001600020600001819055506000600160003373ffffffffffffffffffffffffffffffffffffffff1673ffffffffffffffffffffffffffffffffffffffff168152602001908152602001600020600101819055506000600160003373ffffffffffffffffffffffffffffffffffffffff1673ffffffffffffffffffffffffffffffffffffffff16815260200190815260200160002060020160006101000a81548160ff0219169083151502179055503373ffffffffffffffffffffffffffffffffffffffff167fda626996b6a73d01583af35f00e8f523759cebc5f4865edf77713226e9b171d660405160405180910390a2565b60026020528060005260406000206000915054906101000a900460ff1681565b60008054906101000a900473ffffffffffffffffffffffffffffffffffffffff1673ffffffffffffffffffffffffffffffffffffffff163373ffffffffffffffffffffffffffffffffffffffff1614610d4f576040517f08c379a0000000000000000000000000000000000000000000000000000000008152600401610d4690611477565b60405180910390fd5b600160008373ffffffffffffffffffffffffffffffffffffffff1673ffffffffffffffffffffffffffffffffffffffff16815260200190815260200160002060020160009054906101000a900460ff16610dde576040517f08c379a0000000000000000000000000000000000000000000000000000000008152600401610dd590611509565b60405180910390fd5b6000600160008473ffffffffffffffffffffffffffffffffffffffff1673ffffffffffffffffffffffffffffffffffffffff16815260200190815260200160002060020160006101000a81548160ff021916908315150217905550610e43828261039d565b8173ffffffffffffffffffffffffffffffffffffffff167fa7fd4c2c107f3175f3edaf03e890236470b5a476e508d010314dacc7572df9cd82604051610e8991906111c3565b60405180910390a25050565b60036020528060005260406000206000915054906101000a900460ff1681565b600080fd5b600073ffffffffffffffffffffffffffffffffffffffff82169050919050565b6000610ee582610eba565b9050919050565b610ef581610eda565b8114610f0057600080fd5b50565b600081359050610f1281610eec565b92915050565b600060208284031215610f2e57610f2d610eb5565b5b6000610f3c84828501610f03565b91505092915050565b6000819050919050565b610f5881610f45565b82525050565b60008115159050919050565b610f7381610f5e565b82525050565b6000606082019050610f8e6000830186610f4f565b610f9b6020830185610f4f565b610fa86040830184610f6a565b949350505050565b610fb981610f45565b8114610fc457600080fd5b50565b600081359050610fd681610fb0565b92915050565b600060208284031215610ff257610ff1610eb5565b5b600061100084828501610fc7565b91505092915050565b600080604083850312156110205761101f610eb5565b5b600061102e85828601610f03565b925050602061103f85828601610fc7565b9150509250929050565b61105281610eda565b82525050565b600060208201905061106d6000830184611049565b92915050565b60006020820190506110886000830184610f6a565b92915050565b600082825260208201905092915050565b7f4f6e6c79206d65726368616e74732063616e20706572666f726d20746869732060008201527f616374696f6e0000000000000000000000000000000000000000000000000000602082015250565b60006110fb60268361108e565b91506111068261109f565b604082019050919050565b6000602082019050818103600083015261112a816110ee565b9050919050565b7f4d61676963206e756d626572206d757374206265206e6f6e2d6e65676174697660008201527f6500000000000000000000000000000000000000000000000000000000000000602082015250565b600061118d60218361108e565b915061119882611131565b604082019050919050565b600060208201905081810360008301526111bc81611180565b9050919050565b60006020820190506111d86000830184610f4f565b92915050565b7f596f7520646f206e6f74206861766520656e6f756768207469636b657473207460008201527f6f20706572666f726d2074686973207472616e73666572000000000000000000602082015250565b600061123a60378361108e565b9150611245826111de565b604082019050919050565b600060208201905081810360008301526112698161122d565b9050919050565b7f4e487b7100000000000000000000000000000000000000000000000000000000600052601160045260246000fd5b60006112aa82610f45565b91506112b583610f45565b92508282039050818111156112cd576112cc611270565b5b92915050565b60006112de82610f45565b91506112e983610f45565b925082820190508082111561130157611300611270565b5b92915050565b7f596f75206d75737420686176652061206e6f742062652061206d65726368616e60008201527f7420746f20706572666f726d207468697320616374696f6e0000000000000000602082015250565b600061136360388361108e565b915061136e82611307565b604082019050919050565b6000602082019050818103600083015261139281611356565b9050919050565b7f596f752061726520616c72656164792072656769737465726564000000000000600082015250565b60006113cf601a8361108e565b91506113da82611399565b602082019050919050565b600060208201905081810360008301526113fe816113c2565b9050919050565b7f4f6e6c792074686520627572656175637261742063616e20706572666f726d2060008201527f7468697320616374696f6e000000000000000000000000000000000000000000602082015250565b6000611461602b8361108e565b915061146c82611405565b604082019050919050565b6000602082019050818103600083015261149081611454565b9050919050565b7f4e6f2070726f766973696f6e206368616e676520686173206265656e2072657160008201527f75657374656420666f722074686973206170706c6963616e7400000000000000602082015250565b60006114f360398361108e565b91506114fe82611497565b604082019050919050565b60006020820190508181036000830152611522816114e6565b905091905056fea2646970667358221220e8ae1c96bee35f4d1f7f318a056d6529fe5e659b9c204342d0d208c7574a6b8f64736f6c63430008110033",
  "immutableReferences": {},
  "source": "//SPDX-License-Identifier: UNLICENSED\r\npragma solidity >=0.8.17;\r\ncontract migrations {\r\n    address public bureaucrat;\r\n    \r\n    struct Applicant\r\n    {\r\n        uint256 balance;\r\n        uint256 magicNumber;\r\n        bool provisionChangeRequested;\r\n    }\r\n    \r\n    mapping(address => Applicant) public participants;\r\n    mapping(address => bool) public users;\r\n    mapping(address => bool) public merchants;\r\n    \r\n    event TicketTransferred(address indexed from, address indexed to, uint256 amount);\r\n    event ProvisionChangeRequested(address indexed applicant, uint256 newBalance);\r\n    event ProvisionChangeApproved(address indexed applicant, uint256 newBalance);\r\n    event ProvisionChangeDenied(address indexed applicant, uint256 newBalance);\r\n    event MagicNumberSet(address indexed merchant, uint256 magicNumber);\r\n    event ApplicantRegister(address indexed user);\r\n    event MerchantRegister(address indexed merchant);\r\n    \r\n    constructor() public\r\n    {\r\n        bureaucrat = msg.sender;\r\n        users[msg.sender] = true;\r\n    }\r\n    \r\n    modifier onlyBureaucrat()\r\n    {\r\n        require(msg.sender == bureaucrat, \"Only the bureaucrat can perform this action\");\r\n        _;\r\n    }\r\n    \r\n    modifier onlyApplicant()\r\n    {\r\n        require(!merchants[msg.sender], \"You must have a not be a merchant to perform this action\");\r\n        _;\r\n    }\r\n    \r\n    modifier onlyMerchant()\r\n    {\r\n        require(merchants[msg.sender], \"Only merchants can perform this action\");\r\n        _;\r\n    }\r\n    \r\n    function registerApplicant() public\r\n    {\r\n        require(!users[msg.sender], \"You are already registered\");\r\n        \r\n        users[msg.sender] = true;\r\n        participants[msg.sender].balance = 0;\r\n        participants[msg.sender].magicNumber = 0;\r\n        participants[msg.sender].provisionChangeRequested = false;\r\n        emit ApplicantRegister(msg.sender);\r\n    }\r\n\r\n    function registerMerchant() public\r\n    {\r\n        require(!merchants[msg.sender], \"You are already registered\");\r\n        merchants[msg.sender] = true;\r\n        emit MerchantRegister(msg.sender);\r\n    }\r\n\r\n    function transferTickets(address to, uint256 amount) public\r\n    {\r\n        require(participants[msg.sender].balance >= amount, \"You do not have enough tickets to perform this transfer\");\r\n        participants[msg.sender].balance = participants[msg.sender].balance - amount;\r\n        participants[to].balance = participants[to].balance + amount;\r\n        emit TicketTransferred(msg.sender, to, amount);\r\n    }\r\n    \r\n    function requestProvisionChange(uint256 amount) public onlyApplicant\r\n    {\r\n        participants[msg.sender].provisionChangeRequested = true;\r\n        participants[msg.sender].magicNumber = 0;\r\n        emit ProvisionChangeRequested(msg.sender, amount);\r\n    }\r\n    \r\n    function approveProvisionChange(address applicant, uint256 amount) public onlyBureaucrat\r\n    {\r\n        require(participants[applicant].provisionChangeRequested, \"No provision change has been requested for this applicant\");\r\n        participants[applicant].provisionChangeRequested = false;\r\n        transferTickets(applicant, amount);\r\n        emit ProvisionChangeApproved(applicant, amount);\r\n    }\r\n    \r\n    function denyProvisionChange(address applicant) public onlyBureaucrat\r\n    {\r\n        require(participants[applicant].provisionChangeRequested, \"No provision change has been requested for this applicant\");\r\n        participants[applicant].provisionChangeRequested = false;\r\n        emit ProvisionChangeDenied(applicant, participants[applicant].balance);\r\n    }\r\n    \r\n    function setMagicNumber(uint256 magicNumber) public onlyMerchant\r\n    {\r\n        require(magicNumber >= 0, \"Magic number must be non-negative\");\r\n        participants[msg.sender].magicNumber = magicNumber;\r\n        emit MagicNumberSet(msg.sender, magicNumber);\r\n    }\r\n}",
  "sourcePath": "D:\\spring 23\\blockchain\\SANPonBlockchain\\contracts\\migrations.sol",
  "compiler": {
    "name": "solc",
    "version": "0.8.17+commit.8df45f5f.Emscripten.clang"
  },
  "schemaVersion": "3.4.13",
  "updatedAt": "2023-04-29T19:51:55.103Z",
  "networkType": "ethereum",
  "devdoc": {
    "kind": "dev",
    "methods": {},
    "version": 1
  },
  "userdoc": {
    "kind": "user",
    "methods": {},
    "version": 1
  }
}