{
  "contractName": "SNAP",
  "abi": [
    {
      "inputs": [],
      "stateMutability": "nonpayable",
      "type": "constructor"
    },
    {
      "anonymous": false,
      "inputs": [
        {
          "indexed": true,
          "internalType": "address",
          "name": "user",
          "type": "address"
        }
      ],
      "name": "ApplicantRegister",
      "type": "event"
    },
    {
      "anonymous": false,
      "inputs": [
        {
          "indexed": true,
          "internalType": "address",
          "name": "owner",
          "type": "address"
        },
        {
          "indexed": true,
          "internalType": "address",
          "name": "approved",
          "type": "address"
        },
        {
          "indexed": true,
          "internalType": "uint256",
          "name": "tokenId",
          "type": "uint256"
        }
      ],
      "name": "Approval",
      "type": "event"
    },
    {
      "anonymous": false,
      "inputs": [
        {
          "indexed": true,
          "internalType": "address",
          "name": "owner",
          "type": "address"
        },
        {
          "indexed": true,
          "internalType": "address",
          "name": "operator",
          "type": "address"
        },
        {
          "indexed": false,
          "internalType": "bool",
          "name": "approved",
          "type": "bool"
        }
      ],
      "name": "ApprovalForAll",
      "type": "event"
    },
    {
      "anonymous": false,
      "inputs": [
        {
          "indexed": true,
          "internalType": "address",
          "name": "merchant",
          "type": "address"
        },
        {
          "indexed": false,
          "internalType": "uint256",
          "name": "magicNumber",
          "type": "uint256"
        }
      ],
      "name": "MagicNumberSet",
      "type": "event"
    },
    {
      "anonymous": false,
      "inputs": [
        {
          "indexed": true,
          "internalType": "address",
          "name": "merchants",
          "type": "address"
        }
      ],
      "name": "MerchantRegister",
      "type": "event"
    },
    {
      "anonymous": false,
      "inputs": [
        {
          "indexed": true,
          "internalType": "address",
          "name": "applicant",
          "type": "address"
        },
        {
          "indexed": false,
          "internalType": "string",
          "name": "mealTicket",
          "type": "string"
        }
      ],
      "name": "ProvisionChangeApproved",
      "type": "event"
    },
    {
      "anonymous": false,
      "inputs": [
        {
          "indexed": true,
          "internalType": "address",
          "name": "applicant",
          "type": "address"
        },
        {
          "indexed": false,
          "internalType": "uint256",
          "name": "newBalance",
          "type": "uint256"
        }
      ],
      "name": "ProvisionChangeDenied",
      "type": "event"
    },
    {
      "anonymous": false,
      "inputs": [
        {
          "indexed": true,
          "internalType": "address",
          "name": "applicant",
          "type": "address"
        },
        {
          "indexed": false,
          "internalType": "string",
          "name": "mealRequested",
          "type": "string"
        }
      ],
      "name": "ProvisionChangeRequested",
      "type": "event"
    },
    {
      "anonymous": false,
      "inputs": [
        {
          "indexed": true,
          "internalType": "address",
          "name": "from",
          "type": "address"
        },
        {
          "indexed": true,
          "internalType": "address",
          "name": "to",
          "type": "address"
        },
        {
          "indexed": false,
          "internalType": "uint256",
          "name": "amount",
          "type": "uint256"
        }
      ],
      "name": "TicketTransferred",
      "type": "event"
    },
    {
      "anonymous": false,
      "inputs": [
        {
          "indexed": true,
          "internalType": "address",
          "name": "from",
          "type": "address"
        },
        {
          "indexed": true,
          "internalType": "address",
          "name": "to",
          "type": "address"
        },
        {
          "indexed": true,
          "internalType": "uint256",
          "name": "tokenId",
          "type": "uint256"
        }
      ],
      "name": "Transfer",
      "type": "event"
    },
    {
      "inputs": [
        {
          "internalType": "address",
          "name": "to",
          "type": "address"
        },
        {
          "internalType": "uint256",
          "name": "tokenId",
          "type": "uint256"
        }
      ],
      "name": "approve",
      "outputs": [],
      "stateMutability": "nonpayable",
      "type": "function"
    },
    {
      "inputs": [
        {
          "internalType": "address",
          "name": "owner",
          "type": "address"
        }
      ],
      "name": "balanceOf",
      "outputs": [
        {
          "internalType": "uint256",
          "name": "",
          "type": "uint256"
        }
      ],
      "stateMutability": "view",
      "type": "function",
      "constant": true
    },
    {
      "inputs": [],
      "name": "bureaucrat",
      "outputs": [
        {
          "internalType": "address",
          "name": "",
          "type": "address"
        }
      ],
      "stateMutability": "view",
      "type": "function",
      "constant": true
    },
    {
      "inputs": [
        {
          "internalType": "uint256",
          "name": "tokenId",
          "type": "uint256"
        }
      ],
      "name": "getApproved",
      "outputs": [
        {
          "internalType": "address",
          "name": "",
          "type": "address"
        }
      ],
      "stateMutability": "view",
      "type": "function",
      "constant": true
    },
    {
      "inputs": [
        {
          "internalType": "address",
          "name": "owner",
          "type": "address"
        },
        {
          "internalType": "address",
          "name": "operator",
          "type": "address"
        }
      ],
      "name": "isApprovedForAll",
      "outputs": [
        {
          "internalType": "bool",
          "name": "",
          "type": "bool"
        }
      ],
      "stateMutability": "view",
      "type": "function",
      "constant": true
    },
    {
      "inputs": [
        {
          "internalType": "uint256",
          "name": "",
          "type": "uint256"
        }
      ],
      "name": "meal",
      "outputs": [
        {
          "internalType": "string",
          "name": "",
          "type": "string"
        }
      ],
      "stateMutability": "view",
      "type": "function",
      "constant": true
    },
    {
      "inputs": [
        {
          "internalType": "address",
          "name": "",
          "type": "address"
        }
      ],
      "name": "merchants",
      "outputs": [
        {
          "internalType": "bool",
          "name": "",
          "type": "bool"
        }
      ],
      "stateMutability": "view",
      "type": "function",
      "constant": true
    },
    {
      "inputs": [],
      "name": "name",
      "outputs": [
        {
          "internalType": "string",
          "name": "",
          "type": "string"
        }
      ],
      "stateMutability": "view",
      "type": "function",
      "constant": true
    },
    {
      "inputs": [
        {
          "internalType": "uint256",
          "name": "tokenId",
          "type": "uint256"
        }
      ],
      "name": "ownerOf",
      "outputs": [
        {
          "internalType": "address",
          "name": "",
          "type": "address"
        }
      ],
      "stateMutability": "view",
      "type": "function",
      "constant": true
    },
    {
      "inputs": [
        {
          "internalType": "address",
          "name": "",
          "type": "address"
        }
      ],
      "name": "participants",
      "outputs": [
        {
          "internalType": "uint256",
          "name": "balance",
          "type": "uint256"
        },
        {
          "internalType": "uint256",
          "name": "magicNumber",
          "type": "uint256"
        },
        {
          "internalType": "bool",
          "name": "provisionChangeRequested",
          "type": "bool"
        },
        {
          "internalType": "string",
          "name": "openRequestMeal",
          "type": "string"
        }
      ],
      "stateMutability": "view",
      "type": "function",
      "constant": true
    },
    {
      "inputs": [
        {
          "internalType": "address",
          "name": "from",
          "type": "address"
        },
        {
          "internalType": "address",
          "name": "to",
          "type": "address"
        },
        {
          "internalType": "uint256",
          "name": "tokenId",
          "type": "uint256"
        }
      ],
      "name": "safeTransferFrom",
      "outputs": [],
      "stateMutability": "nonpayable",
      "type": "function"
    },
    {
      "inputs": [
        {
          "internalType": "address",
          "name": "from",
          "type": "address"
        },
        {
          "internalType": "address",
          "name": "to",
          "type": "address"
        },
        {
          "internalType": "uint256",
          "name": "tokenId",
          "type": "uint256"
        },
        {
          "internalType": "bytes",
          "name": "data",
          "type": "bytes"
        }
      ],
      "name": "safeTransferFrom",
      "outputs": [],
      "stateMutability": "nonpayable",
      "type": "function"
    },
    {
      "inputs": [
        {
          "internalType": "address",
          "name": "operator",
          "type": "address"
        },
        {
          "internalType": "bool",
          "name": "approved",
          "type": "bool"
        }
      ],
      "name": "setApprovalForAll",
      "outputs": [],
      "stateMutability": "nonpayable",
      "type": "function"
    },
    {
      "inputs": [
        {
          "internalType": "bytes4",
          "name": "interfaceId",
          "type": "bytes4"
        }
      ],
      "name": "supportsInterface",
      "outputs": [
        {
          "internalType": "bool",
          "name": "",
          "type": "bool"
        }
      ],
      "stateMutability": "view",
      "type": "function",
      "constant": true
    },
    {
      "inputs": [],
      "name": "symbol",
      "outputs": [
        {
          "internalType": "string",
          "name": "",
          "type": "string"
        }
      ],
      "stateMutability": "view",
      "type": "function",
      "constant": true
    },
    {
      "inputs": [
        {
          "internalType": "uint256",
          "name": "tokenId",
          "type": "uint256"
        }
      ],
      "name": "tokenURI",
      "outputs": [
        {
          "internalType": "string",
          "name": "",
          "type": "string"
        }
      ],
      "stateMutability": "view",
      "type": "function",
      "constant": true
    },
    {
      "inputs": [
        {
          "internalType": "address",
          "name": "from",
          "type": "address"
        },
        {
          "internalType": "address",
          "name": "to",
          "type": "address"
        },
        {
          "internalType": "uint256",
          "name": "tokenId",
          "type": "uint256"
        }
      ],
      "name": "transferFrom",
      "outputs": [],
      "stateMutability": "nonpayable",
      "type": "function"
    },
    {
      "inputs": [
        {
          "internalType": "address",
          "name": "",
          "type": "address"
        }
      ],
      "name": "users",
      "outputs": [
        {
          "internalType": "bool",
          "name": "",
          "type": "bool"
        }
      ],
      "stateMutability": "view",
      "type": "function",
      "constant": true
    },
    {
      "inputs": [],
      "name": "registerApplicant",
      "outputs": [],
      "stateMutability": "nonpayable",
      "type": "function"
    },
    {
      "inputs": [],
      "name": "registerMerchant",
      "outputs": [],
      "stateMutability": "nonpayable",
      "type": "function"
    },
    {
      "inputs": [
        {
          "internalType": "address",
          "name": "to",
          "type": "address"
        },
        {
          "internalType": "string",
          "name": "mealToBuy",
          "type": "string"
        }
      ],
      "name": "transferTickets",
      "outputs": [],
      "stateMutability": "nonpayable",
      "type": "function"
    },
    {
      "inputs": [
        {
          "internalType": "string",
          "name": "mealRequested",
          "type": "string"
        }
      ],
      "name": "requestProvisionChange",
      "outputs": [],
      "stateMutability": "nonpayable",
      "type": "function"
    },
    {
      "inputs": [
        {
          "internalType": "address",
          "name": "applicant",
          "type": "address"
        }
      ],
      "name": "approveProvisionChange",
      "outputs": [],
      "stateMutability": "nonpayable",
      "type": "function"
    },
    {
      "inputs": [
        {
          "internalType": "address",
          "name": "applicant",
          "type": "address"
        }
      ],
      "name": "mint",
      "outputs": [],
      "stateMutability": "nonpayable",
      "type": "function"
    },
    {
      "inputs": [
        {
          "internalType": "address",
          "name": "applicant",
          "type": "address"
        }
      ],
      "name": "denyProvisionChange",
      "outputs": [],
      "stateMutability": "nonpayable",
      "type": "function"
    },
    {
      "inputs": [
        {
          "internalType": "uint256",
          "name": "magicNumber",
          "type": "uint256"
        }
      ],
      "name": "setMagicNumber",
      "outputs": [],
      "stateMutability": "nonpayable",
      "type": "function"
    },
    {
      "inputs": [
        {
          "internalType": "address",
          "name": "owner",
          "type": "address"
        }
      ],
      "name": "getTokenId",
      "outputs": [
        {
          "internalType": "uint256[]",
          "name": "",
          "type": "uint256[]"
        }
      ],
      "stateMutability": "view",
      "type": "function",
      "constant": true
    },
    {
      "inputs": [
        {
          "internalType": "address",
          "name": "owner",
          "type": "address"
        }
      ],
      "name": "getMealsOwned",
      "outputs": [
        {
          "internalType": "string[]",
          "name": "",
          "type": "string[]"
        }
      ],
      "stateMutability": "view",
      "type": "function",
      "constant": true
    }
  ],
  "bytecode": "0x608060405260006009553480156200001657600080fd5b506040518060400160405280600481526020017f4d65616c000000000000000000000000000000000000000000000000000000008152506040518060400160405280600481526020017f4d45414c000000000000000000000000000000000000000000000000000000008152508160009081620000949190620003c2565b508060019081620000a69190620003c2565b50505033600660006101000a81548173ffffffffffffffffffffffffffffffffffffffff021916908373ffffffffffffffffffffffffffffffffffffffff1602179055506001600b60003373ffffffffffffffffffffffffffffffffffffffff1673ffffffffffffffffffffffffffffffffffffffff16815260200190815260200160002060006101000a81548160ff021916908315150217905550620004a9565b600081519050919050565b7f4e487b7100000000000000000000000000000000000000000000000000000000600052604160045260246000fd5b7f4e487b7100000000000000000000000000000000000000000000000000000000600052602260045260246000fd5b60006002820490506001821680620001ca57607f821691505b602082108103620001e057620001df62000182565b5b50919050565b60008190508160005260206000209050919050565b60006020601f8301049050919050565b600082821b905092915050565b6000600883026200024a7fffffffffffffffffffffffffffffffffffffffffffffffffffffffffffffffff826200020b565b6200025686836200020b565b95508019841693508086168417925050509392505050565b6000819050919050565b6000819050919050565b6000620002a36200029d62000297846200026e565b62000278565b6200026e565b9050919050565b6000819050919050565b620002bf8362000282565b620002d7620002ce82620002aa565b84845462000218565b825550505050565b600090565b620002ee620002df565b620002fb818484620002b4565b505050565b5b81811015620003235762000317600082620002e4565b60018101905062000301565b5050565b601f82111562000372576200033c81620001e6565b6200034784620001fb565b8101602085101562000357578190505b6200036f6200036685620001fb565b83018262000300565b50505b505050565b600082821c905092915050565b6000620003976000198460080262000377565b1980831691505092915050565b6000620003b2838362000384565b9150826002028217905092915050565b620003cd8262000148565b67ffffffffffffffff811115620003e957620003e862000153565b5b620003f58254620001b1565b6200040282828562000327565b600060209050601f8311600181146200043a576000841562000425578287015190505b620004318582620003a4565b865550620004a1565b601f1984166200044a86620001e6565b60005b8281101562000474578489015182556001820191506020850194506020810190506200044d565b8683101562000494578489015162000490601f89168262000384565b8355505b6001600288020188555050505b505050505050565b614a2e80620004b96000396000f3fe608060405234801561001057600080fd5b50600436106101c45760003560e01c80636352211e116100f9578063a87430ba11610097578063c87b56dd11610071578063c87b56dd146104ee578063e985e9c51461051e578063ee14e9391461054e578063f15376861461057e576101c4565b8063a87430ba14610472578063acd310d5146104a2578063b88d4fde146104d2576101c4565b806370a08231116100d357806370a08231146103ec5780637f8f23591461041c57806395d89b4114610438578063a22cb46514610456576101c4565b80636352211e14610370578063659135dd146103a05780636a627842146103d0576101c4565b80632ba2ed981161016657806342842e0e1161014057806342842e0e146103245780634520619614610340578063540e2bff1461034a57806355dabe4214610366576101c4565b80632ba2ed98146102ce57806339c7eac8146102ea5780633a17d69014610308576101c4565b8063095ea7b3116101a2578063095ea7b31461024757806309e69ede146102635780630ba6bacd1461029657806323b872dd146102b2576101c4565b806301ffc9a7146101c957806306fdde03146101f9578063081812fc14610217575b600080fd5b6101e360048036038101906101de9190612df9565b6105ae565b6040516101f09190612e41565b60405180910390f35b610201610690565b60405161020e9190612eec565b60405180910390f35b610231600480360381019061022c9190612f44565b610722565b60405161023e9190612fb2565b60405180910390f35b610261600480360381019061025c9190612ff9565b610768565b005b61027d60048036038101906102789190613039565b61087f565b60405161028d9493929190613075565b60405180910390f35b6102b060048036038101906102ab9190613039565b610944565b005b6102cc60048036038101906102c791906130c1565b610b59565b005b6102e860048036038101906102e39190612f44565b610bb9565b005b6102f2610d21565b6040516102ff9190612fb2565b60405180910390f35b610322600480360381019061031d9190613179565b610d47565b005b61033e600480360381019061033991906130c1565b610f65565b005b610348610f85565b005b610364600480360381019061035f9190613039565b6110af565b005b61036e6112bc565b005b61038a60048036038101906103859190612f44565b6114d1565b6040516103979190612fb2565b60405180910390f35b6103ba60048036038101906103b59190612f44565b611557565b6040516103c79190612eec565b60405180910390f35b6103ea60048036038101906103e59190613039565b611603565b005b61040660048036038101906104019190613039565b61187a565b60405161041391906131c6565b60405180910390f35b610436600480360381019061043191906131e1565b611931565b005b610440611bc4565b60405161044d9190612eec565b60405180910390f35b610470600480360381019061046b919061326d565b611c56565b005b61048c60048036038101906104879190613039565b611c6c565b6040516104999190612e41565b60405180910390f35b6104bc60048036038101906104b79190613039565b611c8c565b6040516104c991906133b9565b60405180910390f35b6104ec60048036038101906104e7919061350b565b611da7565b005b61050860048036038101906105039190612f44565b611e09565b6040516105159190612eec565b60405180910390f35b6105386004803603810190610533919061358e565b611e71565b6040516105459190612e41565b60405180910390f35b61056860048036038101906105639190613039565b611f05565b6040516105759190612e41565b60405180910390f35b61059860048036038101906105939190613039565b611f25565b6040516105a5919061368c565b60405180910390f35b60007f80ac58cd000000000000000000000000000000000000000000000000000000007bffffffffffffffffffffffffffffffffffffffffffffffffffffffff1916827bffffffffffffffffffffffffffffffffffffffffffffffffffffffff1916148061067957507f5b5e139f000000000000000000000000000000000000000000000000000000007bffffffffffffffffffffffffffffffffffffffffffffffffffffffff1916827bffffffffffffffffffffffffffffffffffffffffffffffffffffffff1916145b80610689575061068882611fbf565b5b9050919050565b60606000805461069f906136dd565b80601f01602080910402602001604051908101604052809291908181526020018280546106cb906136dd565b80156107185780601f106106ed57610100808354040283529160200191610718565b820191906000526020600020905b8154815290600101906020018083116106fb57829003601f168201915b5050505050905090565b600061072d82612029565b6004600083815260200190815260200160002060009054906101000a900473ffffffffffffffffffffffffffffffffffffffff169050919050565b6000610773826114d1565b90508073ffffffffffffffffffffffffffffffffffffffff168373ffffffffffffffffffffffffffffffffffffffff16036107e3576040517f08c379a00000000000000000000000000000000000000000000000000000000081526004016107da90613780565b60405180910390fd5b8073ffffffffffffffffffffffffffffffffffffffff16610802612074565b73ffffffffffffffffffffffffffffffffffffffff16148061083157506108308161082b612074565b611e71565b5b610870576040517f08c379a000000000000000000000000000000000000000000000000000000000815260040161086790613812565b60405180910390fd5b61087a838361207c565b505050565b600a6020528060005260406000206000915090508060000154908060010154908060020160009054906101000a900460ff16908060060180546108c1906136dd565b80601f01602080910402602001604051908101604052809291908181526020018280546108ed906136dd565b801561093a5780601f1061090f5761010080835404028352916020019161093a565b820191906000526020600020905b81548152906001019060200180831161091d57829003601f168201915b5050505050905084565b600660009054906101000a900473ffffffffffffffffffffffffffffffffffffffff1673ffffffffffffffffffffffffffffffffffffffff163373ffffffffffffffffffffffffffffffffffffffff16146109d4576040517f08c379a00000000000000000000000000000000000000000000000000000000081526004016109cb906138a4565b60405180910390fd5b600a60008273ffffffffffffffffffffffffffffffffffffffff1673ffffffffffffffffffffffffffffffffffffffff16815260200190815260200160002060020160009054906101000a900460ff16610a63576040517f08c379a0000000000000000000000000000000000000000000000000000000008152600401610a5a90613936565b60405180910390fd5b6000600a60008373ffffffffffffffffffffffffffffffffffffffff1673ffffffffffffffffffffffffffffffffffffffff16815260200190815260200160002060020160006101000a81548160ff021916908315150217905550610ac781611603565b8073ffffffffffffffffffffffffffffffffffffffff167ff57cf6d280695c556b409823337d746075d8a4c7f64fff144463113c27fffa56600a60008473ffffffffffffffffffffffffffffffffffffffff1673ffffffffffffffffffffffffffffffffffffffff168152602001908152602001600020600601604051610b4e91906139ef565b60405180910390a250565b610b6a610b64612074565b82612135565b610ba9576040517f08c379a0000000000000000000000000000000000000000000000000000000008152600401610ba090613a83565b60405180910390fd5b610bb48383836121ca565b505050565b600c60003373ffffffffffffffffffffffffffffffffffffffff1673ffffffffffffffffffffffffffffffffffffffff16815260200190815260200160002060009054906101000a900460ff16610c45576040517f08c379a0000000000000000000000000000000000000000000000000000000008152600401610c3c90613b15565b60405180910390fd5b6000811015610c89576040517f08c379a0000000000000000000000000000000000000000000000000000000008152600401610c8090613ba7565b60405180910390fd5b80600a60003373ffffffffffffffffffffffffffffffffffffffff1673ffffffffffffffffffffffffffffffffffffffff168152602001908152602001600020600101819055503373ffffffffffffffffffffffffffffffffffffffff167f1ac19207c0953072a214e2dcd4fe07d08463d0ac91b3e0a26dc1c4b2791eebc582604051610d1691906131c6565b60405180910390a250565b600660009054906101000a900473ffffffffffffffffffffffffffffffffffffffff1681565b600c60003373ffffffffffffffffffffffffffffffffffffffff1673ffffffffffffffffffffffffffffffffffffffff16815260200190815260200160002060009054906101000a900460ff1615610dd4576040517f08c379a0000000000000000000000000000000000000000000000000000000008152600401610dcb90613c39565b60405180910390fd5b600a60003373ffffffffffffffffffffffffffffffffffffffff1673ffffffffffffffffffffffffffffffffffffffff16815260200190815260200160002060020160009054906101000a900460ff1615610e64576040517f08c379a0000000000000000000000000000000000000000000000000000000008152600401610e5b90613ca5565b60405180910390fd5b6001600a60003373ffffffffffffffffffffffffffffffffffffffff1673ffffffffffffffffffffffffffffffffffffffff16815260200190815260200160002060020160006101000a81548160ff0219169083151502179055508181600a60003373ffffffffffffffffffffffffffffffffffffffff1673ffffffffffffffffffffffffffffffffffffffff1681526020019081526020016000206006019182610f10929190613e67565b503373ffffffffffffffffffffffffffffffffffffffff167f3749bf201820eb6bd36fbbc325fa2b4670a196182e764c11e6600e23bbaf9dd58383604051610f59929190613f64565b60405180910390a25050565b610f8083838360405180602001604052806000815250611da7565b505050565b600c60003373ffffffffffffffffffffffffffffffffffffffff1673ffffffffffffffffffffffffffffffffffffffff16815260200190815260200160002060009054906101000a900460ff1615611012576040517f08c379a000000000000000000000000000000000000000000000000000000000815260040161100990613fd4565b60405180910390fd5b6001600c60003373ffffffffffffffffffffffffffffffffffffffff1673ffffffffffffffffffffffffffffffffffffffff16815260200190815260200160002060006101000a81548160ff0219169083151502179055503373ffffffffffffffffffffffffffffffffffffffff167f92b082de749f0ebd44fd01ce4acab93bf014fab9d1a385c57a6c5ad8d9d29af560405160405180910390a2565b600660009054906101000a900473ffffffffffffffffffffffffffffffffffffffff1673ffffffffffffffffffffffffffffffffffffffff163373ffffffffffffffffffffffffffffffffffffffff161461113f576040517f08c379a0000000000000000000000000000000000000000000000000000000008152600401611136906138a4565b60405180910390fd5b600a60008273ffffffffffffffffffffffffffffffffffffffff1673ffffffffffffffffffffffffffffffffffffffff16815260200190815260200160002060020160009054906101000a900460ff166111ce576040517f08c379a00000000000000000000000000000000000000000000000000000000081526004016111c590613936565b60405180910390fd5b6000600a60008373ffffffffffffffffffffffffffffffffffffffff1673ffffffffffffffffffffffffffffffffffffffff16815260200190815260200160002060020160006101000a81548160ff0219169083151502179055508073ffffffffffffffffffffffffffffffffffffffff167fe4f86d8b20ded56c3d91ef1e193b47f16579b01d7713d1948bc4fc1a96bb85ee600a60008473ffffffffffffffffffffffffffffffffffffffff1673ffffffffffffffffffffffffffffffffffffffff168152602001908152602001600020600001546040516112b191906131c6565b60405180910390a250565b600b60003373ffffffffffffffffffffffffffffffffffffffff1673ffffffffffffffffffffffffffffffffffffffff16815260200190815260200160002060009054906101000a900460ff1615611349576040517f08c379a000000000000000000000000000000000000000000000000000000000815260040161134090613fd4565b60405180910390fd5b6001600b60003373ffffffffffffffffffffffffffffffffffffffff1673ffffffffffffffffffffffffffffffffffffffff16815260200190815260200160002060006101000a81548160ff0219169083151502179055506000600a60003373ffffffffffffffffffffffffffffffffffffffff1673ffffffffffffffffffffffffffffffffffffffff168152602001908152602001600020600001819055506000600a60003373ffffffffffffffffffffffffffffffffffffffff1673ffffffffffffffffffffffffffffffffffffffff168152602001908152602001600020600101819055506000600a60003373ffffffffffffffffffffffffffffffffffffffff1673ffffffffffffffffffffffffffffffffffffffff16815260200190815260200160002060020160006101000a81548160ff0219169083151502179055503373ffffffffffffffffffffffffffffffffffffffff167fda626996b6a73d01583af35f00e8f523759cebc5f4865edf77713226e9b171d660405160405180910390a2565b6000806114dd836124c3565b9050600073ffffffffffffffffffffffffffffffffffffffff168173ffffffffffffffffffffffffffffffffffffffff160361154e576040517f08c379a000000000000000000000000000000000000000000000000000000000815260040161154590614040565b60405180910390fd5b80915050919050565b6007818154811061156757600080fd5b906000526020600020016000915090508054611582906136dd565b80601f01602080910402602001604051908101604052809291908181526020018280546115ae906136dd565b80156115fb5780601f106115d0576101008083540402835291602001916115fb565b820191906000526020600020905b8154815290600101906020018083116115de57829003601f168201915b505050505081565b6001600954611612919061408f565b6009819055506007600a60008373ffffffffffffffffffffffffffffffffffffffff1673ffffffffffffffffffffffffffffffffffffffff16815260200190815260200160002060060190806001815401808255809150506001900390600052602060002001600090919091909150908161168d91906140ee565b5061169a81600954612500565b600a60008273ffffffffffffffffffffffffffffffffffffffff1673ffffffffffffffffffffffffffffffffffffffff168152602001908152602001600020600501600a60008373ffffffffffffffffffffffffffffffffffffffff1673ffffffffffffffffffffffffffffffffffffffff16815260200190815260200160002060060160405161172b9190614264565b90815260200160405180910390206009549080600181540180825580915050600190039060005260206000200160009091909190915055600a60008273ffffffffffffffffffffffffffffffffffffffff1673ffffffffffffffffffffffffffffffffffffffff168152602001908152602001600020600401600a60008373ffffffffffffffffffffffffffffffffffffffff1673ffffffffffffffffffffffffffffffffffffffff16815260200190815260200160002060060190806001815401808255809150506001900390600052602060002001600090919091909150908161181791906140ee565b5060405180602001604052806000815250600a60008373ffffffffffffffffffffffffffffffffffffffff1673ffffffffffffffffffffffffffffffffffffffff1681526020019081526020016000206006019081611876919061427b565b5050565b60008073ffffffffffffffffffffffffffffffffffffffff168273ffffffffffffffffffffffffffffffffffffffff16036118ea576040517f08c379a00000000000000000000000000000000000000000000000000000000081526004016118e1906143bf565b60405180910390fd5b600360008373ffffffffffffffffffffffffffffffffffffffff1673ffffffffffffffffffffffffffffffffffffffff168152602001908152602001600020549050919050565b6000600a60003373ffffffffffffffffffffffffffffffffffffffff1673ffffffffffffffffffffffffffffffffffffffff1681526020019081526020016000206005018383604051611985929190614404565b908152602001604051809103902080549050036119d7576040517f08c379a00000000000000000000000000000000000000000000000000000000081526004016119ce9061448f565b60405180910390fd5b6000600a60003373ffffffffffffffffffffffffffffffffffffffff1673ffffffffffffffffffffffffffffffffffffffff1681526020019081526020016000206005018383604051611a2b929190614404565b9081526020016040518091039020805490509050611ad23385600a60003373ffffffffffffffffffffffffffffffffffffffff1673ffffffffffffffffffffffffffffffffffffffff1681526020019081526020016000206005018686604051611a96929190614404565b9081526020016040518091039020600185611ab191906144af565b81548110611ac257611ac16144e3565b5b90600052602060002001546121ca565b600a60003373ffffffffffffffffffffffffffffffffffffffff1673ffffffffffffffffffffffffffffffffffffffff1681526020019081526020016000206005018383604051611b24929190614404565b9081526020016040518091039020805480611b4257611b41614512565b5b600190038181906000526020600020016000905590558373ffffffffffffffffffffffffffffffffffffffff163373ffffffffffffffffffffffffffffffffffffffff167f17fe3deddce525fa12700a731e77ea94c319000ee656076e9e3f0d21638db7666000604051611bb6919061457c565b60405180910390a350505050565b606060018054611bd3906136dd565b80601f0160208091040260200160405190810160405280929190818152602001828054611bff906136dd565b8015611c4c5780601f10611c2157610100808354040283529160200191611c4c565b820191906000526020600020905b815481529060010190602001808311611c2f57829003601f168201915b5050505050905090565b611c68611c61612074565b838361251e565b5050565b600b6020528060005260406000206000915054906101000a900460ff1681565b6060600a60008373ffffffffffffffffffffffffffffffffffffffff1673ffffffffffffffffffffffffffffffffffffffff168152602001908152602001600020600401805480602002602001604051908101604052809291908181526020016000905b82821015611d9c578382906000526020600020018054611d0f906136dd565b80601f0160208091040260200160405190810160405280929190818152602001828054611d3b906136dd565b8015611d885780601f10611d5d57610100808354040283529160200191611d88565b820191906000526020600020905b815481529060010190602001808311611d6b57829003601f168201915b505050505081526020019060010190611cf0565b505050509050919050565b611db8611db2612074565b83612135565b611df7576040517f08c379a0000000000000000000000000000000000000000000000000000000008152600401611dee90613a83565b60405180910390fd5b611e038484848461268a565b50505050565b6060611e1482612029565b6000611e1e6126e6565b90506000815111611e3e5760405180602001604052806000815250611e69565b80611e48846126fd565b604051602001611e599291906145c8565b6040516020818303038152906040525b915050919050565b6000600560008473ffffffffffffffffffffffffffffffffffffffff1673ffffffffffffffffffffffffffffffffffffffff16815260200190815260200160002060008373ffffffffffffffffffffffffffffffffffffffff1673ffffffffffffffffffffffffffffffffffffffff16815260200190815260200160002060009054906101000a900460ff16905092915050565b600c6020528060005260406000206000915054906101000a900460ff1681565b6060600a60008373ffffffffffffffffffffffffffffffffffffffff1673ffffffffffffffffffffffffffffffffffffffff168152602001908152602001600020600301805480602002602001604051908101604052809291908181526020018280548015611fb357602002820191906000526020600020905b815481526020019060010190808311611f9f575b50505050509050919050565b60007f01ffc9a7000000000000000000000000000000000000000000000000000000007bffffffffffffffffffffffffffffffffffffffffffffffffffffffff1916827bffffffffffffffffffffffffffffffffffffffffffffffffffffffff1916149050919050565b612032816127cb565b612071576040517f08c379a000000000000000000000000000000000000000000000000000000000815260040161206890614040565b60405180910390fd5b50565b600033905090565b816004600083815260200190815260200160002060006101000a81548173ffffffffffffffffffffffffffffffffffffffff021916908373ffffffffffffffffffffffffffffffffffffffff160217905550808273ffffffffffffffffffffffffffffffffffffffff166120ef836114d1565b73ffffffffffffffffffffffffffffffffffffffff167f8c5be1e5ebec7d5bd14f71427d1e84f3dd0314c0f7b2291e5b200ac8c7c3b92560405160405180910390a45050565b600080612141836114d1565b90508073ffffffffffffffffffffffffffffffffffffffff168473ffffffffffffffffffffffffffffffffffffffff16148061218357506121828185611e71565b5b806121c157508373ffffffffffffffffffffffffffffffffffffffff166121a984610722565b73ffffffffffffffffffffffffffffffffffffffff16145b91505092915050565b8273ffffffffffffffffffffffffffffffffffffffff166121ea826114d1565b73ffffffffffffffffffffffffffffffffffffffff1614612240576040517f08c379a00000000000000000000000000000000000000000000000000000000081526004016122379061465e565b60405180910390fd5b600073ffffffffffffffffffffffffffffffffffffffff168273ffffffffffffffffffffffffffffffffffffffff16036122af576040517f08c379a00000000000000000000000000000000000000000000000000000000081526004016122a6906146f0565b60405180910390fd5b6122bc838383600161280c565b8273ffffffffffffffffffffffffffffffffffffffff166122dc826114d1565b73ffffffffffffffffffffffffffffffffffffffff1614612332576040517f08c379a00000000000000000000000000000000000000000000000000000000081526004016123299061465e565b60405180910390fd5b6004600082815260200190815260200160002060006101000a81549073ffffffffffffffffffffffffffffffffffffffff02191690556001600360008573ffffffffffffffffffffffffffffffffffffffff1673ffffffffffffffffffffffffffffffffffffffff168152602001908152602001600020600082825403925050819055506001600360008473ffffffffffffffffffffffffffffffffffffffff1673ffffffffffffffffffffffffffffffffffffffff16815260200190815260200160002060008282540192505081905550816002600083815260200190815260200160002060006101000a81548173ffffffffffffffffffffffffffffffffffffffff021916908373ffffffffffffffffffffffffffffffffffffffff160217905550808273ffffffffffffffffffffffffffffffffffffffff168473ffffffffffffffffffffffffffffffffffffffff167fddf252ad1be2c89b69c2b068fc378daa952ba7f163c4a11628f55a4df523b3ef60405160405180910390a46124be8383836001612812565b505050565b60006002600083815260200190815260200160002060009054906101000a900473ffffffffffffffffffffffffffffffffffffffff169050919050565b61251a828260405180602001604052806000815250612818565b5050565b8173ffffffffffffffffffffffffffffffffffffffff168373ffffffffffffffffffffffffffffffffffffffff160361258c576040517f08c379a00000000000000000000000000000000000000000000000000000000081526004016125839061475c565b60405180910390fd5b80600560008573ffffffffffffffffffffffffffffffffffffffff1673ffffffffffffffffffffffffffffffffffffffff16815260200190815260200160002060008473ffffffffffffffffffffffffffffffffffffffff1673ffffffffffffffffffffffffffffffffffffffff16815260200190815260200160002060006101000a81548160ff0219169083151502179055508173ffffffffffffffffffffffffffffffffffffffff168373ffffffffffffffffffffffffffffffffffffffff167f17307eab39ab6107e8899845ad3d59bd9653f200f220920489ca2b5937696c318360405161267d9190612e41565b60405180910390a3505050565b6126958484846121ca565b6126a184848484612873565b6126e0576040517f08c379a00000000000000000000000000000000000000000000000000000000081526004016126d7906147ee565b60405180910390fd5b50505050565b606060405180602001604052806000815250905090565b60606000600161270c846129fa565b01905060008167ffffffffffffffff81111561272b5761272a6133e0565b5b6040519080825280601f01601f19166020018201604052801561275d5781602001600182028036833780820191505090505b509050600082602001820190505b6001156127c0578080600190039150507f3031323334353637383961626364656600000000000000000000000000000000600a86061a8153600a85816127b4576127b361480e565b5b0494506000850361276b575b819350505050919050565b60008073ffffffffffffffffffffffffffffffffffffffff166127ed836124c3565b73ffffffffffffffffffffffffffffffffffffffff1614159050919050565b50505050565b50505050565b6128228383612b4d565b61282f6000848484612873565b61286e576040517f08c379a0000000000000000000000000000000000000000000000000000000008152600401612865906147ee565b60405180910390fd5b505050565b60006128948473ffffffffffffffffffffffffffffffffffffffff16612d6a565b156129ed578373ffffffffffffffffffffffffffffffffffffffff1663150b7a026128bd612074565b8786866040518563ffffffff1660e01b81526004016128df9493929190614892565b6020604051808303816000875af192505050801561291b57506040513d601f19601f8201168201806040525081019061291891906148f3565b60015b61299d573d806000811461294b576040519150601f19603f3d011682016040523d82523d6000602084013e612950565b606091505b506000815103612995576040517f08c379a000000000000000000000000000000000000000000000000000000000815260040161298c906147ee565b60405180910390fd5b805181602001fd5b63150b7a0260e01b7bffffffffffffffffffffffffffffffffffffffffffffffffffffffff1916817bffffffffffffffffffffffffffffffffffffffffffffffffffffffff1916149150506129f2565b600190505b949350505050565b600080600090507a184f03e93ff9f4daa797ed6e38ed64bf6a1f0100000000000000008310612a58577a184f03e93ff9f4daa797ed6e38ed64bf6a1f0100000000000000008381612a4e57612a4d61480e565b5b0492506040810190505b6d04ee2d6d415b85acef81000000008310612a95576d04ee2d6d415b85acef81000000008381612a8b57612a8a61480e565b5b0492506020810190505b662386f26fc100008310612ac457662386f26fc100008381612aba57612ab961480e565b5b0492506010810190505b6305f5e1008310612aed576305f5e1008381612ae357612ae261480e565b5b0492506008810190505b6127108310612b12576127108381612b0857612b0761480e565b5b0492506004810190505b60648310612b355760648381612b2b57612b2a61480e565b5b0492506002810190505b600a8310612b44576001810190505b80915050919050565b600073ffffffffffffffffffffffffffffffffffffffff168273ffffffffffffffffffffffffffffffffffffffff1603612bbc576040517f08c379a0000000000000000000000000000000000000000000000000000000008152600401612bb39061496c565b60405180910390fd5b612bc5816127cb565b15612c05576040517f08c379a0000000000000000000000000000000000000000000000000000000008152600401612bfc906149d8565b60405180910390fd5b612c1360008383600161280c565b612c1c816127cb565b15612c5c576040517f08c379a0000000000000000000000000000000000000000000000000000000008152600401612c53906149d8565b60405180910390fd5b6001600360008473ffffffffffffffffffffffffffffffffffffffff1673ffffffffffffffffffffffffffffffffffffffff16815260200190815260200160002060008282540192505081905550816002600083815260200190815260200160002060006101000a81548173ffffffffffffffffffffffffffffffffffffffff021916908373ffffffffffffffffffffffffffffffffffffffff160217905550808273ffffffffffffffffffffffffffffffffffffffff16600073ffffffffffffffffffffffffffffffffffffffff167fddf252ad1be2c89b69c2b068fc378daa952ba7f163c4a11628f55a4df523b3ef60405160405180910390a4612d66600083836001612812565b5050565b6000808273ffffffffffffffffffffffffffffffffffffffff163b119050919050565b6000604051905090565b600080fd5b600080fd5b60007fffffffff0000000000000000000000000000000000000000000000000000000082169050919050565b612dd681612da1565b8114612de157600080fd5b50565b600081359050612df381612dcd565b92915050565b600060208284031215612e0f57612e0e612d97565b5b6000612e1d84828501612de4565b91505092915050565b60008115159050919050565b612e3b81612e26565b82525050565b6000602082019050612e566000830184612e32565b92915050565b600081519050919050565b600082825260208201905092915050565b60005b83811015612e96578082015181840152602081019050612e7b565b60008484015250505050565b6000601f19601f8301169050919050565b6000612ebe82612e5c565b612ec88185612e67565b9350612ed8818560208601612e78565b612ee181612ea2565b840191505092915050565b60006020820190508181036000830152612f068184612eb3565b905092915050565b6000819050919050565b612f2181612f0e565b8114612f2c57600080fd5b50565b600081359050612f3e81612f18565b92915050565b600060208284031215612f5a57612f59612d97565b5b6000612f6884828501612f2f565b91505092915050565b600073ffffffffffffffffffffffffffffffffffffffff82169050919050565b6000612f9c82612f71565b9050919050565b612fac81612f91565b82525050565b6000602082019050612fc76000830184612fa3565b92915050565b612fd681612f91565b8114612fe157600080fd5b50565b600081359050612ff381612fcd565b92915050565b600080604083850312156130105761300f612d97565b5b600061301e85828601612fe4565b925050602061302f85828601612f2f565b9150509250929050565b60006020828403121561304f5761304e612d97565b5b600061305d84828501612fe4565b91505092915050565b61306f81612f0e565b82525050565b600060808201905061308a6000830187613066565b6130976020830186613066565b6130a46040830185612e32565b81810360608301526130b68184612eb3565b905095945050505050565b6000806000606084860312156130da576130d9612d97565b5b60006130e886828701612fe4565b93505060206130f986828701612fe4565b925050604061310a86828701612f2f565b9150509250925092565b600080fd5b600080fd5b600080fd5b60008083601f84011261313957613138613114565b5b8235905067ffffffffffffffff81111561315657613155613119565b5b6020830191508360018202830111156131725761317161311e565b5b9250929050565b600080602083850312156131905761318f612d97565b5b600083013567ffffffffffffffff8111156131ae576131ad612d9c565b5b6131ba85828601613123565b92509250509250929050565b60006020820190506131db6000830184613066565b92915050565b6000806000604084860312156131fa576131f9612d97565b5b600061320886828701612fe4565b935050602084013567ffffffffffffffff81111561322957613228612d9c565b5b61323586828701613123565b92509250509250925092565b61324a81612e26565b811461325557600080fd5b50565b60008135905061326781613241565b92915050565b6000806040838503121561328457613283612d97565b5b600061329285828601612fe4565b92505060206132a385828601613258565b9150509250929050565b600081519050919050565b600082825260208201905092915050565b6000819050602082019050919050565b600082825260208201905092915050565b60006132f582612e5c565b6132ff81856132d9565b935061330f818560208601612e78565b61331881612ea2565b840191505092915050565b600061332f83836132ea565b905092915050565b6000602082019050919050565b600061334f826132ad565b61335981856132b8565b93508360208202850161336b856132c9565b8060005b858110156133a757848403895281516133888582613323565b945061339383613337565b925060208a0199505060018101905061336f565b50829750879550505050505092915050565b600060208201905081810360008301526133d38184613344565b905092915050565b600080fd5b7f4e487b7100000000000000000000000000000000000000000000000000000000600052604160045260246000fd5b61341882612ea2565b810181811067ffffffffffffffff82111715613437576134366133e0565b5b80604052505050565b600061344a612d8d565b9050613456828261340f565b919050565b600067ffffffffffffffff821115613476576134756133e0565b5b61347f82612ea2565b9050602081019050919050565b82818337600083830152505050565b60006134ae6134a98461345b565b613440565b9050828152602081018484840111156134ca576134c96133db565b5b6134d584828561348c565b509392505050565b600082601f8301126134f2576134f1613114565b5b813561350284826020860161349b565b91505092915050565b6000806000806080858703121561352557613524612d97565b5b600061353387828801612fe4565b945050602061354487828801612fe4565b935050604061355587828801612f2f565b925050606085013567ffffffffffffffff81111561357657613575612d9c565b5b613582878288016134dd565b91505092959194509250565b600080604083850312156135a5576135a4612d97565b5b60006135b385828601612fe4565b92505060206135c485828601612fe4565b9150509250929050565b600081519050919050565b600082825260208201905092915050565b6000819050602082019050919050565b61360381612f0e565b82525050565b600061361583836135fa565b60208301905092915050565b6000602082019050919050565b6000613639826135ce565b61364381856135d9565b935061364e836135ea565b8060005b8381101561367f5781516136668882613609565b975061367183613621565b925050600181019050613652565b5085935050505092915050565b600060208201905081810360008301526136a6818461362e565b905092915050565b7f4e487b7100000000000000000000000000000000000000000000000000000000600052602260045260246000fd5b600060028204905060018216806136f557607f821691505b602082108103613708576137076136ae565b5b50919050565b7f4552433732313a20617070726f76616c20746f2063757272656e74206f776e6560008201527f7200000000000000000000000000000000000000000000000000000000000000602082015250565b600061376a602183612e67565b91506137758261370e565b604082019050919050565b600060208201905081810360008301526137998161375d565b9050919050565b7f4552433732313a20617070726f76652063616c6c6572206973206e6f7420746f60008201527f6b656e206f776e6572206f7220617070726f76656420666f7220616c6c000000602082015250565b60006137fc603d83612e67565b9150613807826137a0565b604082019050919050565b6000602082019050818103600083015261382b816137ef565b9050919050565b7f4f6e6c792074686520627572656175637261742063616e20706572666f726d2060008201527f7468697320616374696f6e000000000000000000000000000000000000000000602082015250565b600061388e602b83612e67565b915061389982613832565b604082019050919050565b600060208201905081810360008301526138bd81613881565b9050919050565b7f4e6f2070726f766973696f6e206368616e676520686173206265656e2072657160008201527f75657374656420666f722074686973206170706c6963616e7400000000000000602082015250565b6000613920603983612e67565b915061392b826138c4565b604082019050919050565b6000602082019050818103600083015261394f81613913565b9050919050565b60008190508160005260206000209050919050565b60008154613978816136dd565b6139828186612e67565b9450600182166000811461399d57600181146139b3576139e6565b60ff1983168652811515602002860193506139e6565b6139bc85613956565b60005b838110156139de578154818901526001820191506020810190506139bf565b808801955050505b50505092915050565b60006020820190508181036000830152613a09818461396b565b905092915050565b7f4552433732313a2063616c6c6572206973206e6f7420746f6b656e206f776e6560008201527f72206f7220617070726f76656400000000000000000000000000000000000000602082015250565b6000613a6d602d83612e67565b9150613a7882613a11565b604082019050919050565b60006020820190508181036000830152613a9c81613a60565b9050919050565b7f4f6e6c79206d65726368616e74732063616e20706572666f726d20746869732060008201527f616374696f6e0000000000000000000000000000000000000000000000000000602082015250565b6000613aff602683612e67565b9150613b0a82613aa3565b604082019050919050565b60006020820190508181036000830152613b2e81613af2565b9050919050565b7f4d61676963206e756d626572206d757374206265206e6f6e2d6e65676174697660008201527f6500000000000000000000000000000000000000000000000000000000000000602082015250565b6000613b91602183612e67565b9150613b9c82613b35565b604082019050919050565b60006020820190508181036000830152613bc081613b84565b9050919050565b7f596f75206d75737420686176652061206e6f742062652061206d65726368616e60008201527f7420746f20706572666f726d207468697320616374696f6e0000000000000000602082015250565b6000613c23603883612e67565b9150613c2e82613bc7565b604082019050919050565b60006020820190508181036000830152613c5281613c16565b9050919050565b7f546865726520697320616e206f70656e207265717565737420616c7265616479600082015250565b6000613c8f602083612e67565b9150613c9a82613c59565b602082019050919050565b60006020820190508181036000830152613cbe81613c82565b9050919050565b600082905092915050565b60006020601f8301049050919050565b600082821b905092915050565b600060088302613d1d7fffffffffffffffffffffffffffffffffffffffffffffffffffffffffffffffff82613ce0565b613d278683613ce0565b95508019841693508086168417925050509392505050565b6000819050919050565b6000613d64613d5f613d5a84612f0e565b613d3f565b612f0e565b9050919050565b6000819050919050565b613d7e83613d49565b613d92613d8a82613d6b565b848454613ced565b825550505050565b600090565b613da7613d9a565b613db2818484613d75565b505050565b5b81811015613dd657613dcb600082613d9f565b600181019050613db8565b5050565b601f821115613e1b57613dec81613956565b613df584613cd0565b81016020851015613e04578190505b613e18613e1085613cd0565b830182613db7565b50505b505050565b600082821c905092915050565b6000613e3e60001984600802613e20565b1980831691505092915050565b6000613e578383613e2d565b9150826002028217905092915050565b613e718383613cc5565b67ffffffffffffffff811115613e8a57613e896133e0565b5b613e9482546136dd565b613e9f828285613dda565b6000601f831160018114613ece5760008415613ebc578287013590505b613ec68582613e4b565b865550613f2e565b601f198416613edc86613956565b60005b82811015613f0457848901358255600182019150602085019450602081019050613edf565b86831015613f215784890135613f1d601f891682613e2d565b8355505b6001600288020188555050505b50505050505050565b6000613f438385612e67565b9350613f5083858461348c565b613f5983612ea2565b840190509392505050565b60006020820190508181036000830152613f7f818486613f37565b90509392505050565b7f596f752061726520616c72656164792072656769737465726564000000000000600082015250565b6000613fbe601a83612e67565b9150613fc982613f88565b602082019050919050565b60006020820190508181036000830152613fed81613fb1565b9050919050565b7f4552433732313a20696e76616c696420746f6b656e2049440000000000000000600082015250565b600061402a601883612e67565b915061403582613ff4565b602082019050919050565b600060208201905081810360008301526140598161401d565b9050919050565b7f4e487b7100000000000000000000000000000000000000000000000000000000600052601160045260246000fd5b600061409a82612f0e565b91506140a583612f0e565b92508282019050808211156140bd576140bc614060565b5b92915050565b6000815490506140d2816136dd565b9050919050565b60008190508160005260206000209050919050565b8181036140fc5750506141d4565b614105826140c3565b67ffffffffffffffff81111561411e5761411d6133e0565b5b61412882546136dd565b614133828285613dda565b6000601f8311600181146141625760008415614150578287015490505b61415a8582613e4b565b8655506141cd565b601f198416614170876140d9565b965061417b86613956565b60005b828110156141a35784890154825560018201915060018501945060208101905061417e565b868310156141c057848901546141bc601f891682613e2d565b8355505b6001600288020188555050505b5050505050505b565b600081905092915050565b600081546141ee816136dd565b6141f881866141d6565b9450600182166000811461421357600181146142285761425b565b60ff198316865281151582028601935061425b565b61423185613956565b60005b8381101561425357815481890152600182019150602081019050614234565b838801955050505b50505092915050565b600061427082846141e1565b915081905092915050565b61428482612e5c565b67ffffffffffffffff81111561429d5761429c6133e0565b5b6142a782546136dd565b6142b2828285613dda565b600060209050601f8311600181146142e557600084156142d3578287015190505b6142dd8582613e4b565b865550614345565b601f1984166142f386613956565b60005b8281101561431b578489015182556001820191506020850194506020810190506142f6565b868310156143385784890151614334601f891682613e2d565b8355505b6001600288020188555050505b505050505050565b7f4552433732313a2061646472657373207a65726f206973206e6f74206120766160008201527f6c6964206f776e65720000000000000000000000000000000000000000000000602082015250565b60006143a9602983612e67565b91506143b48261434d565b604082019050919050565b600060208201905081810360008301526143d88161439c565b9050919050565b60006143eb83856141d6565b93506143f883858461348c565b82840190509392505050565b60006144118284866143df565b91508190509392505050565b7f596f7520646f206e6f74206861766520656e6f756768207469636b657473207460008201527f6f20706572666f726d2074686973207472616e73666572000000000000000000602082015250565b6000614479603783612e67565b91506144848261441d565b604082019050919050565b600060208201905081810360008301526144a88161446c565b9050919050565b60006144ba82612f0e565b91506144c583612f0e565b92508282039050818111156144dd576144dc614060565b5b92915050565b7f4e487b7100000000000000000000000000000000000000000000000000000000600052603260045260246000fd5b7f4e487b7100000000000000000000000000000000000000000000000000000000600052603160045260246000fd5b6000819050919050565b600061456661456161455c84614541565b613d3f565b612f0e565b9050919050565b6145768161454b565b82525050565b6000602082019050614591600083018461456d565b92915050565b60006145a282612e5c565b6145ac81856141d6565b93506145bc818560208601612e78565b80840191505092915050565b60006145d48285614597565b91506145e08284614597565b91508190509392505050565b7f4552433732313a207472616e736665722066726f6d20696e636f72726563742060008201527f6f776e6572000000000000000000000000000000000000000000000000000000602082015250565b6000614648602583612e67565b9150614653826145ec565b604082019050919050565b600060208201905081810360008301526146778161463b565b9050919050565b7f4552433732313a207472616e7366657220746f20746865207a65726f2061646460008201527f7265737300000000000000000000000000000000000000000000000000000000602082015250565b60006146da602483612e67565b91506146e58261467e565b604082019050919050565b60006020820190508181036000830152614709816146cd565b9050919050565b7f4552433732313a20617070726f766520746f2063616c6c657200000000000000600082015250565b6000614746601983612e67565b915061475182614710565b602082019050919050565b6000602082019050818103600083015261477581614739565b9050919050565b7f4552433732313a207472616e7366657220746f206e6f6e20455243373231526560008201527f63656976657220696d706c656d656e7465720000000000000000000000000000602082015250565b60006147d8603283612e67565b91506147e38261477c565b604082019050919050565b60006020820190508181036000830152614807816147cb565b9050919050565b7f4e487b7100000000000000000000000000000000000000000000000000000000600052601260045260246000fd5b600081519050919050565b600082825260208201905092915050565b60006148648261483d565b61486e8185614848565b935061487e818560208601612e78565b61488781612ea2565b840191505092915050565b60006080820190506148a76000830187612fa3565b6148b46020830186612fa3565b6148c16040830185613066565b81810360608301526148d38184614859565b905095945050505050565b6000815190506148ed81612dcd565b92915050565b60006020828403121561490957614908612d97565b5b6000614917848285016148de565b91505092915050565b7f4552433732313a206d696e7420746f20746865207a65726f2061646472657373600082015250565b6000614956602083612e67565b915061496182614920565b602082019050919050565b6000602082019050818103600083015261498581614949565b9050919050565b7f4552433732313a20746f6b656e20616c7265616479206d696e74656400000000600082015250565b60006149c2601c83612e67565b91506149cd8261498c565b602082019050919050565b600060208201905081810360008301526149f1816149b5565b905091905056fea264697066735822122045b27bf3149473c3807893fc52064ba884bfcf34907cd131258c0dba3020270564736f6c63430008110033",
  "immutableReferences": {},
  "source": "//SPDX-License-Identifier: UNLICENSED\r\npragma solidity >=0.8.17;\r\n\r\nimport \"@openzeppelin/contracts/token/ERC721/ERC721.sol\";\r\nimport \"@openzeppelin/contracts/utils/Counters.sol\";\r\n\r\ncontract SNAP is ERC721{\r\n    address public bureaucrat;\r\n    string[] public meal;\r\n    mapping(string => bool) _mealExists;\r\n    uint tokenCounter = 0;\r\n\r\n    \r\n    struct Applicant\r\n    {\r\n        uint256 balance;\r\n        uint256 magicNumber;\r\n        bool provisionChangeRequested;\r\n        uint[] tokenId;\r\n        string[] mealsOwned;\r\n        mapping(string => uint[]) tokens;\r\n        string openRequestMeal;\r\n    }\r\n    \r\n    mapping(address => Applicant) public participants;\r\n    mapping(address => bool) public users;\r\n    mapping(address => bool) public merchants;\r\n    \r\n    event TicketTransferred(address indexed from, address indexed to, uint256 amount);\r\n    event ProvisionChangeRequested(address indexed applicant, string mealRequested);\r\n    event ProvisionChangeApproved(address indexed applicant, string mealTicket);\r\n    event ProvisionChangeDenied(address indexed applicant, uint256 newBalance);\r\n    event MagicNumberSet(address indexed merchant, uint256 magicNumber);\r\n    event ApplicantRegister(address indexed user);\r\n    event MerchantRegister(address indexed merchants);\r\n    \r\n    constructor() ERC721(\"Meal\", \"MEAL\") public\r\n    {\r\n        bureaucrat = msg.sender;\r\n        users[msg.sender] = true;\r\n    }\r\n    \r\n    modifier onlyBureaucrat()\r\n    {\r\n        require(msg.sender == bureaucrat, \"Only the bureaucrat can perform this action\");\r\n        _;\r\n    }\r\n    \r\n    modifier onlyApplicant()\r\n    {\r\n        require(!merchants[msg.sender], \"You must have a not be a merchant to perform this action\");\r\n        _;\r\n    }\r\n    \r\n    modifier onlyMerchant()\r\n    {\r\n        require(merchants[msg.sender], \"Only merchants can perform this action\");\r\n        _;\r\n    }\r\n    \r\n    function registerApplicant() public\r\n    {\r\n        require(!users[msg.sender], \"You are already registered\");\r\n        \r\n        users[msg.sender] = true;\r\n        participants[msg.sender].balance = 0;\r\n        participants[msg.sender].magicNumber = 0;\r\n        participants[msg.sender].provisionChangeRequested = false;\r\n        emit ApplicantRegister(msg.sender);\r\n    }\r\n\r\n    function registerMerchant() public\r\n    {\r\n        require(!merchants[msg.sender], \"You are already registered\");\r\n        merchants[msg.sender] = true;\r\n        emit MerchantRegister(msg.sender);\r\n    }\r\n \r\n    function transferTickets(address to, string calldata mealToBuy) public\r\n    {\r\n        require(participants[msg.sender].tokens[mealToBuy].length != 0, \"You do not have enough tickets to perform this transfer\");\r\n        //participants[msg.sender].balance = participants[msg.sender].balance - amount;\r\n        //participants[to].balance = participants[to].balance + amount;\r\n        uint i = participants[msg.sender].tokens[mealToBuy].length;\r\n        // uint mealsFound = 0;\r\n        // for (i=0; i<=participants[msg.sender].tokenId.length; i++){\r\n            // if (compare((participants[msg.sender].mealsOwned[i]),mealToBuy)){\r\n        //         if(mealsFound < amount){\r\n        //             // mealsFound = mealsFound + 1;\r\n        //             // _transfer(msg.sender, to,participants[msg.sender].tokenId[i]);\r\n        //             // delete participants[msg.sender].tokenId[i];\r\n        //             // delete participants[msg.sender].mealsOwned[i];\r\n        //         }\r\n        //     }\r\n        // }\r\n        _transfer(msg.sender, to,participants[msg.sender].tokens[mealToBuy][i-1]);\r\n        participants[msg.sender].tokens[mealToBuy].pop();\r\n        //  _transfer(msg.sender, to,participants[msg.sender].tokenId[0]);\r\n    //    require(mealsFound == amount,\"No Sufficient Meal Coupons Found\");\r\n\r\n        emit TicketTransferred(msg.sender, to,0);\r\n    }\r\n    \r\n    function requestProvisionChange(string calldata mealRequested) public onlyApplicant\r\n    {\r\n        require(!participants[msg.sender].provisionChangeRequested, \"There is an open request already\");\r\n        participants[msg.sender].provisionChangeRequested = true;\r\n        participants[msg.sender].openRequestMeal = mealRequested;\r\n        emit ProvisionChangeRequested(msg.sender, mealRequested);\r\n    }\r\n    \r\n    function approveProvisionChange(address applicant) public onlyBureaucrat\r\n    {\r\n        require(participants[applicant].provisionChangeRequested, \"No provision change has been requested for this applicant\");\r\n        participants[applicant].provisionChangeRequested = false;\r\n        mint(applicant);\r\n        \r\n        emit ProvisionChangeApproved(applicant, participants[applicant].openRequestMeal);\r\n    }\r\n    \r\n    function mint(address applicant) public {\r\n        //require(!_mealExists[_meal]);\r\n        tokenCounter = tokenCounter + 1;\r\n        meal.push(participants[applicant].openRequestMeal);\r\n        _safeMint(applicant, tokenCounter);\r\n        //_mealExists[participants[applicant].openRequestMeal] = true;\r\n        participants[applicant].tokens[participants[applicant].openRequestMeal].push(tokenCounter);\r\n        participants[applicant].mealsOwned.push(participants[applicant].openRequestMeal);\r\n        participants[applicant].openRequestMeal = '';\r\n    }\r\n\r\n    function denyProvisionChange(address applicant) public onlyBureaucrat\r\n    {\r\n        require(participants[applicant].provisionChangeRequested, \"No provision change has been requested for this applicant\");\r\n        participants[applicant].provisionChangeRequested = false;\r\n        emit ProvisionChangeDenied(applicant, participants[applicant].balance);\r\n    }\r\n    \r\n    function setMagicNumber(uint256 magicNumber) public onlyMerchant\r\n    {\r\n        require(magicNumber >= 0, \"Magic number must be non-negative\");\r\n        participants[msg.sender].magicNumber = magicNumber;\r\n        emit MagicNumberSet(msg.sender, magicNumber);\r\n    }\r\n\r\n    function getTokenId(address owner) public   view returns( uint  [] memory){\r\n        return participants[owner].tokenId;\r\n    }\r\n    function getMealsOwned(address owner) public   view returns( string  [] memory){\r\n        return participants[owner].mealsOwned;\r\n    }\r\n}\r\n",
  "sourcePath": "C:\\Users\\juliu\\OneDrive\\Desktop\\CSE 426\\Project\\Code\\SANPonBlockchain\\contracts\\snap_sc.sol",
  "compiler": {
    "name": "solc",
    "version": "0.8.17+commit.8df45f5f.Emscripten.clang"
  },
  "schemaVersion": "3.4.13",
  "updatedAt": "2023-04-29T21:46:42.555Z",
  "networkType": "ethereum",
  "devdoc": {
    "kind": "dev",
    "methods": {
      "approve(address,uint256)": {
        "details": "See {IERC721-approve}."
      },
      "balanceOf(address)": {
        "details": "See {IERC721-balanceOf}."
      },
      "getApproved(uint256)": {
        "details": "See {IERC721-getApproved}."
      },
      "isApprovedForAll(address,address)": {
        "details": "See {IERC721-isApprovedForAll}."
      },
      "name()": {
        "details": "See {IERC721Metadata-name}."
      },
      "ownerOf(uint256)": {
        "details": "See {IERC721-ownerOf}."
      },
      "safeTransferFrom(address,address,uint256)": {
        "details": "See {IERC721-safeTransferFrom}."
      },
      "safeTransferFrom(address,address,uint256,bytes)": {
        "details": "See {IERC721-safeTransferFrom}."
      },
      "setApprovalForAll(address,bool)": {
        "details": "See {IERC721-setApprovalForAll}."
      },
      "supportsInterface(bytes4)": {
        "details": "See {IERC165-supportsInterface}."
      },
      "symbol()": {
        "details": "See {IERC721Metadata-symbol}."
      },
      "tokenURI(uint256)": {
        "details": "See {IERC721Metadata-tokenURI}."
      },
      "transferFrom(address,address,uint256)": {
        "details": "See {IERC721-transferFrom}."
      }
    },
    "version": 1
  },
  "userdoc": {
    "kind": "user",
    "methods": {},
    "version": 1
  }
}