{
  "contractName": "SNAP",
  "abi": [
    {
      "inputs": [],
      "stateMutability": "nonpayable",
      "type": "constructor"
    },
    {
      "anonymous": false,
      "inputs": [
        {
          "indexed": true,
          "internalType": "address",
          "name": "user",
          "type": "address"
        }
      ],
      "name": "ApplicantRegister",
      "type": "event"
    },
    {
      "anonymous": false,
      "inputs": [
        {
          "indexed": true,
          "internalType": "address",
          "name": "owner",
          "type": "address"
        },
        {
          "indexed": true,
          "internalType": "address",
          "name": "approved",
          "type": "address"
        },
        {
          "indexed": true,
          "internalType": "uint256",
          "name": "tokenId",
          "type": "uint256"
        }
      ],
      "name": "Approval",
      "type": "event"
    },
    {
      "anonymous": false,
      "inputs": [
        {
          "indexed": true,
          "internalType": "address",
          "name": "owner",
          "type": "address"
        },
        {
          "indexed": true,
          "internalType": "address",
          "name": "operator",
          "type": "address"
        },
        {
          "indexed": false,
          "internalType": "bool",
          "name": "approved",
          "type": "bool"
        }
      ],
      "name": "ApprovalForAll",
      "type": "event"
    },
    {
      "anonymous": false,
      "inputs": [
        {
          "indexed": true,
          "internalType": "address",
          "name": "merchant",
          "type": "address"
        },
        {
          "indexed": false,
          "internalType": "uint256",
          "name": "magicNumber",
          "type": "uint256"
        }
      ],
      "name": "MagicNumberSet",
      "type": "event"
    },
    {
      "anonymous": false,
      "inputs": [
        {
          "indexed": true,
          "internalType": "address",
          "name": "merchants",
          "type": "address"
        }
      ],
      "name": "MerchantRegister",
      "type": "event"
    },
    {
      "anonymous": false,
      "inputs": [
        {
          "indexed": true,
          "internalType": "address",
          "name": "applicant",
          "type": "address"
        },
        {
          "indexed": false,
          "internalType": "string",
          "name": "mealTicket",
          "type": "string"
        }
      ],
      "name": "ProvisionChangeApproved",
      "type": "event"
    },
    {
      "anonymous": false,
      "inputs": [
        {
          "indexed": true,
          "internalType": "address",
          "name": "applicant",
          "type": "address"
        },
        {
          "indexed": false,
          "internalType": "uint256",
          "name": "newBalance",
          "type": "uint256"
        }
      ],
      "name": "ProvisionChangeDenied",
      "type": "event"
    },
    {
      "anonymous": false,
      "inputs": [
        {
          "indexed": true,
          "internalType": "address",
          "name": "applicant",
          "type": "address"
        },
        {
          "indexed": false,
          "internalType": "string",
          "name": "mealRequested",
          "type": "string"
        }
      ],
      "name": "ProvisionChangeRequested",
      "type": "event"
    },
    {
      "anonymous": false,
      "inputs": [
        {
          "indexed": true,
          "internalType": "address",
          "name": "from",
          "type": "address"
        },
        {
          "indexed": true,
          "internalType": "address",
          "name": "to",
          "type": "address"
        },
        {
          "indexed": false,
          "internalType": "uint256",
          "name": "amount",
          "type": "uint256"
        }
      ],
      "name": "TicketTransferred",
      "type": "event"
    },
    {
      "anonymous": false,
      "inputs": [
        {
          "indexed": true,
          "internalType": "address",
          "name": "from",
          "type": "address"
        },
        {
          "indexed": true,
          "internalType": "address",
          "name": "to",
          "type": "address"
        },
        {
          "indexed": true,
          "internalType": "uint256",
          "name": "tokenId",
          "type": "uint256"
        }
      ],
      "name": "Transfer",
      "type": "event"
    },
    {
      "inputs": [
        {
          "internalType": "address",
          "name": "to",
          "type": "address"
        },
        {
          "internalType": "uint256",
          "name": "tokenId",
          "type": "uint256"
        }
      ],
      "name": "approve",
      "outputs": [],
      "stateMutability": "nonpayable",
      "type": "function"
    },
    {
      "inputs": [
        {
          "internalType": "address",
          "name": "owner",
          "type": "address"
        }
      ],
      "name": "balanceOf",
      "outputs": [
        {
          "internalType": "uint256",
          "name": "",
          "type": "uint256"
        }
      ],
      "stateMutability": "view",
      "type": "function",
      "constant": true
    },
    {
      "inputs": [],
      "name": "bureaucrat",
      "outputs": [
        {
          "internalType": "address",
          "name": "",
          "type": "address"
        }
      ],
      "stateMutability": "view",
      "type": "function",
      "constant": true
    },
    {
      "inputs": [
        {
          "internalType": "uint256",
          "name": "tokenId",
          "type": "uint256"
        }
      ],
      "name": "getApproved",
      "outputs": [
        {
          "internalType": "address",
          "name": "",
          "type": "address"
        }
      ],
      "stateMutability": "view",
      "type": "function",
      "constant": true
    },
    {
      "inputs": [
        {
          "internalType": "address",
          "name": "owner",
          "type": "address"
        },
        {
          "internalType": "address",
          "name": "operator",
          "type": "address"
        }
      ],
      "name": "isApprovedForAll",
      "outputs": [
        {
          "internalType": "bool",
          "name": "",
          "type": "bool"
        }
      ],
      "stateMutability": "view",
      "type": "function",
      "constant": true
    },
    {
      "inputs": [
        {
          "internalType": "uint256",
          "name": "",
          "type": "uint256"
        }
      ],
      "name": "meal",
      "outputs": [
        {
          "internalType": "string",
          "name": "",
          "type": "string"
        }
      ],
      "stateMutability": "view",
      "type": "function",
      "constant": true
    },
    {
      "inputs": [
        {
          "internalType": "address",
          "name": "",
          "type": "address"
        }
      ],
      "name": "merchants",
      "outputs": [
        {
          "internalType": "bool",
          "name": "registered",
          "type": "bool"
        }
      ],
      "stateMutability": "view",
      "type": "function",
      "constant": true
    },
    {
      "inputs": [],
      "name": "name",
      "outputs": [
        {
          "internalType": "string",
          "name": "",
          "type": "string"
        }
      ],
      "stateMutability": "view",
      "type": "function",
      "constant": true
    },
    {
      "inputs": [
        {
          "internalType": "uint256",
          "name": "tokenId",
          "type": "uint256"
        }
      ],
      "name": "ownerOf",
      "outputs": [
        {
          "internalType": "address",
          "name": "",
          "type": "address"
        }
      ],
      "stateMutability": "view",
      "type": "function",
      "constant": true
    },
    {
      "inputs": [
        {
          "internalType": "address",
          "name": "",
          "type": "address"
        }
      ],
      "name": "participants",
      "outputs": [
        {
          "internalType": "uint256",
          "name": "balance",
          "type": "uint256"
        },
        {
          "internalType": "uint256",
          "name": "magicNumber",
          "type": "uint256"
        },
        {
          "internalType": "bool",
          "name": "provisionChangeRequested",
          "type": "bool"
        },
        {
          "internalType": "string",
          "name": "openRequestMeal",
          "type": "string"
        },
        {
          "internalType": "bool",
          "name": "registered",
          "type": "bool"
        }
      ],
      "stateMutability": "view",
      "type": "function",
      "constant": true
    },
    {
      "inputs": [
        {
          "internalType": "address",
          "name": "from",
          "type": "address"
        },
        {
          "internalType": "address",
          "name": "to",
          "type": "address"
        },
        {
          "internalType": "uint256",
          "name": "tokenId",
          "type": "uint256"
        }
      ],
      "name": "safeTransferFrom",
      "outputs": [],
      "stateMutability": "nonpayable",
      "type": "function"
    },
    {
      "inputs": [
        {
          "internalType": "address",
          "name": "from",
          "type": "address"
        },
        {
          "internalType": "address",
          "name": "to",
          "type": "address"
        },
        {
          "internalType": "uint256",
          "name": "tokenId",
          "type": "uint256"
        },
        {
          "internalType": "bytes",
          "name": "data",
          "type": "bytes"
        }
      ],
      "name": "safeTransferFrom",
      "outputs": [],
      "stateMutability": "nonpayable",
      "type": "function"
    },
    {
      "inputs": [
        {
          "internalType": "address",
          "name": "operator",
          "type": "address"
        },
        {
          "internalType": "bool",
          "name": "approved",
          "type": "bool"
        }
      ],
      "name": "setApprovalForAll",
      "outputs": [],
      "stateMutability": "nonpayable",
      "type": "function"
    },
    {
      "inputs": [
        {
          "internalType": "bytes4",
          "name": "interfaceId",
          "type": "bytes4"
        }
      ],
      "name": "supportsInterface",
      "outputs": [
        {
          "internalType": "bool",
          "name": "",
          "type": "bool"
        }
      ],
      "stateMutability": "view",
      "type": "function",
      "constant": true
    },
    {
      "inputs": [],
      "name": "symbol",
      "outputs": [
        {
          "internalType": "string",
          "name": "",
          "type": "string"
        }
      ],
      "stateMutability": "view",
      "type": "function",
      "constant": true
    },
    {
      "inputs": [
        {
          "internalType": "uint256",
          "name": "tokenId",
          "type": "uint256"
        }
      ],
      "name": "tokenURI",
      "outputs": [
        {
          "internalType": "string",
          "name": "",
          "type": "string"
        }
      ],
      "stateMutability": "view",
      "type": "function",
      "constant": true
    },
    {
      "inputs": [
        {
          "internalType": "address",
          "name": "from",
          "type": "address"
        },
        {
          "internalType": "address",
          "name": "to",
          "type": "address"
        },
        {
          "internalType": "uint256",
          "name": "tokenId",
          "type": "uint256"
        }
      ],
      "name": "transferFrom",
      "outputs": [],
      "stateMutability": "nonpayable",
      "type": "function"
    },
    {
      "inputs": [
        {
          "internalType": "address",
          "name": "",
          "type": "address"
        }
      ],
      "name": "users",
      "outputs": [
        {
          "internalType": "bool",
          "name": "",
          "type": "bool"
        }
      ],
      "stateMutability": "view",
      "type": "function",
      "constant": true
    },
    {
      "inputs": [],
      "name": "registerApplicant",
      "outputs": [],
      "stateMutability": "nonpayable",
      "type": "function"
    },
    {
      "inputs": [],
      "name": "registerMerchant",
      "outputs": [],
      "stateMutability": "nonpayable",
      "type": "function"
    },
    {
      "inputs": [
        {
          "internalType": "address",
          "name": "to",
          "type": "address"
        },
        {
          "internalType": "string",
          "name": "mealToBuy",
          "type": "string"
        }
      ],
      "name": "purchaseMeal",
      "outputs": [],
      "stateMutability": "nonpayable",
      "type": "function"
    },
    {
      "inputs": [
        {
          "internalType": "address",
          "name": "to",
          "type": "address"
        },
        {
          "internalType": "uint256",
          "name": "noOfTokens",
          "type": "uint256"
        }
      ],
      "name": "sendToGovt",
      "outputs": [],
      "stateMutability": "nonpayable",
      "type": "function"
    },
    {
      "inputs": [
        {
          "internalType": "string",
          "name": "mealRequested",
          "type": "string"
        }
      ],
      "name": "requestProvisionChange",
      "outputs": [],
      "stateMutability": "nonpayable",
      "type": "function"
    },
    {
      "inputs": [
        {
          "internalType": "address",
          "name": "applicant",
          "type": "address"
        }
      ],
      "name": "approveProvisionChange",
      "outputs": [],
      "stateMutability": "nonpayable",
      "type": "function"
    },
    {
      "inputs": [
        {
          "internalType": "address",
          "name": "applicant",
          "type": "address"
        }
      ],
      "name": "mint",
      "outputs": [],
      "stateMutability": "nonpayable",
      "type": "function"
    },
    {
      "inputs": [
        {
          "internalType": "address",
          "name": "applicant",
          "type": "address"
        }
      ],
      "name": "denyProvisionChange",
      "outputs": [],
      "stateMutability": "nonpayable",
      "type": "function"
    },
    {
      "inputs": [
        {
          "internalType": "uint256",
          "name": "magicNumber",
          "type": "uint256"
        }
      ],
      "name": "setMagicNumber",
      "outputs": [],
      "stateMutability": "nonpayable",
      "type": "function"
    },
    {
      "inputs": [
        {
          "internalType": "address",
          "name": "owner",
          "type": "address"
        }
      ],
      "name": "getTokenId",
      "outputs": [
        {
          "internalType": "uint256[]",
          "name": "",
          "type": "uint256[]"
        }
      ],
      "stateMutability": "view",
      "type": "function",
      "constant": true
    },
    {
      "inputs": [
        {
          "internalType": "address",
          "name": "owner",
          "type": "address"
        }
      ],
      "name": "getTokenIdMerchant",
      "outputs": [
        {
          "internalType": "uint256[]",
          "name": "",
          "type": "uint256[]"
        }
      ],
      "stateMutability": "view",
      "type": "function",
      "constant": true
    },
    {
      "inputs": [
        {
          "internalType": "address",
          "name": "owner",
          "type": "address"
        }
      ],
      "name": "getMealsOwned",
      "outputs": [
        {
          "internalType": "string[]",
          "name": "",
          "type": "string[]"
        }
      ],
      "stateMutability": "view",
      "type": "function",
      "constant": true
    },
    {
      "inputs": [],
      "name": "getTokenBalance",
      "outputs": [
        {
          "internalType": "uint256",
          "name": "",
          "type": "uint256"
        }
      ],
      "stateMutability": "view",
      "type": "function",
      "constant": true
    }
  ],
  "bytecode": "0x608060405260006009553480156200001657600080fd5b506040518060400160405280600481526020017f4d65616c000000000000000000000000000000000000000000000000000000008152506040518060400160405280600481526020017f4d45414c000000000000000000000000000000000000000000000000000000008152508160009081620000949190620003c2565b508060019081620000a69190620003c2565b50505033600660006101000a81548173ffffffffffffffffffffffffffffffffffffffff021916908373ffffffffffffffffffffffffffffffffffffffff1602179055506001600b60003373ffffffffffffffffffffffffffffffffffffffff1673ffffffffffffffffffffffffffffffffffffffff16815260200190815260200160002060006101000a81548160ff021916908315150217905550620004a9565b600081519050919050565b7f4e487b7100000000000000000000000000000000000000000000000000000000600052604160045260246000fd5b7f4e487b7100000000000000000000000000000000000000000000000000000000600052602260045260246000fd5b60006002820490506001821680620001ca57607f821691505b602082108103620001e057620001df62000182565b5b50919050565b60008190508160005260206000209050919050565b60006020601f8301049050919050565b600082821b905092915050565b6000600883026200024a7fffffffffffffffffffffffffffffffffffffffffffffffffffffffffffffffff826200020b565b6200025686836200020b565b95508019841693508086168417925050509392505050565b6000819050919050565b6000819050919050565b6000620002a36200029d62000297846200026e565b62000278565b6200026e565b9050919050565b6000819050919050565b620002bf8362000282565b620002d7620002ce82620002aa565b84845462000218565b825550505050565b600090565b620002ee620002df565b620002fb818484620002b4565b505050565b5b81811015620003235762000317600082620002e4565b60018101905062000301565b5050565b601f82111562000372576200033c81620001e6565b6200034784620001fb565b8101602085101562000357578190505b6200036f6200036685620001fb565b83018262000300565b50505b505050565b600082821c905092915050565b6000620003976000198460080262000377565b1980831691505092915050565b6000620003b2838362000384565b9150826002028217905092915050565b620003cd8262000148565b67ffffffffffffffff811115620003e957620003e862000153565b5b620003f58254620001b1565b6200040282828562000327565b600060209050601f8311600181146200043a576000841562000425578287015190505b620004318582620003a4565b865550620004a1565b601f1984166200044a86620001e6565b60005b8281101562000474578489015182556001820191506020850194506020810190506200044d565b8683101562000494578489015162000490601f89168262000384565b8355505b6001600288020188555050505b505050505050565b61504280620004b96000396000f3fe608060405234801561001057600080fd5b50600436106101e55760003560e01c806355dabe421161010f578063a87430ba116100a2578063e985e9c511610071578063e985e9c51461057a578063ee14e939146105aa578063f1537686146105da578063f6cf6a841461060a576101e5565b8063a87430ba146104ce578063acd310d5146104fe578063b88d4fde1461052e578063c87b56dd1461054a576101e5565b806370a08231116100de57806370a082311461044657806382b2e2571461047657806395d89b4114610494578063a22cb465146104b2576101e5565b806355dabe42146103c05780636352211e146103ca578063659135dd146103fa5780636a6278421461042a576101e5565b806323b872dd116101875780633a17d690116101565780633a17d6901461036257806342842e0e1461037e578063452061961461039a578063540e2bff146103a4576101e5565b806323b872dd146102f05780632ba2ed981461030c57806331d3f5841461032857806339c7eac814610344576101e5565b8063095ea7b3116101c3578063095ea7b31461026857806309e69ede146102845780630ba6bacd146102b85780631a3f97dd146102d4576101e5565b806301ffc9a7146101ea57806306fdde031461021a578063081812fc14610238575b600080fd5b61020460048036038101906101ff9190613356565b61063a565b604051610211919061339e565b60405180910390f35b61022261071c565b60405161022f9190613449565b60405180910390f35b610252600480360381019061024d91906134a1565b6107ae565b60405161025f919061350f565b60405180910390f35b610282600480360381019061027d9190613556565b6107f4565b005b61029e60048036038101906102999190613596565b61090b565b6040516102af9594939291906135d2565b60405180910390f35b6102d260048036038101906102cd9190613596565b6109e3565b005b6102ee60048036038101906102e99190613556565b610bf8565b005b61030a6004803603810190610305919061362c565b610e01565b005b610326600480360381019061032191906134a1565b610e61565b005b610342600480360381019061033d91906136e4565b610fcc565b005b61034c6113df565b604051610359919061350f565b60405180910390f35b61037c60048036038101906103779190613744565b611405565b005b6103986004803603810190610393919061362c565b611625565b005b6103a2611645565b005b6103be60048036038101906103b99190613596565b611775565b005b6103c8611982565b005b6103e460048036038101906103df91906134a1565b611bf2565b6040516103f1919061350f565b60405180910390f35b610414600480360381019061040f91906134a1565b611c78565b6040516104219190613449565b60405180910390f35b610444600480360381019061043f9190613596565b611d24565b005b610460600480360381019061045b9190613596565b611f9b565b60405161046d9190613791565b60405180910390f35b61047e612052565b60405161048b9190613791565b60405180910390f35b61049c612062565b6040516104a99190613449565b60405180910390f35b6104cc60048036038101906104c791906137d8565b6120f4565b005b6104e860048036038101906104e39190613596565b61210a565b6040516104f5919061339e565b60405180910390f35b61051860048036038101906105139190613596565b61212a565b6040516105259190613924565b60405180910390f35b61054860048036038101906105439190613a76565b612245565b005b610564600480360381019061055f91906134a1565b6122a7565b6040516105719190613449565b60405180910390f35b610594600480360381019061058f9190613af9565b61230f565b6040516105a1919061339e565b60405180910390f35b6105c460048036038101906105bf9190613596565b6123a3565b6040516105d1919061339e565b60405180910390f35b6105f460048036038101906105ef9190613596565b6123ce565b6040516106019190613bf7565b60405180910390f35b610624600480360381019061061f9190613596565b612482565b6040516106319190613bf7565b60405180910390f35b60007f80ac58cd000000000000000000000000000000000000000000000000000000007bffffffffffffffffffffffffffffffffffffffffffffffffffffffff1916827bffffffffffffffffffffffffffffffffffffffffffffffffffffffff1916148061070557507f5b5e139f000000000000000000000000000000000000000000000000000000007bffffffffffffffffffffffffffffffffffffffffffffffffffffffff1916827bffffffffffffffffffffffffffffffffffffffffffffffffffffffff1916145b8061071557506107148261251c565b5b9050919050565b60606000805461072b90613c48565b80601f016020809104026020016040519081016040528092919081815260200182805461075790613c48565b80156107a45780601f10610779576101008083540402835291602001916107a4565b820191906000526020600020905b81548152906001019060200180831161078757829003601f168201915b5050505050905090565b60006107b982612586565b6004600083815260200190815260200160002060009054906101000a900473ffffffffffffffffffffffffffffffffffffffff169050919050565b60006107ff82611bf2565b90508073ffffffffffffffffffffffffffffffffffffffff168373ffffffffffffffffffffffffffffffffffffffff160361086f576040517f08c379a000000000000000000000000000000000000000000000000000000000815260040161086690613ceb565b60405180910390fd5b8073ffffffffffffffffffffffffffffffffffffffff1661088e6125d1565b73ffffffffffffffffffffffffffffffffffffffff1614806108bd57506108bc816108b76125d1565b61230f565b5b6108fc576040517f08c379a00000000000000000000000000000000000000000000000000000000081526004016108f390613d7d565b60405180910390fd5b61090683836125d9565b505050565b600a6020528060005260406000206000915090508060000154908060010154908060020160009054906101000a900460ff169080600601805461094d90613c48565b80601f016020809104026020016040519081016040528092919081815260200182805461097990613c48565b80156109c65780601f1061099b576101008083540402835291602001916109c6565b820191906000526020600020905b8154815290600101906020018083116109a957829003601f168201915b5050505050908060070160009054906101000a900460ff16905085565b600660009054906101000a900473ffffffffffffffffffffffffffffffffffffffff1673ffffffffffffffffffffffffffffffffffffffff163373ffffffffffffffffffffffffffffffffffffffff1614610a73576040517f08c379a0000000000000000000000000000000000000000000000000000000008152600401610a6a90613e0f565b60405180910390fd5b600a60008273ffffffffffffffffffffffffffffffffffffffff1673ffffffffffffffffffffffffffffffffffffffff16815260200190815260200160002060020160009054906101000a900460ff16610b02576040517f08c379a0000000000000000000000000000000000000000000000000000000008152600401610af990613ea1565b60405180910390fd5b6000600a60008373ffffffffffffffffffffffffffffffffffffffff1673ffffffffffffffffffffffffffffffffffffffff16815260200190815260200160002060020160006101000a81548160ff021916908315150217905550610b6681611d24565b8073ffffffffffffffffffffffffffffffffffffffff167ff57cf6d280695c556b409823337d746075d8a4c7f64fff144463113c27fffa56600a60008473ffffffffffffffffffffffffffffffffffffffff1673ffffffffffffffffffffffffffffffffffffffff168152602001908152602001600020600601604051610bed9190613f5a565b60405180910390a250565b600c60003373ffffffffffffffffffffffffffffffffffffffff1673ffffffffffffffffffffffffffffffffffffffff16815260200190815260200160002060020160009054906101000a900460ff16610c87576040517f08c379a0000000000000000000000000000000000000000000000000000000008152600401610c7e90613fee565b60405180910390fd5b80600c60003373ffffffffffffffffffffffffffffffffffffffff1673ffffffffffffffffffffffffffffffffffffffff168152602001908152602001600020600001805490501015610d0f576040517f08c379a0000000000000000000000000000000000000000000000000000000008152600401610d0690614080565b60405180910390fd5b60005b81811015610d9657610d833384600c60003373ffffffffffffffffffffffffffffffffffffffff1673ffffffffffffffffffffffffffffffffffffffff1681526020019081526020016000206000018481548110610d7357610d726140a0565b5b9060005260206000200154612692565b8080610d8e906140fe565b915050610d12565b508173ffffffffffffffffffffffffffffffffffffffff163373ffffffffffffffffffffffffffffffffffffffff167f17fe3deddce525fa12700a731e77ea94c319000ee656076e9e3f0d21638db7666000604051610df5919061418b565b60405180910390a35050565b610e12610e0c6125d1565b8261298b565b610e51576040517f08c379a0000000000000000000000000000000000000000000000000000000008152600401610e4890614218565b60405180910390fd5b610e5c838383612692565b505050565b600c60003373ffffffffffffffffffffffffffffffffffffffff1673ffffffffffffffffffffffffffffffffffffffff16815260200190815260200160002060020160009054906101000a900460ff16610ef0576040517f08c379a0000000000000000000000000000000000000000000000000000000008152600401610ee790613fee565b60405180910390fd5b6000811015610f34576040517f08c379a0000000000000000000000000000000000000000000000000000000008152600401610f2b906142aa565b60405180910390fd5b80600a60003373ffffffffffffffffffffffffffffffffffffffff1673ffffffffffffffffffffffffffffffffffffffff168152602001908152602001600020600101819055503373ffffffffffffffffffffffffffffffffffffffff167f1ac19207c0953072a214e2dcd4fe07d08463d0ac91b3e0a26dc1c4b2791eebc582604051610fc19190613791565b60405180910390a250565b600a60003373ffffffffffffffffffffffffffffffffffffffff1673ffffffffffffffffffffffffffffffffffffffff16815260200190815260200160002060070160009054906101000a900460ff1661105b576040517f08c379a00000000000000000000000000000000000000000000000000000000081526004016110529061433c565b60405180910390fd5b6000600a60003373ffffffffffffffffffffffffffffffffffffffff1673ffffffffffffffffffffffffffffffffffffffff16815260200190815260200160002060050183836040516110af92919061438c565b90815260200160405180910390208054905003611101576040517f08c379a00000000000000000000000000000000000000000000000000000000081526004016110f890614080565b60405180910390fd5b6000600a60003373ffffffffffffffffffffffffffffffffffffffff1673ffffffffffffffffffffffffffffffffffffffff168152602001908152602001600020600501838360405161115592919061438c565b90815260200160405180910390208054905090506111fc3385600a60003373ffffffffffffffffffffffffffffffffffffffff1673ffffffffffffffffffffffffffffffffffffffff16815260200190815260200160002060050186866040516111c092919061438c565b90815260200160405180910390206001856111db91906143a5565b815481106111ec576111eb6140a0565b5b9060005260206000200154612692565b600c60008573ffffffffffffffffffffffffffffffffffffffff1673ffffffffffffffffffffffffffffffffffffffff168152602001908152602001600020600001600a60003373ffffffffffffffffffffffffffffffffffffffff1673ffffffffffffffffffffffffffffffffffffffff168152602001908152602001600020600501848460405161129092919061438c565b90815260200160405180910390206001836112ab91906143a5565b815481106112bc576112bb6140a0565b5b90600052602060002001549080600181540180825580915050600190039060005260206000200160009091909190915055600a60003373ffffffffffffffffffffffffffffffffffffffff1673ffffffffffffffffffffffffffffffffffffffff168152602001908152602001600020600501838360405161133f92919061438c565b908152602001604051809103902080548061135d5761135c6143d9565b5b600190038181906000526020600020016000905590558373ffffffffffffffffffffffffffffffffffffffff163373ffffffffffffffffffffffffffffffffffffffff167f17fe3deddce525fa12700a731e77ea94c319000ee656076e9e3f0d21638db76660006040516113d1919061418b565b60405180910390a350505050565b600660009054906101000a900473ffffffffffffffffffffffffffffffffffffffff1681565b600a60003373ffffffffffffffffffffffffffffffffffffffff1673ffffffffffffffffffffffffffffffffffffffff16815260200190815260200160002060070160009054906101000a900460ff16611494576040517f08c379a000000000000000000000000000000000000000000000000000000000815260040161148b9061433c565b60405180910390fd5b600a60003373ffffffffffffffffffffffffffffffffffffffff1673ffffffffffffffffffffffffffffffffffffffff16815260200190815260200160002060020160009054906101000a900460ff1615611524576040517f08c379a000000000000000000000000000000000000000000000000000000000815260040161151b90614454565b60405180910390fd5b6001600a60003373ffffffffffffffffffffffffffffffffffffffff1673ffffffffffffffffffffffffffffffffffffffff16815260200190815260200160002060020160006101000a81548160ff0219169083151502179055508181600a60003373ffffffffffffffffffffffffffffffffffffffff1673ffffffffffffffffffffffffffffffffffffffff16815260200190815260200160002060060191826115d092919061460c565b503373ffffffffffffffffffffffffffffffffffffffff167f3749bf201820eb6bd36fbbc325fa2b4670a196182e764c11e6600e23bbaf9dd58383604051611619929190614709565b60405180910390a25050565b61164083838360405180602001604052806000815250612245565b505050565b600c60003373ffffffffffffffffffffffffffffffffffffffff1673ffffffffffffffffffffffffffffffffffffffff16815260200190815260200160002060020160009054906101000a900460ff16156116d5576040517f08c379a00000000000000000000000000000000000000000000000000000000081526004016116cc90614779565b60405180910390fd5b6001600c60003373ffffffffffffffffffffffffffffffffffffffff1673ffffffffffffffffffffffffffffffffffffffff16815260200190815260200160002060020160006101000a81548160ff0219169083151502179055503373ffffffffffffffffffffffffffffffffffffffff167f92b082de749f0ebd44fd01ce4acab93bf014fab9d1a385c57a6c5ad8d9d29af560405160405180910390a2565b600660009054906101000a900473ffffffffffffffffffffffffffffffffffffffff1673ffffffffffffffffffffffffffffffffffffffff163373ffffffffffffffffffffffffffffffffffffffff1614611805576040517f08c379a00000000000000000000000000000000000000000000000000000000081526004016117fc90613e0f565b60405180910390fd5b600a60008273ffffffffffffffffffffffffffffffffffffffff1673ffffffffffffffffffffffffffffffffffffffff16815260200190815260200160002060020160009054906101000a900460ff16611894576040517f08c379a000000000000000000000000000000000000000000000000000000000815260040161188b90613ea1565b60405180910390fd5b6000600a60008373ffffffffffffffffffffffffffffffffffffffff1673ffffffffffffffffffffffffffffffffffffffff16815260200190815260200160002060020160006101000a81548160ff0219169083151502179055508073ffffffffffffffffffffffffffffffffffffffff167fe4f86d8b20ded56c3d91ef1e193b47f16579b01d7713d1948bc4fc1a96bb85ee600a60008473ffffffffffffffffffffffffffffffffffffffff1673ffffffffffffffffffffffffffffffffffffffff168152602001908152602001600020600001546040516119779190613791565b60405180910390a250565b600b60003373ffffffffffffffffffffffffffffffffffffffff1673ffffffffffffffffffffffffffffffffffffffff16815260200190815260200160002060009054906101000a900460ff1615611a0f576040517f08c379a0000000000000000000000000000000000000000000000000000000008152600401611a0690614779565b60405180910390fd5b6001600b60003373ffffffffffffffffffffffffffffffffffffffff1673ffffffffffffffffffffffffffffffffffffffff16815260200190815260200160002060006101000a81548160ff0219169083151502179055506000600a60003373ffffffffffffffffffffffffffffffffffffffff1673ffffffffffffffffffffffffffffffffffffffff168152602001908152602001600020600001819055506000600a60003373ffffffffffffffffffffffffffffffffffffffff1673ffffffffffffffffffffffffffffffffffffffff168152602001908152602001600020600101819055506000600a60003373ffffffffffffffffffffffffffffffffffffffff1673ffffffffffffffffffffffffffffffffffffffff16815260200190815260200160002060020160006101000a81548160ff0219169083151502179055506001600a60003373ffffffffffffffffffffffffffffffffffffffff1673ffffffffffffffffffffffffffffffffffffffff16815260200190815260200160002060070160006101000a81548160ff0219169083151502179055503373ffffffffffffffffffffffffffffffffffffffff167fda626996b6a73d01583af35f00e8f523759cebc5f4865edf77713226e9b171d660405160405180910390a2565b600080611bfe83612a20565b9050600073ffffffffffffffffffffffffffffffffffffffff168173ffffffffffffffffffffffffffffffffffffffff1603611c6f576040517f08c379a0000000000000000000000000000000000000000000000000000000008152600401611c66906147e5565b60405180910390fd5b80915050919050565b60078181548110611c8857600080fd5b906000526020600020016000915090508054611ca390613c48565b80601f0160208091040260200160405190810160405280929190818152602001828054611ccf90613c48565b8015611d1c5780601f10611cf157610100808354040283529160200191611d1c565b820191906000526020600020905b815481529060010190602001808311611cff57829003601f168201915b505050505081565b6001600954611d339190614805565b6009819055506007600a60008373ffffffffffffffffffffffffffffffffffffffff1673ffffffffffffffffffffffffffffffffffffffff168152602001908152602001600020600601908060018154018082558091505060019003906000526020600020016000909190919091509081611dae9190614864565b50611dbb81600954612a5d565b600a60008273ffffffffffffffffffffffffffffffffffffffff1673ffffffffffffffffffffffffffffffffffffffff168152602001908152602001600020600501600a60008373ffffffffffffffffffffffffffffffffffffffff1673ffffffffffffffffffffffffffffffffffffffff168152602001908152602001600020600601604051611e4c91906149cf565b90815260200160405180910390206009549080600181540180825580915050600190039060005260206000200160009091909190915055600a60008273ffffffffffffffffffffffffffffffffffffffff1673ffffffffffffffffffffffffffffffffffffffff168152602001908152602001600020600401600a60008373ffffffffffffffffffffffffffffffffffffffff1673ffffffffffffffffffffffffffffffffffffffff168152602001908152602001600020600601908060018154018082558091505060019003906000526020600020016000909190919091509081611f389190614864565b5060405180602001604052806000815250600a60008373ffffffffffffffffffffffffffffffffffffffff1673ffffffffffffffffffffffffffffffffffffffff1681526020019081526020016000206006019081611f9791906149e6565b5050565b60008073ffffffffffffffffffffffffffffffffffffffff168273ffffffffffffffffffffffffffffffffffffffff160361200b576040517f08c379a000000000000000000000000000000000000000000000000000000000815260040161200290614b2a565b60405180910390fd5b600360008373ffffffffffffffffffffffffffffffffffffffff1673ffffffffffffffffffffffffffffffffffffffff168152602001908152602001600020549050919050565b600061205d33611f9b565b905090565b60606001805461207190613c48565b80601f016020809104026020016040519081016040528092919081815260200182805461209d90613c48565b80156120ea5780601f106120bf576101008083540402835291602001916120ea565b820191906000526020600020905b8154815290600101906020018083116120cd57829003601f168201915b5050505050905090565b6121066120ff6125d1565b8383612a7b565b5050565b600b6020528060005260406000206000915054906101000a900460ff1681565b6060600a60008373ffffffffffffffffffffffffffffffffffffffff1673ffffffffffffffffffffffffffffffffffffffff168152602001908152602001600020600401805480602002602001604051908101604052809291908181526020016000905b8282101561223a5783829060005260206000200180546121ad90613c48565b80601f01602080910402602001604051908101604052809291908181526020018280546121d990613c48565b80156122265780601f106121fb57610100808354040283529160200191612226565b820191906000526020600020905b81548152906001019060200180831161220957829003601f168201915b50505050508152602001906001019061218e565b505050509050919050565b6122566122506125d1565b8361298b565b612295576040517f08c379a000000000000000000000000000000000000000000000000000000000815260040161228c90614218565b60405180910390fd5b6122a184848484612be7565b50505050565b60606122b282612586565b60006122bc612c43565b905060008151116122dc5760405180602001604052806000815250612307565b806122e684612c5a565b6040516020016122f7929190614b7b565b6040516020818303038152906040525b915050919050565b6000600560008473ffffffffffffffffffffffffffffffffffffffff1673ffffffffffffffffffffffffffffffffffffffff16815260200190815260200160002060008373ffffffffffffffffffffffffffffffffffffffff1673ffffffffffffffffffffffffffffffffffffffff16815260200190815260200160002060009054906101000a900460ff16905092915050565b600c6020528060005260406000206000915090508060020160009054906101000a900460ff16905081565b6060600a60008373ffffffffffffffffffffffffffffffffffffffff1673ffffffffffffffffffffffffffffffffffffffff16815260200190815260200160002060050160405161241e90614beb565b908152602001604051809103902080548060200260200160405190810160405280929190818152602001828054801561247657602002820191906000526020600020905b815481526020019060010190808311612462575b50505050509050919050565b6060600c60008373ffffffffffffffffffffffffffffffffffffffff1673ffffffffffffffffffffffffffffffffffffffff16815260200190815260200160002060000180548060200260200160405190810160405280929190818152602001828054801561251057602002820191906000526020600020905b8154815260200190600101908083116124fc575b50505050509050919050565b60007f01ffc9a7000000000000000000000000000000000000000000000000000000007bffffffffffffffffffffffffffffffffffffffffffffffffffffffff1916827bffffffffffffffffffffffffffffffffffffffffffffffffffffffff1916149050919050565b61258f81612d28565b6125ce576040517f08c379a00000000000000000000000000000000000000000000000000000000081526004016125c5906147e5565b60405180910390fd5b50565b600033905090565b816004600083815260200190815260200160002060006101000a81548173ffffffffffffffffffffffffffffffffffffffff021916908373ffffffffffffffffffffffffffffffffffffffff160217905550808273ffffffffffffffffffffffffffffffffffffffff1661264c83611bf2565b73ffffffffffffffffffffffffffffffffffffffff167f8c5be1e5ebec7d5bd14f71427d1e84f3dd0314c0f7b2291e5b200ac8c7c3b92560405160405180910390a45050565b8273ffffffffffffffffffffffffffffffffffffffff166126b282611bf2565b73ffffffffffffffffffffffffffffffffffffffff1614612708576040517f08c379a00000000000000000000000000000000000000000000000000000000081526004016126ff90614c72565b60405180910390fd5b600073ffffffffffffffffffffffffffffffffffffffff168273ffffffffffffffffffffffffffffffffffffffff1603612777576040517f08c379a000000000000000000000000000000000000000000000000000000000815260040161276e90614d04565b60405180910390fd5b6127848383836001612d69565b8273ffffffffffffffffffffffffffffffffffffffff166127a482611bf2565b73ffffffffffffffffffffffffffffffffffffffff16146127fa576040517f08c379a00000000000000000000000000000000000000000000000000000000081526004016127f190614c72565b60405180910390fd5b6004600082815260200190815260200160002060006101000a81549073ffffffffffffffffffffffffffffffffffffffff02191690556001600360008573ffffffffffffffffffffffffffffffffffffffff1673ffffffffffffffffffffffffffffffffffffffff168152602001908152602001600020600082825403925050819055506001600360008473ffffffffffffffffffffffffffffffffffffffff1673ffffffffffffffffffffffffffffffffffffffff16815260200190815260200160002060008282540192505081905550816002600083815260200190815260200160002060006101000a81548173ffffffffffffffffffffffffffffffffffffffff021916908373ffffffffffffffffffffffffffffffffffffffff160217905550808273ffffffffffffffffffffffffffffffffffffffff168473ffffffffffffffffffffffffffffffffffffffff167fddf252ad1be2c89b69c2b068fc378daa952ba7f163c4a11628f55a4df523b3ef60405160405180910390a46129868383836001612d6f565b505050565b60008061299783611bf2565b90508073ffffffffffffffffffffffffffffffffffffffff168473ffffffffffffffffffffffffffffffffffffffff1614806129d957506129d8818561230f565b5b80612a1757508373ffffffffffffffffffffffffffffffffffffffff166129ff846107ae565b73ffffffffffffffffffffffffffffffffffffffff16145b91505092915050565b60006002600083815260200190815260200160002060009054906101000a900473ffffffffffffffffffffffffffffffffffffffff169050919050565b612a77828260405180602001604052806000815250612d75565b5050565b8173ffffffffffffffffffffffffffffffffffffffff168373ffffffffffffffffffffffffffffffffffffffff1603612ae9576040517f08c379a0000000000000000000000000000000000000000000000000000000008152600401612ae090614d70565b60405180910390fd5b80600560008573ffffffffffffffffffffffffffffffffffffffff1673ffffffffffffffffffffffffffffffffffffffff16815260200190815260200160002060008473ffffffffffffffffffffffffffffffffffffffff1673ffffffffffffffffffffffffffffffffffffffff16815260200190815260200160002060006101000a81548160ff0219169083151502179055508173ffffffffffffffffffffffffffffffffffffffff168373ffffffffffffffffffffffffffffffffffffffff167f17307eab39ab6107e8899845ad3d59bd9653f200f220920489ca2b5937696c3183604051612bda919061339e565b60405180910390a3505050565b612bf2848484612692565b612bfe84848484612dd0565b612c3d576040517f08c379a0000000000000000000000000000000000000000000000000000000008152600401612c3490614e02565b60405180910390fd5b50505050565b606060405180602001604052806000815250905090565b606060006001612c6984612f57565b01905060008167ffffffffffffffff811115612c8857612c8761394b565b5b6040519080825280601f01601f191660200182016040528015612cba5781602001600182028036833780820191505090505b509050600082602001820190505b600115612d1d578080600190039150507f3031323334353637383961626364656600000000000000000000000000000000600a86061a8153600a8581612d1157612d10614e22565b5b04945060008503612cc8575b819350505050919050565b60008073ffffffffffffffffffffffffffffffffffffffff16612d4a83612a20565b73ffffffffffffffffffffffffffffffffffffffff1614159050919050565b50505050565b50505050565b612d7f83836130aa565b612d8c6000848484612dd0565b612dcb576040517f08c379a0000000000000000000000000000000000000000000000000000000008152600401612dc290614e02565b60405180910390fd5b505050565b6000612df18473ffffffffffffffffffffffffffffffffffffffff166132c7565b15612f4a578373ffffffffffffffffffffffffffffffffffffffff1663150b7a02612e1a6125d1565b8786866040518563ffffffff1660e01b8152600401612e3c9493929190614ea6565b6020604051808303816000875af1925050508015612e7857506040513d601f19601f82011682018060405250810190612e759190614f07565b60015b612efa573d8060008114612ea8576040519150601f19603f3d011682016040523d82523d6000602084013e612ead565b606091505b506000815103612ef2576040517f08c379a0000000000000000000000000000000000000000000000000000000008152600401612ee990614e02565b60405180910390fd5b805181602001fd5b63150b7a0260e01b7bffffffffffffffffffffffffffffffffffffffffffffffffffffffff1916817bffffffffffffffffffffffffffffffffffffffffffffffffffffffff191614915050612f4f565b600190505b949350505050565b600080600090507a184f03e93ff9f4daa797ed6e38ed64bf6a1f0100000000000000008310612fb5577a184f03e93ff9f4daa797ed6e38ed64bf6a1f0100000000000000008381612fab57612faa614e22565b5b0492506040810190505b6d04ee2d6d415b85acef81000000008310612ff2576d04ee2d6d415b85acef81000000008381612fe857612fe7614e22565b5b0492506020810190505b662386f26fc10000831061302157662386f26fc10000838161301757613016614e22565b5b0492506010810190505b6305f5e100831061304a576305f5e10083816130405761303f614e22565b5b0492506008810190505b612710831061306f57612710838161306557613064614e22565b5b0492506004810190505b60648310613092576064838161308857613087614e22565b5b0492506002810190505b600a83106130a1576001810190505b80915050919050565b600073ffffffffffffffffffffffffffffffffffffffff168273ffffffffffffffffffffffffffffffffffffffff1603613119576040517f08c379a000000000000000000000000000000000000000000000000000000000815260040161311090614f80565b60405180910390fd5b61312281612d28565b15613162576040517f08c379a000000000000000000000000000000000000000000000000000000000815260040161315990614fec565b60405180910390fd5b613170600083836001612d69565b61317981612d28565b156131b9576040517f08c379a00000000000000000000000000000000000000000000000000000000081526004016131b090614fec565b60405180910390fd5b6001600360008473ffffffffffffffffffffffffffffffffffffffff1673ffffffffffffffffffffffffffffffffffffffff16815260200190815260200160002060008282540192505081905550816002600083815260200190815260200160002060006101000a81548173ffffffffffffffffffffffffffffffffffffffff021916908373ffffffffffffffffffffffffffffffffffffffff160217905550808273ffffffffffffffffffffffffffffffffffffffff16600073ffffffffffffffffffffffffffffffffffffffff167fddf252ad1be2c89b69c2b068fc378daa952ba7f163c4a11628f55a4df523b3ef60405160405180910390a46132c3600083836001612d6f565b5050565b6000808273ffffffffffffffffffffffffffffffffffffffff163b119050919050565b6000604051905090565b600080fd5b600080fd5b60007fffffffff0000000000000000000000000000000000000000000000000000000082169050919050565b613333816132fe565b811461333e57600080fd5b50565b6000813590506133508161332a565b92915050565b60006020828403121561336c5761336b6132f4565b5b600061337a84828501613341565b91505092915050565b60008115159050919050565b61339881613383565b82525050565b60006020820190506133b3600083018461338f565b92915050565b600081519050919050565b600082825260208201905092915050565b60005b838110156133f35780820151818401526020810190506133d8565b60008484015250505050565b6000601f19601f8301169050919050565b600061341b826133b9565b61342581856133c4565b93506134358185602086016133d5565b61343e816133ff565b840191505092915050565b600060208201905081810360008301526134638184613410565b905092915050565b6000819050919050565b61347e8161346b565b811461348957600080fd5b50565b60008135905061349b81613475565b92915050565b6000602082840312156134b7576134b66132f4565b5b60006134c58482850161348c565b91505092915050565b600073ffffffffffffffffffffffffffffffffffffffff82169050919050565b60006134f9826134ce565b9050919050565b613509816134ee565b82525050565b60006020820190506135246000830184613500565b92915050565b613533816134ee565b811461353e57600080fd5b50565b6000813590506135508161352a565b92915050565b6000806040838503121561356d5761356c6132f4565b5b600061357b85828601613541565b925050602061358c8582860161348c565b9150509250929050565b6000602082840312156135ac576135ab6132f4565b5b60006135ba84828501613541565b91505092915050565b6135cc8161346b565b82525050565b600060a0820190506135e760008301886135c3565b6135f460208301876135c3565b613601604083018661338f565b81810360608301526136138185613410565b9050613622608083018461338f565b9695505050505050565b600080600060608486031215613645576136446132f4565b5b600061365386828701613541565b935050602061366486828701613541565b92505060406136758682870161348c565b9150509250925092565b600080fd5b600080fd5b600080fd5b60008083601f8401126136a4576136a361367f565b5b8235905067ffffffffffffffff8111156136c1576136c0613684565b5b6020830191508360018202830111156136dd576136dc613689565b5b9250929050565b6000806000604084860312156136fd576136fc6132f4565b5b600061370b86828701613541565b935050602084013567ffffffffffffffff81111561372c5761372b6132f9565b5b6137388682870161368e565b92509250509250925092565b6000806020838503121561375b5761375a6132f4565b5b600083013567ffffffffffffffff811115613779576137786132f9565b5b6137858582860161368e565b92509250509250929050565b60006020820190506137a660008301846135c3565b92915050565b6137b581613383565b81146137c057600080fd5b50565b6000813590506137d2816137ac565b92915050565b600080604083850312156137ef576137ee6132f4565b5b60006137fd85828601613541565b925050602061380e858286016137c3565b9150509250929050565b600081519050919050565b600082825260208201905092915050565b6000819050602082019050919050565b600082825260208201905092915050565b6000613860826133b9565b61386a8185613844565b935061387a8185602086016133d5565b613883816133ff565b840191505092915050565b600061389a8383613855565b905092915050565b6000602082019050919050565b60006138ba82613818565b6138c48185613823565b9350836020820285016138d685613834565b8060005b8581101561391257848403895281516138f3858261388e565b94506138fe836138a2565b925060208a019950506001810190506138da565b50829750879550505050505092915050565b6000602082019050818103600083015261393e81846138af565b905092915050565b600080fd5b7f4e487b7100000000000000000000000000000000000000000000000000000000600052604160045260246000fd5b613983826133ff565b810181811067ffffffffffffffff821117156139a2576139a161394b565b5b80604052505050565b60006139b56132ea565b90506139c1828261397a565b919050565b600067ffffffffffffffff8211156139e1576139e061394b565b5b6139ea826133ff565b9050602081019050919050565b82818337600083830152505050565b6000613a19613a14846139c6565b6139ab565b905082815260208101848484011115613a3557613a34613946565b5b613a408482856139f7565b509392505050565b600082601f830112613a5d57613a5c61367f565b5b8135613a6d848260208601613a06565b91505092915050565b60008060008060808587031215613a9057613a8f6132f4565b5b6000613a9e87828801613541565b9450506020613aaf87828801613541565b9350506040613ac08782880161348c565b925050606085013567ffffffffffffffff811115613ae157613ae06132f9565b5b613aed87828801613a48565b91505092959194509250565b60008060408385031215613b1057613b0f6132f4565b5b6000613b1e85828601613541565b9250506020613b2f85828601613541565b9150509250929050565b600081519050919050565b600082825260208201905092915050565b6000819050602082019050919050565b613b6e8161346b565b82525050565b6000613b808383613b65565b60208301905092915050565b6000602082019050919050565b6000613ba482613b39565b613bae8185613b44565b9350613bb983613b55565b8060005b83811015613bea578151613bd18882613b74565b9750613bdc83613b8c565b925050600181019050613bbd565b5085935050505092915050565b60006020820190508181036000830152613c118184613b99565b905092915050565b7f4e487b7100000000000000000000000000000000000000000000000000000000600052602260045260246000fd5b60006002820490506001821680613c6057607f821691505b602082108103613c7357613c72613c19565b5b50919050565b7f4552433732313a20617070726f76616c20746f2063757272656e74206f776e6560008201527f7200000000000000000000000000000000000000000000000000000000000000602082015250565b6000613cd56021836133c4565b9150613ce082613c79565b604082019050919050565b60006020820190508181036000830152613d0481613cc8565b9050919050565b7f4552433732313a20617070726f76652063616c6c6572206973206e6f7420746f60008201527f6b656e206f776e6572206f7220617070726f76656420666f7220616c6c000000602082015250565b6000613d67603d836133c4565b9150613d7282613d0b565b604082019050919050565b60006020820190508181036000830152613d9681613d5a565b9050919050565b7f4f6e6c792074686520627572656175637261742063616e20706572666f726d2060008201527f7468697320616374696f6e000000000000000000000000000000000000000000602082015250565b6000613df9602b836133c4565b9150613e0482613d9d565b604082019050919050565b60006020820190508181036000830152613e2881613dec565b9050919050565b7f4e6f2070726f766973696f6e206368616e676520686173206265656e2072657160008201527f75657374656420666f722074686973206170706c6963616e7400000000000000602082015250565b6000613e8b6039836133c4565b9150613e9682613e2f565b604082019050919050565b60006020820190508181036000830152613eba81613e7e565b9050919050565b60008190508160005260206000209050919050565b60008154613ee381613c48565b613eed81866133c4565b94506001821660008114613f085760018114613f1e57613f51565b60ff198316865281151560200286019350613f51565b613f2785613ec1565b60005b83811015613f4957815481890152600182019150602081019050613f2a565b808801955050505b50505092915050565b60006020820190508181036000830152613f748184613ed6565b905092915050565b7f4f6e6c79206d65726368616e74732063616e20706572666f726d20746869732060008201527f616374696f6e0000000000000000000000000000000000000000000000000000602082015250565b6000613fd86026836133c4565b9150613fe382613f7c565b604082019050919050565b6000602082019050818103600083015261400781613fcb565b9050919050565b7f596f7520646f206e6f74206861766520656e6f756768207469636b657473207460008201527f6f20706572666f726d2074686973207472616e73666572000000000000000000602082015250565b600061406a6037836133c4565b91506140758261400e565b604082019050919050565b600060208201905081810360008301526140998161405d565b9050919050565b7f4e487b7100000000000000000000000000000000000000000000000000000000600052603260045260246000fd5b7f4e487b7100000000000000000000000000000000000000000000000000000000600052601160045260246000fd5b60006141098261346b565b91507fffffffffffffffffffffffffffffffffffffffffffffffffffffffffffffffff820361413b5761413a6140cf565b5b600182019050919050565b6000819050919050565b6000819050919050565b600061417561417061416b84614146565b614150565b61346b565b9050919050565b6141858161415a565b82525050565b60006020820190506141a0600083018461417c565b92915050565b7f4552433732313a2063616c6c6572206973206e6f7420746f6b656e206f776e6560008201527f72206f7220617070726f76656400000000000000000000000000000000000000602082015250565b6000614202602d836133c4565b915061420d826141a6565b604082019050919050565b60006020820190508181036000830152614231816141f5565b9050919050565b7f4d61676963206e756d626572206d757374206265206e6f6e2d6e65676174697660008201527f6500000000000000000000000000000000000000000000000000000000000000602082015250565b60006142946021836133c4565b915061429f82614238565b604082019050919050565b600060208201905081810360008301526142c381614287565b9050919050565b7f596f75206d75737420626520616e206170706c6963616e7420746f207065726660008201527f6f726d207468697320616374696f6e0000000000000000000000000000000000602082015250565b6000614326602f836133c4565b9150614331826142ca565b604082019050919050565b6000602082019050818103600083015261435581614319565b9050919050565b600081905092915050565b6000614373838561435c565b93506143808385846139f7565b82840190509392505050565b6000614399828486614367565b91508190509392505050565b60006143b08261346b565b91506143bb8361346b565b92508282039050818111156143d3576143d26140cf565b5b92915050565b7f4e487b7100000000000000000000000000000000000000000000000000000000600052603160045260246000fd5b7f546865726520697320616e206f70656e207265717565737420616c7265616479600082015250565b600061443e6020836133c4565b915061444982614408565b602082019050919050565b6000602082019050818103600083015261446d81614431565b9050919050565b600082905092915050565b60006020601f8301049050919050565b600082821b905092915050565b6000600883026144cc7fffffffffffffffffffffffffffffffffffffffffffffffffffffffffffffffff8261448f565b6144d6868361448f565b95508019841693508086168417925050509392505050565b60006145096145046144ff8461346b565b614150565b61346b565b9050919050565b6000819050919050565b614523836144ee565b61453761452f82614510565b84845461449c565b825550505050565b600090565b61454c61453f565b61455781848461451a565b505050565b5b8181101561457b57614570600082614544565b60018101905061455d565b5050565b601f8211156145c05761459181613ec1565b61459a8461447f565b810160208510156145a9578190505b6145bd6145b58561447f565b83018261455c565b50505b505050565b600082821c905092915050565b60006145e3600019846008026145c5565b1980831691505092915050565b60006145fc83836145d2565b9150826002028217905092915050565b6146168383614474565b67ffffffffffffffff81111561462f5761462e61394b565b5b6146398254613c48565b61464482828561457f565b6000601f8311600181146146735760008415614661578287013590505b61466b85826145f0565b8655506146d3565b601f19841661468186613ec1565b60005b828110156146a957848901358255600182019150602085019450602081019050614684565b868310156146c657848901356146c2601f8916826145d2565b8355505b6001600288020188555050505b50505050505050565b60006146e883856133c4565b93506146f58385846139f7565b6146fe836133ff565b840190509392505050565b600060208201905081810360008301526147248184866146dc565b90509392505050565b7f596f752061726520616c72656164792072656769737465726564000000000000600082015250565b6000614763601a836133c4565b915061476e8261472d565b602082019050919050565b6000602082019050818103600083015261479281614756565b9050919050565b7f4552433732313a20696e76616c696420746f6b656e2049440000000000000000600082015250565b60006147cf6018836133c4565b91506147da82614799565b602082019050919050565b600060208201905081810360008301526147fe816147c2565b9050919050565b60006148108261346b565b915061481b8361346b565b9250828201905080821115614833576148326140cf565b5b92915050565b60008154905061484881613c48565b9050919050565b60008190508160005260206000209050919050565b81810361487257505061494a565b61487b82614839565b67ffffffffffffffff8111156148945761489361394b565b5b61489e8254613c48565b6148a982828561457f565b6000601f8311600181146148d857600084156148c6578287015490505b6148d085826145f0565b865550614943565b601f1984166148e68761484f565b96506148f186613ec1565b60005b82811015614919578489015482556001820191506001850194506020810190506148f4565b868310156149365784890154614932601f8916826145d2565b8355505b6001600288020188555050505b5050505050505b565b6000815461495981613c48565b614963818661435c565b9450600182166000811461497e5760018114614993576149c6565b60ff19831686528115158202860193506149c6565b61499c85613ec1565b60005b838110156149be5781548189015260018201915060208101905061499f565b838801955050505b50505092915050565b60006149db828461494c565b915081905092915050565b6149ef826133b9565b67ffffffffffffffff811115614a0857614a0761394b565b5b614a128254613c48565b614a1d82828561457f565b600060209050601f831160018114614a505760008415614a3e578287015190505b614a4885826145f0565b865550614ab0565b601f198416614a5e86613ec1565b60005b82811015614a8657848901518255600182019150602085019450602081019050614a61565b86831015614aa35784890151614a9f601f8916826145d2565b8355505b6001600288020188555050505b505050505050565b7f4552433732313a2061646472657373207a65726f206973206e6f74206120766160008201527f6c6964206f776e65720000000000000000000000000000000000000000000000602082015250565b6000614b146029836133c4565b9150614b1f82614ab8565b604082019050919050565b60006020820190508181036000830152614b4381614b07565b9050919050565b6000614b55826133b9565b614b5f818561435c565b9350614b6f8185602086016133d5565b80840191505092915050565b6000614b878285614b4a565b9150614b938284614b4a565b91508190509392505050565b7f70697a7a61000000000000000000000000000000000000000000000000000000600082015250565b6000614bd560058361435c565b9150614be082614b9f565b600582019050919050565b6000614bf682614bc8565b9150819050919050565b7f4552433732313a207472616e736665722066726f6d20696e636f72726563742060008201527f6f776e6572000000000000000000000000000000000000000000000000000000602082015250565b6000614c5c6025836133c4565b9150614c6782614c00565b604082019050919050565b60006020820190508181036000830152614c8b81614c4f565b9050919050565b7f4552433732313a207472616e7366657220746f20746865207a65726f2061646460008201527f7265737300000000000000000000000000000000000000000000000000000000602082015250565b6000614cee6024836133c4565b9150614cf982614c92565b604082019050919050565b60006020820190508181036000830152614d1d81614ce1565b9050919050565b7f4552433732313a20617070726f766520746f2063616c6c657200000000000000600082015250565b6000614d5a6019836133c4565b9150614d6582614d24565b602082019050919050565b60006020820190508181036000830152614d8981614d4d565b9050919050565b7f4552433732313a207472616e7366657220746f206e6f6e20455243373231526560008201527f63656976657220696d706c656d656e7465720000000000000000000000000000602082015250565b6000614dec6032836133c4565b9150614df782614d90565b604082019050919050565b60006020820190508181036000830152614e1b81614ddf565b9050919050565b7f4e487b7100000000000000000000000000000000000000000000000000000000600052601260045260246000fd5b600081519050919050565b600082825260208201905092915050565b6000614e7882614e51565b614e828185614e5c565b9350614e928185602086016133d5565b614e9b816133ff565b840191505092915050565b6000608082019050614ebb6000830187613500565b614ec86020830186613500565b614ed560408301856135c3565b8181036060830152614ee78184614e6d565b905095945050505050565b600081519050614f018161332a565b92915050565b600060208284031215614f1d57614f1c6132f4565b5b6000614f2b84828501614ef2565b91505092915050565b7f4552433732313a206d696e7420746f20746865207a65726f2061646472657373600082015250565b6000614f6a6020836133c4565b9150614f7582614f34565b602082019050919050565b60006020820190508181036000830152614f9981614f5d565b9050919050565b7f4552433732313a20746f6b656e20616c7265616479206d696e74656400000000600082015250565b6000614fd6601c836133c4565b9150614fe182614fa0565b602082019050919050565b6000602082019050818103600083015261500581614fc9565b905091905056fea2646970667358221220372fb554efb569b3a64ab14946dd709821e900182b71089690da5e22bb940abb64736f6c63430008110033",
  "immutableReferences": {},
  "source": "//SPDX-License-Identifier: UNLICENSED\r\npragma solidity ^0.8.17;\r\n\r\nimport \"@openzeppelin/contracts/token/ERC721/ERC721.sol\";\r\nimport \"@openzeppelin/contracts/utils/Counters.sol\";\r\n\r\ncontract SNAP is ERC721{\r\n    address public bureaucrat;\r\n    string[] public meal;\r\n    mapping(string => bool) _mealExists;\r\n    uint tokenCounter = 0;\r\n\r\n    \r\n    struct Applicant\r\n    {\r\n        uint256 balance;\r\n        uint256 magicNumber;\r\n        bool provisionChangeRequested;\r\n        uint[] tokenId;\r\n        string[] mealsOwned;\r\n        mapping(string => uint[]) tokens;\r\n        string openRequestMeal;\r\n        bool registered;\r\n    }\r\n    struct merchant{\r\n        uint[] tokenId;\r\n        mapping(string => uint[]) tokens;\r\n        bool registered;\r\n    }\r\n    \r\n    mapping(address => Applicant) public participants;\r\n    mapping(address => bool) public users;\r\n    mapping(address => merchant) public merchants;\r\n    \r\n    event TicketTransferred(address indexed from, address indexed to, uint256 amount);\r\n    event ProvisionChangeRequested(address indexed applicant, string mealRequested);\r\n    event ProvisionChangeApproved(address indexed applicant, string mealTicket);\r\n    event ProvisionChangeDenied(address indexed applicant, uint256 newBalance);\r\n    event MagicNumberSet(address indexed merchant, uint256 magicNumber);\r\n    event ApplicantRegister(address indexed user);\r\n    event MerchantRegister(address indexed merchants);\r\n    \r\n    constructor() ERC721(\"Meal\", \"MEAL\") public\r\n    {\r\n        bureaucrat = msg.sender;\r\n        users[msg.sender] = true;\r\n    }\r\n    \r\n    modifier onlyBureaucrat()\r\n    {\r\n        require(msg.sender == bureaucrat, \"Only the bureaucrat can perform this action\");\r\n        _;\r\n    }\r\n    \r\n    modifier onlyApplicant()\r\n    {\r\n        require(participants[msg.sender].registered, \"You must be an applicant to perform this action\");\r\n        _;\r\n    }\r\n    \r\n    modifier onlyMerchant()\r\n    {\r\n        require(merchants[msg.sender].registered, \"Only merchants can perform this action\");\r\n        _;\r\n    }\r\n    \r\n    function registerApplicant() public\r\n    {\r\n        require(!users[msg.sender], \"You are already registered\");\r\n        \r\n        users[msg.sender] = true;\r\n        participants[msg.sender].balance = 0;\r\n        participants[msg.sender].magicNumber = 0;\r\n        participants[msg.sender].provisionChangeRequested = false;\r\n        participants[msg.sender].registered = true;\r\n        emit ApplicantRegister(msg.sender);\r\n    }\r\n\r\n    function registerMerchant() public\r\n    {\r\n        require(!merchants[msg.sender].registered, \"You are already registered\");\r\n        merchants[msg.sender].registered = true;\r\n        emit MerchantRegister(msg.sender);\r\n    }\r\n\r\n\r\n \r\n    function purchaseMeal(address to, string calldata mealToBuy) public onlyApplicant\r\n    {\r\n        require(participants[msg.sender].tokens[mealToBuy].length != 0, \"You do not have enough tickets to perform this transfer\");\r\n        //participants[msg.sender].balance = participants[msg.sender].balance - amount;\r\n        //participants[to].balance = participants[to].balance + amount;\r\n        uint i = participants[msg.sender].tokens[mealToBuy].length;\r\n        // uint mealsFound = 0;\r\n        // for (i=0; i<=participants[msg.sender].tokenId.length; i++){\r\n            // if (compare((participants[msg.sender].mealsOwned[i]),mealToBuy)){\r\n        //         if(mealsFound < amount){\r\n        //             // mealsFound = mealsFound + 1;\r\n        //             // _transfer(msg.sender, to,participants[msg.sender].tokenId[i]);\r\n        //             // delete participants[msg.sender].tokenId[i];\r\n        //             // delete participants[msg.sender].mealsOwned[i];\r\n        //         }\r\n        //     }\r\n        // }\r\n        _transfer(msg.sender, to,participants[msg.sender].tokens[mealToBuy][i-1]);\r\n        merchants[to].tokenId.push(participants[msg.sender].tokens[mealToBuy][i-1]);\r\n        \r\n        // merchants[msg.sender].tokens[participants[applicant].openRequestMeal].push(tokenCounter);\r\n        participants[msg.sender].tokens[mealToBuy].pop();\r\n        //  _transfer(msg.sender, to,participants[msg.sender].tokenId[0]);\r\n    //    require(mealsFound == amount,\"No Sufficient Meal Coupons Found\");\r\n\r\n        emit TicketTransferred(msg.sender, to,0);\r\n    }\r\n    function sendToGovt(address to, uint noOfTokens) public onlyMerchant\r\n    {\r\n        require(merchants[msg.sender].tokenId.length >= noOfTokens, \"You do not have enough tickets to perform this transfer\");\r\n        \r\n        // uint len = merchants[msg.sender].tokenId.length;\r\n        \r\n        for (uint256 i; i < noOfTokens;i++) {\r\n            _transfer(msg.sender, to, merchants[msg.sender].tokenId[i]);\r\n           \r\n        }\r\n\r\n        // _transfer(msg.sender, to,participants[msg.sender].tokens[mealToBuy][i-1]);\r\n        // participants[msg.sender].tokens[mealToBuy].pop();\r\n\r\n        emit TicketTransferred(msg.sender, to,0);\r\n    }\r\n    \r\n    function requestProvisionChange(string calldata mealRequested) public onlyApplicant\r\n    {\r\n        require(!participants[msg.sender].provisionChangeRequested, \"There is an open request already\");\r\n        participants[msg.sender].provisionChangeRequested = true;\r\n        participants[msg.sender].openRequestMeal = mealRequested;\r\n        emit ProvisionChangeRequested(msg.sender, mealRequested);\r\n    }\r\n    \r\n    function approveProvisionChange(address applicant) public onlyBureaucrat\r\n    {\r\n        require(participants[applicant].provisionChangeRequested, \"No provision change has been requested for this applicant\");\r\n        participants[applicant].provisionChangeRequested = false;\r\n        mint(applicant);\r\n        \r\n        emit ProvisionChangeApproved(applicant, participants[applicant].openRequestMeal);\r\n    }\r\n    \r\n    function mint(address applicant) public {\r\n        //require(!_mealExists[_meal]);\r\n        tokenCounter = tokenCounter + 1;\r\n        meal.push(participants[applicant].openRequestMeal);\r\n        _safeMint(applicant, tokenCounter);\r\n        //_mealExists[participants[applicant].openRequestMeal] = true;\r\n        participants[applicant].tokens[participants[applicant].openRequestMeal].push(tokenCounter);\r\n        participants[applicant].mealsOwned.push(participants[applicant].openRequestMeal);\r\n        participants[applicant].openRequestMeal = '';\r\n    }\r\n\r\n    function denyProvisionChange(address applicant) public onlyBureaucrat\r\n    {\r\n        require(participants[applicant].provisionChangeRequested, \"No provision change has been requested for this applicant\");\r\n        participants[applicant].provisionChangeRequested = false;\r\n        emit ProvisionChangeDenied(applicant, participants[applicant].balance);\r\n    }\r\n    \r\n    function setMagicNumber(uint256 magicNumber) public onlyMerchant\r\n    {\r\n        require(magicNumber >= 0, \"Magic number must be non-negative\");\r\n        participants[msg.sender].magicNumber = magicNumber;\r\n        emit MagicNumberSet(msg.sender, magicNumber);\r\n    }\r\n\r\n    function getTokenId(address owner) public   view returns( uint  [] memory){\r\n        return participants[owner].tokens[\"pizza\"];\r\n    }\r\n    function getTokenIdMerchant(address owner) public   view returns( uint  [] memory){\r\n        return merchants[owner].tokenId;\r\n    }\r\n    function getMealsOwned(address owner) public   view returns( string  [] memory){\r\n        return participants[owner].mealsOwned;\r\n    }\r\n    function getTokenBalance() public   view returns( uint ){\r\n        return balanceOf(msg.sender);\r\n    }\r\n}\r\n",
  "sourcePath": "D:\\spring 23\\blockchain\\SANPonBlockchain\\contracts\\snap_sc.sol",
  "compiler": {
    "name": "solc",
    "version": "0.8.17+commit.8df45f5f.Emscripten.clang"
  },
  "schemaVersion": "3.4.13",
  "updatedAt": "2023-04-30T17:52:14.451Z",
  "networkType": "ethereum",
  "devdoc": {
    "kind": "dev",
    "methods": {
      "approve(address,uint256)": {
        "details": "See {IERC721-approve}."
      },
      "balanceOf(address)": {
        "details": "See {IERC721-balanceOf}."
      },
      "getApproved(uint256)": {
        "details": "See {IERC721-getApproved}."
      },
      "isApprovedForAll(address,address)": {
        "details": "See {IERC721-isApprovedForAll}."
      },
      "name()": {
        "details": "See {IERC721Metadata-name}."
      },
      "ownerOf(uint256)": {
        "details": "See {IERC721-ownerOf}."
      },
      "safeTransferFrom(address,address,uint256)": {
        "details": "See {IERC721-safeTransferFrom}."
      },
      "safeTransferFrom(address,address,uint256,bytes)": {
        "details": "See {IERC721-safeTransferFrom}."
      },
      "setApprovalForAll(address,bool)": {
        "details": "See {IERC721-setApprovalForAll}."
      },
      "supportsInterface(bytes4)": {
        "details": "See {IERC165-supportsInterface}."
      },
      "symbol()": {
        "details": "See {IERC721Metadata-symbol}."
      },
      "tokenURI(uint256)": {
        "details": "See {IERC721Metadata-tokenURI}."
      },
      "transferFrom(address,address,uint256)": {
        "details": "See {IERC721-transferFrom}."
      }
    },
    "version": 1
  },
  "userdoc": {
    "kind": "user",
    "methods": {},
    "version": 1
  }
}